{
  "contractName": "MultiSig",
  "abi": [
    {
      "anonymous": false,
      "inputs": [
        {
          "indexed": false,
          "internalType": "bool",
          "name": "instanceInProgress",
          "type": "bool"
        },
        {
          "indexed": false,
          "internalType": "bool",
          "name": "pauseStarted",
          "type": "bool"
        },
        {
          "indexed": false,
          "internalType": "bool",
          "name": "upgradeStarted",
          "type": "bool"
        },
        {
          "indexed": false,
          "internalType": "uint256",
          "name": "approvalsNeeded",
          "type": "uint256"
        }
      ],
      "name": "caseApprovedE",
      "type": "event"
    },
    {
      "anonymous": false,
      "inputs": [
        {
          "indexed": false,
          "internalType": "bool",
          "name": "paused",
          "type": "bool"
        },
        {
          "indexed": false,
          "internalType": "uint256",
          "name": "pauseTimer",
          "type": "uint256"
        },
        {
          "indexed": false,
          "internalType": "address",
          "name": "functionContractAddress",
          "type": "address"
        }
      ],
      "name": "confirmationE",
      "type": "event"
    },
    {
      "inputs": [],
      "name": "signMultisigInstance",
      "outputs": [],
      "stateMutability": "nonpayable",
      "type": "function"
    }
  ],
  "bytecode": "0x608060405234801561001057600080fd5b50610dbf806100206000396000f3fe608060405234801561001057600080fd5b506004361061002b5760003560e01c8063f68fae7d14610030575b600080fd5b61003861003a565b005b61004261053e565b61004b57600080fd5b600633600060405161005c90610b36565b90815260200160405180910390205460405160200161007c929190610a88565b6040516020818303038152906040526040516100989190610ab4565b908152602001604051809103902060009054906101000a900460ff16156100f4576040517f08c379a00000000000000000000000000000000000000000000000000000000081526004016100eb90610c65565b60405180910390fd5b6001600633600060405161010790610b36565b908152602001604051809103902054604051602001610127929190610a88565b6040516020818303038152906040526040516101439190610ab4565b908152602001604051809103902060006101000a81548160ff0219169083151502179055506001600060405161017890610ae2565b9081526020016040518091039020600082825403925050819055506000806040516101a290610ae2565b90815260200160405180910390205414156104685760066040516101c590610b21565b908152602001604051809103902060009054906101000a900460ff16156102b75760056040516101f490610b75565b908152602001604051809103902060009054906101000a900473ffffffffffffffffffffffffffffffffffffffff16600560405161023190610af7565b908152602001604051809103902060006101000a81548173ffffffffffffffffffffffffffffffffffffffff021916908373ffffffffffffffffffffffffffffffffffffffff1602179055506000600660405161028d90610b21565b908152602001604051809103902060006101000a81548160ff021916908315150217905550610376565b60066040516102c590610b4b565b908152602001604051809103902060009054906101000a900460ff161561037557600160066040516102f690610b9f565b908152602001604051809103902060006101000a81548160ff02191690831515021790555060024201600060405161032d90610b60565b9081526020016040518091039020819055506000600660405161034f90610b4b565b908152602001604051809103902060006101000a81548160ff0219169083151502179055505b5b6000600660405161038690610b0c565b908152602001604051809103902060006101000a81548160ff0219169083151502179055507f0c26009224ca49c23c6bfe163fd6950c7ccd8a791bd044cb909ab6d03c5d4aa460066040516103da90610b9f565b908152602001604051809103902060009054906101000a900460ff16600060405161040490610b60565b908152602001604051809103902054600560405161042190610af7565b908152602001604051809103902060009054906101000a900473ffffffffffffffffffffffffffffffffffffffff1660405161045f93929190610c0e565b60405180910390a15b7fbf8f7157bb6a2de37d60a6d57d5e7544c6ac8b6fc03000914da1dad44e7f4ad4600660405161049790610b0c565b908152602001604051809103902060009054906101000a900460ff1660066040516104c190610b4b565b908152602001604051809103902060009054906101000a900460ff1660066040516104eb90610b21565b908152602001604051809103902060009054906101000a900460ff16600060405161051590610ae2565b9081526020016040518091039020546040516105349493929190610bc9565b60405180910390a1565b600060405160200161054f90610b8a565b60405160208183030381529060405280519060200120600960003373ffffffffffffffffffffffffffffffffffffffff1673ffffffffffffffffffffffffffffffffffffffff1681526020019081526020016000206002016040516105b390610bb4565b90815260200160405180910390206040516020016105d19190610acb565b6040516020818303038152906040528051906020012014610627576040517f08c379a000000000000000000000000000000000000000000000000000000000815260040161061e90610c45565b60405180910390fd5b6001905090565b61063f61063a82610cd3565b610d4e565b82525050565b61064e81610cc1565b82525050565b61065d81610ce5565b82525050565b600061066e82610c9a565b6106788185610cb6565b9350610688818560208601610d1b565b80840191505092915050565b6000815460018116600081146106b157600181146106d65761071a565b607f60028304166106c28187610cb6565b955060ff198316865280860193505061071a565b600282046106e48187610cb6565b95506106ef85610c85565b60005b82811015610711578154818901526001820191506020810190506106f2565b82880195505050505b505092915050565b600061072f600f83610cb6565b91507f417070726f76616c734e656564656400000000000000000000000000000000006000830152600f82019050919050565b600061076f601783610cb6565b91507f66756e6374696f6e436f6e7472616374416464726573730000000000000000006000830152601782019050919050565b60006107af601283610cb6565b91507f496e7374616e6365496e50726f677265737300000000000000000000000000006000830152601282019050919050565b60006107ef600e83610cb6565b91507f55706772616465537461727465640000000000000000000000000000000000006000830152600e82019050919050565b600061082f601083610cb6565b91507f4d756c7469736967496e7374616e6365000000000000000000000000000000006000830152601082019050919050565b600061086f600c83610cb6565b91507f50617573655374617274656400000000000000000000000000000000000000006000830152600c82019050919050565b60006108af600a83610cb6565b91507f706175736554696d6572000000000000000000000000000000000000000000006000830152600a82019050919050565b60006108ef601e83610cb6565b91507f66756e6374696f6e436f6e7472616374416464726573735570677261646500006000830152601e82019050919050565b600061092f600a83610cb6565b91507f537570657241646d696e000000000000000000000000000000000000000000006000830152600a82019050919050565b600061096f600583610ca5565b91507f45525232370000000000000000000000000000000000000000000000000000006000830152602082019050919050565b60006109af600683610cb6565b91507f70617573656400000000000000000000000000000000000000000000000000006000830152600682019050919050565b60006109ef600883610cb6565b91507f55736572547970650000000000000000000000000000000000000000000000006000830152600882019050919050565b6000610a2f600583610ca5565b91507f45525233370000000000000000000000000000000000000000000000000000006000830152602082019050919050565b610a6b81610d11565b82525050565b610a82610a7d82610d11565b610d72565b82525050565b6000610a94828561062e565b601482019150610aa48284610a71565b6020820191508190509392505050565b6000610ac08284610663565b915081905092915050565b6000610ad78284610694565b915081905092915050565b6000610aed82610722565b9150819050919050565b6000610b0282610762565b9150819050919050565b6000610b17826107a2565b9150819050919050565b6000610b2c826107e2565b9150819050919050565b6000610b4182610822565b9150819050919050565b6000610b5682610862565b9150819050919050565b6000610b6b826108a2565b9150819050919050565b6000610b80826108e2565b9150819050919050565b6000610b9582610922565b9150819050919050565b6000610baa826109a2565b9150819050919050565b6000610bbf826109e2565b9150819050919050565b6000608082019050610bde6000830187610654565b610beb6020830186610654565b610bf86040830185610654565b610c056060830184610a62565b95945050505050565b6000606082019050610c236000830186610654565b610c306020830185610a62565b610c3d6040830184610645565b949350505050565b60006020820190508181036000830152610c5e81610962565b9050919050565b60006020820190508181036000830152610c7e81610a22565b9050919050565b60008190508160005260206000209050919050565b600081519050919050565b600082825260208201905092915050565b600081905092915050565b6000610ccc82610cf1565b9050919050565b6000610cde82610cf1565b9050919050565b60008115159050919050565b600073ffffffffffffffffffffffffffffffffffffffff82169050919050565b6000819050919050565b60005b83811015610d39578082015181840152602081019050610d1e565b83811115610d48576000848401525b50505050565b6000610d5982610d60565b9050919050565b6000610d6b82610d7c565b9050919050565b6000819050919050565b60008160601b905091905056fea26469706673582212207683665a5818c416cbb0da0fb6b0f0e9bd36b48ee3abf4960e392c783b7408f864736f6c63430007050033",
  "immutableReferences": {},
  "source": "// SPDX-License-Identifier: UNLICENSED\npragma solidity 0.7.5;\npragma abicoder v2;\n\nimport \"./Storage.sol\";\n\ncontract MultiSig is Storage{\n\n    event confirmationE(bool paused, uint256 pauseTimer, address functionContractAddress);\n    event caseApprovedE(bool instanceInProgress, bool pauseStarted,bool upgradeStarted, uint256 approvalsNeeded);\n\n    //SuperAdmin modifier ensures that a function is run only if it is called by a user in the superadmin array. Meaning a user has to be a superAdmin in order to run a functin with this modifier. \n    function onlyOwners() internal view returns(bool o){\n        require(keccak256(abi.encodePacked(_users[msg.sender]._stringUser[\"UserType\"])) == keccak256(abi.encodePacked(\"SuperAdmin\")) , \"ERR27\");\n        return true;\n    }\n\n    function createMultisigInstance() internal {\n        _uintStorage[\"MultisigInstance\"]++;\n        _boolStorage[string(abi.encodePacked(msg.sender, _uintStorage[\"MultisigInstance\"]))] = true;\n        _uintStorage[\"ApprovalsNeeded\"] = ((_addressArrayStorage[\"SuperAdmin\"].length + 1) /2) -1;\n\n    emit caseApprovedE(_boolStorage[\"InstanceInProgress\"], _boolStorage[\"PauseStarted\"], _boolStorage[\"UpgradeStarted\"], _uintStorage[\"ApprovalsNeeded\"]);\n   \n    }\n\n    function signMultisigInstance() public {\n        require(onlyOwners());\n        require(!_boolStorage[string(abi.encodePacked(msg.sender, _uintStorage[\"MultisigInstance\"]))], \"ERR37\");\n        _boolStorage[string(abi.encodePacked(msg.sender, _uintStorage[\"MultisigInstance\"]))] = true;\n        _uintStorage[\"ApprovalsNeeded\"] -= 1;\n\n        if(_uintStorage[\"ApprovalsNeeded\"] == 0){\n            if(_boolStorage[\"UpgradeStarted\"]){\n                _addressStorage[\"functionContractAddress\"] = _addressStorage[\"functionContractAddressUpgrade\"];\n                _boolStorage[\"UpgradeStarted\"] = false;\n            } else if (_boolStorage[\"PauseStarted\"]){\n                _boolStorage[\"paused\"] = true;\n                _uintStorage[\"pauseTimer\"] = (block.timestamp) + 2; //604800; // number is 7 days.\n                _boolStorage[\"PauseStarted\"] = false;\n            }\n            _boolStorage[\"InstanceInProgress\"] = false;\n            emit confirmationE(_boolStorage[\"paused\"], _uintStorage[\"pauseTimer\"], _addressStorage[\"functionContractAddress\"] );\n        }\n    emit caseApprovedE(_boolStorage[\"InstanceInProgress\"], _boolStorage[\"PauseStarted\"], _boolStorage[\"UpgradeStarted\"], _uintStorage[\"ApprovalsNeeded\"]);\n    }\n}",
  "sourcePath": "/Users/alex/Library/Mobile Documents/com~apple~CloudDocs/UiA/DAT304V21 - Oppgave/ChainVote/BackEnd/contracts/MultiSig.sol",
  "compiler": {
    "name": "solc",
    "version": "0.7.5+commit.eb77ed08.Emscripten.clang"
  },
  "schemaVersion": "3.3.4",
  "updatedAt": "2021-04-23T21:49:26.185Z",
  "devdoc": {
    "kind": "dev",
    "methods": {},
    "version": 1
  },
  "userdoc": {
    "kind": "user",
    "methods": {},
    "version": 1
  }
}