{
  "contractName": "Case",
  "abi": [
    {
      "anonymous": false,
      "inputs": [
        {
          "indexed": false,
          "internalType": "string[]",
          "name": "stringAlt",
          "type": "string[]"
        },
        {
          "indexed": false,
          "internalType": "uint256[]",
          "name": "uintAlt",
          "type": "uint256[]"
        }
      ],
      "name": "addApprovalsE",
      "type": "event"
    },
    {
      "anonymous": false,
      "inputs": [
        {
          "indexed": false,
          "internalType": "uint256",
          "name": "numberOfApprovals",
          "type": "uint256"
        },
        {
          "indexed": false,
          "internalType": "uint256",
          "name": "limit",
          "type": "uint256"
        }
      ],
      "name": "approvalsE",
      "type": "event"
    },
    {
      "anonymous": false,
      "inputs": [
        {
          "indexed": false,
          "internalType": "uint256",
          "name": "caseNumber",
          "type": "uint256"
        },
        {
          "indexed": false,
          "internalType": "string",
          "name": "title",
          "type": "string"
        }
      ],
      "name": "caseApprovedE",
      "type": "event"
    },
    {
      "anonymous": false,
      "inputs": [
        {
          "indexed": false,
          "internalType": "uint256[]",
          "name": "casesWaitingForApproval",
          "type": "uint256[]"
        }
      ],
      "name": "casesWaitingForApprovalE",
      "type": "event"
    },
    {
      "anonymous": false,
      "inputs": [
        {
          "indexed": false,
          "internalType": "bool",
          "name": "confirmation",
          "type": "bool"
        }
      ],
      "name": "confirmationE",
      "type": "event"
    },
    {
      "anonymous": false,
      "inputs": [
        {
          "indexed": true,
          "internalType": "uint256",
          "name": "caseNumber",
          "type": "uint256"
        },
        {
          "indexed": false,
          "internalType": "string",
          "name": "title",
          "type": "string"
        },
        {
          "indexed": false,
          "internalType": "string",
          "name": "description",
          "type": "string"
        },
        {
          "indexed": false,
          "internalType": "bool",
          "name": "openForVoting",
          "type": "bool"
        },
        {
          "indexed": false,
          "internalType": "uint256",
          "name": "startDate",
          "type": "uint256"
        },
        {
          "indexed": false,
          "internalType": "uint256",
          "name": "endDate",
          "type": "uint256"
        },
        {
          "indexed": false,
          "internalType": "string[]",
          "name": "stringAlt",
          "type": "string[]"
        },
        {
          "indexed": false,
          "internalType": "uint256[]",
          "name": "uintAlt",
          "type": "uint256[]"
        },
        {
          "indexed": false,
          "internalType": "uint256",
          "name": "totalVotes",
          "type": "uint256"
        },
        {
          "indexed": false,
          "internalType": "string",
          "name": "region",
          "type": "string"
        }
      ],
      "name": "getCaseE",
      "type": "event"
    },
    {
      "anonymous": false,
      "inputs": [
        {
          "indexed": false,
          "internalType": "string",
          "name": "region",
          "type": "string"
        },
        {
          "indexed": false,
          "internalType": "string",
          "name": "userType",
          "type": "string"
        }
      ],
      "name": "getUserE",
      "type": "event"
    },
    {
      "anonymous": false,
      "inputs": [
        {
          "indexed": false,
          "internalType": "uint256",
          "name": "usersWithSameRegionAndUserType",
          "type": "uint256"
        }
      ],
      "name": "getUsersE",
      "type": "event"
    },
    {
      "anonymous": false,
      "inputs": [
        {
          "indexed": false,
          "internalType": "string",
          "name": "votedAlternative",
          "type": "string"
        }
      ],
      "name": "myVoteE",
      "type": "event"
    },
    {
      "anonymous": false,
      "inputs": [
        {
          "indexed": false,
          "internalType": "string",
          "name": "title",
          "type": "string"
        },
        {
          "indexed": false,
          "internalType": "uint256",
          "name": "caseNumber",
          "type": "uint256"
        }
      ],
      "name": "signingRequestE",
      "type": "event"
    },
    {
      "anonymous": false,
      "inputs": [
        {
          "indexed": false,
          "internalType": "uint256",
          "name": "toalVotes",
          "type": "uint256"
        }
      ],
      "name": "totalVotesE",
      "type": "event"
    },
    {
      "inputs": [
        {
          "internalType": "uint256",
          "name": "_caseNumber",
          "type": "uint256"
        }
      ],
      "name": "approve",
      "outputs": [],
      "stateMutability": "nonpayable",
      "type": "function"
    },
    {
      "inputs": [
        {
          "internalType": "string",
          "name": "_region",
          "type": "string"
        },
        {
          "internalType": "string",
          "name": "_userType",
          "type": "string"
        }
      ],
      "name": "createUser",
      "outputs": [],
      "stateMutability": "nonpayable",
      "type": "function"
    },
    {
      "inputs": [
        {
          "internalType": "uint256",
          "name": "_caseNumber",
          "type": "uint256"
        }
      ],
      "name": "endVoting",
      "outputs": [],
      "stateMutability": "nonpayable",
      "type": "function"
    },
    {
      "inputs": [
        {
          "internalType": "uint256",
          "name": "_caseNumber",
          "type": "uint256"
        },
        {
          "internalType": "string",
          "name": "_alternative",
          "type": "string"
        }
      ],
      "name": "addAlternatives",
      "outputs": [],
      "stateMutability": "nonpayable",
      "type": "function"
    },
    {
      "inputs": [
        {
          "internalType": "string",
          "name": "_title",
          "type": "string"
        },
        {
          "internalType": "string",
          "name": "_description",
          "type": "string"
        },
        {
          "internalType": "uint256",
          "name": "_startDate",
          "type": "uint256"
        },
        {
          "internalType": "uint256",
          "name": "_endDate",
          "type": "uint256"
        },
        {
          "internalType": "string",
          "name": "_alt1",
          "type": "string"
        },
        {
          "internalType": "string",
          "name": "_alt2",
          "type": "string"
        }
      ],
      "name": "createCase",
      "outputs": [],
      "stateMutability": "nonpayable",
      "type": "function"
    },
    {
      "inputs": [
        {
          "internalType": "uint256",
          "name": "_caseNumber",
          "type": "uint256"
        },
        {
          "internalType": "uint256",
          "name": "_optionVoted",
          "type": "uint256"
        }
      ],
      "name": "vote",
      "outputs": [],
      "stateMutability": "nonpayable",
      "type": "function"
    },
    {
      "inputs": [
        {
          "internalType": "uint256",
          "name": "_caseNumber",
          "type": "uint256"
        }
      ],
      "name": "getMyVote",
      "outputs": [],
      "stateMutability": "nonpayable",
      "type": "function"
    },
    {
      "inputs": [
        {
          "internalType": "uint256",
          "name": "_caseNumber",
          "type": "uint256"
        }
      ],
      "name": "getApprovalsAndLimit",
      "outputs": [],
      "stateMutability": "nonpayable",
      "type": "function"
    }
  ],
  "bytecode": "0x608060405234801561001057600080fd5b50615b4a80620000216000396000f3fe608060405234801561001057600080fd5b50600436106100885760003560e01c8063b759f9541161005b578063b759f954146100fd578063d32d214714610119578063f76b404914610135578063fcf187751461015157610088565b8063270ec4731461008d578063649f89a5146100a957806387b162b5146100c5578063b384abef146100e1575b600080fd5b6100a760048036038101906100a29190613d7b565b61016d565b005b6100c360048036038101906100be9190613e64565b611297565b005b6100df60048036038101906100da9190613d0f565b611660565b005b6100fb60048036038101906100f69190613ee1565b6123ef565b005b61011760048036038101906101129190613e64565b612c1f565b005b610133600480360381019061012e9190613e64565b61305b565b005b61014f600480360381019061014a9190613e64565b6131e1565b005b61016b60048036038101906101669190613e8d565b61331c565b005b6060600960003373ffffffffffffffffffffffffffffffffffffffff1673ffffffffffffffffffffffffffffffffffffffff1681526020019081526020016000206002016040516101bd906152bf565b90815260200160405180910390208054600181600116156101000203166002900480601f01602080910402602001604051908101604052809291908181526020018280546001816001161561010002031660029004801561025f5780601f106102345761010080835404028352916020019161025f565b820191906000526020600020905b81548152906001019060200180831161024257829003601f168201915b505050505090506040518060400160405280600581526020017f41646d696e00000000000000000000000000000000000000000000000000000081525080519060200120818051906020012014806102f957506040518060400160405280600a81526020017f537570657241646d696e00000000000000000000000000000000000000000000815250805190602001208180519060200120145b610338576040517f08c379a000000000000000000000000000000000000000000000000000000000815260040161032f906157ad565b60405180910390fd5b428511801561034657504284115b610385576040517f08c379a000000000000000000000000000000000000000000000000000000000815260040161037c9061578d565b60405180910390fd5b60405180602001604052806000815250805190602001208780519060200120141580156103cf57506040518060200160405280600081525080519060200120868051906020012014155b80156103f857506040518060200160405280600081525080519060200120838051906020012014155b801561042157506040518060200160405280600081525080519060200120828051906020012014155b610460576040517f08c379a0000000000000000000000000000000000000000000000000000000008152600401610457906154ed565b60405180910390fd5b6060600960003373ffffffffffffffffffffffffffffffffffffffff1673ffffffffffffffffffffffffffffffffffffffff1681526020019081526020016000206002016040516104b09061515a565b90815260200160405180910390208054600181600116156101000203166002900480601f0160208091040260200160405190810160405280929190818152602001828054600181600116156101000203166002900480156105525780601f1061052757610100808354040283529160200191610552565b820191906000526020600020905b81548152906001019060200180831161053557829003601f168201915b505050505090506040518060400160405280600581526020017f41646d696e00000000000000000000000000000000000000000000000000000081525080519060200120828051906020012014156106395760006002600483856040516020016105bd929190614fc1565b6040516020818303038152906040526040516105d99190614faa565b908152602001604051809103902080549050816105f257fe5b061415610634576040517f08c379a000000000000000000000000000000000000000000000000000000000815260040161062b9061560d565b60405180910390fd5b6106f3565b6040518060400160405280600a81526020017f537570657241646d696e0000000000000000000000000000000000000000000081525080519060200120828051906020012014156106f25760006002600460405161069690615256565b908152602001604051809103902080549050816106af57fe5b0614156106f1576040517f08c379a00000000000000000000000000000000000000000000000000000000081526004016106e89061574d565b60405180910390fd5b5b5b600160006040516107039061526b565b90815260200160405180910390206000828254019250508190555060008060405161072d9061526b565b9081526020016040518091039020549050886008600083815260200190815260200160002060020160405161076190615199565b90815260200160405180910390209080519060200190610782929190613bfb565b5087600860008381526020019081526020016000206002016040516107a690615217565b908152602001604051809103902090805190602001906107c7929190613bfb565b50600a60056002600a600486886040516020016107e5929190614fc1565b6040516020818303038152906040526040516108019190614faa565b908152602001604051809103902080549050028161081b57fe5b04018161082457fe5b04600860008381526020019081526020016000206000016040516108479061511b565b908152602001604051809103902081905550426008600083815260200190815260200160002060000160405161087c90615184565b9081526020016040518091039020819055506040518060400160405280600581526020017f41646d696e0000000000000000000000000000000000000000000000000000008152508051906020012083805190602001201415610a1c5781600860008381526020019081526020016000206002016040516108fc9061515a565b9081526020016040518091039020908051906020019061091d929190613bfb565b506004826040516020016109319190614fe5565b60405160208183030381529060405260405161094d9190614faa565b9081526020016040518091039020805490506004836040516020016109729190615007565b60405160208183030381529060405260405161098e9190614faa565b9081526020016040518091039020805490506004846040516020016109b39190615029565b6040516020818303038152906040526040516109cf9190614faa565b908152602001604051809103902080549050010160086000838152602001908152602001600020600001604051610a05906152aa565b908152602001604051809103902081905550610b48565b6040518060400160405280600a81526020017f537570657241646d696e000000000000000000000000000000000000000000008152508051906020012083805190602001201415610b4757600160086000838152602001908152602001600020600401604051610a8b90615295565b908152602001604051809103902060006101000a81548160ff0219169083151502179055506004604051610abe906151c3565b9081526020016040518091039020805490506004604051610ade9061522c565b9081526020016040518091039020805490506004604051610afe90615256565b908152602001604051809103902080549050010160086000838152602001908152602001600020600001604051610b34906152aa565b9081526020016040518091039020819055505b5b60086000828152602001908152602001600020600301604051610b6a90615130565b908152602001604051809103902080600181540180825580915050600190039060005260206000200160006040518060400160405280600881526020017f4e6f74566f74656400000000000000000000000000000000000000000000000081525090919091509080519060200190610be3929190613bfb565b5060086000828152602001908152602001600020600101604051610c0690615130565b908152602001604051809103902060086000838152602001908152602001600020600001604051610c36906152aa565b908152602001604051809103902054908060018154018082558091505060019003906000526020600020016000909190919091505560086000828152602001908152602001600020600301604051610c8d90615130565b908152602001604051809103902085908060018154018082558091505060019003906000526020600020016000909190919091509080519060200190610cd4929190613bfb565b5060086000828152602001908152602001600020600301604051610cf790615130565b908152602001604051809103902084908060018154018082558091505060019003906000526020600020016000909190919091509080519060200190610d3e929190613bfb565b5060086000828152602001908152602001600020600101604051610d6190615130565b90815260200160405180910390206000908060018154018082558091505060019003906000526020600020016000909190919091505560086000828152602001908152602001600020600101604051610db990615130565b9081526020016040518091039020600090806001815401808255809150506001900390600052602060002001600090919091909150558660086000838152602001908152602001600020600001604051610e1290615241565b9081526020016040518091039020819055508560086000838152602001908152602001600020600001604051610e4790615145565b908152602001604051809103902081905550600060086000838152602001908152602001600020600401604051610e7d9061516f565b908152602001604051809103902060006101000a81548160ff021916908315150217905550600060086000838152602001908152602001600020600401604051610ec6906151ed565b908152602001604051809103902060006101000a81548160ff021916908315150217905550600060086000838152602001908152602001600020600001604051610f0f906151ae565b9081526020016040518091039020819055506001604051610f2f90615202565b90815260200160405180910390208190806001815401808255809150506001900390600052602060002001600090919091909150558887876000604051602001610f7c949392919061504b565b6040516020818303038152906040528051906020012060086000838152602001908152602001600020600201604051610fb490615199565b908152602001604051809103902060086000848152602001908152602001600020600001604051610fe490615241565b9081526020016040518091039020546008600085815260200190815260200160002060000160405161101590615145565b908152602001604051809103902054600860008681526020019081526020016000206004016040516110469061516f565b908152602001604051809103902060009054906101000a900460ff166008600087815260200190815260200160002060030160405161108490615130565b908152602001604051809103902060008154811061109e57fe5b906000526020600020016040516020016110bc9594939291906150c4565b60405160208183030381529060405280519060200120146110d957fe5b7f0fa90349e70db5de13ccb54f6242579cf335e306530d405143d66bc412f0298f60016040516111099190615359565b60405180910390a17f4f5bb4abbb46a4dedc4a3bdd7dee6e9746a39c4058f19c3e02776c184b34db536008600083815260200190815260200160002060020160405161115490615199565b90815260200160405180910390208260405161117192919061547d565b60405180910390a1807fae55a17b84e20ca452a9dda877143c95a800b49ccb452e368a2348388e62de148a8a600860008681526020019081526020016000206004016040516111bf9061516f565b908152602001604051809103902060009054906101000a900460ff168b8b600860008981526020019081526020016000206003016040516111ff90615130565b9081526020016040518091039020600860008a815260200190815260200160002060010160405161122f90615130565b9081526020016040518091039020600860008b815260200190815260200160002060000160405161125f906152aa565b9081526020016040518091039020548b604051611284999897969594939291906153ab565b60405180910390a2505050505050505050565b6112a0816136f6565b6112df576040517f08c379a00000000000000000000000000000000000000000000000000000000081526004016112d69061554d565b60405180910390fd5b60006040516112ed9061526b565b908152602001604051809103902054811115801561130c575060008114155b61134b576040517f08c379a0000000000000000000000000000000000000000000000000000000008152600401611342906155ed565b60405180910390fd5b6008600082815260200190815260200160002060040160405161136d9061516f565b908152602001604051809103902060009054906101000a900460ff16156114e55742600860008381526020019081526020016000206000016040516113b190615145565b90815260200160405180910390205410611400576040517f08c379a00000000000000000000000000000000000000000000000000000000081526004016113f7906157cd565b60405180910390fd5b6000600860008381526020019081526020016000206004016040516114249061516f565b908152602001604051809103902060006101000a81548160ff0219169083151502179055507f5d6857b84a318d182869f8916db9a602067696f040d47c023c0893fbd85e7cd66008600083815260200190815260200160002060030160405161148c90615130565b9081526020016040518091039020600860008481526020019081526020016000206001016040516114bc90615130565b90815260200160405180910390206040516114d8929190615300565b60405180910390a16115e0565b600060086000838152602001908152602001600020600001604051611509906151ae565b90815260200160405180910390205414611558576040517f08c379a000000000000000000000000000000000000000000000000000000000815260040161154f9061552d565b60405180910390fd5b61156181613ac3565b600160086000838152602001908152602001600020600401604051611585906151ed565b908152602001604051809103902060006101000a81548160ff0219169083151502179055507f6f32fc5f156617894b5184d12c1624668f4ac7f3721592d89503bcb7d11678516040516115d7906156ad565b60405180910390a15b600860008281526020019081526020016000206004016040516116029061516f565b908152602001604051809103902060009054906101000a900460ff161561162557fe5b7f0fa90349e70db5de13ccb54f6242579cf335e306530d405143d66bc412f0298f60016040516116559190615359565b60405180910390a150565b6000600960003373ffffffffffffffffffffffffffffffffffffffff1673ffffffffffffffffffffffffffffffffffffffff1681526020019081526020016000206002016040516116b09061515a565b90815260200160405180910390206040516116cb9190614f93565b604051809103902090506000600960003373ffffffffffffffffffffffffffffffffffffffff1673ffffffffffffffffffffffffffffffffffffffff168152602001908152602001600020600201604051611725906152bf565b90815260200160405180910390206040516117409190614f93565b604051809103902090506060600960003373ffffffffffffffffffffffffffffffffffffffff1673ffffffffffffffffffffffffffffffffffffffff16815260200190815260200160002060020160405161179a9061515a565b90815260200160405180910390208054600181600116156101000203166002900480601f01602080910402602001604051908101604052809291908181526020018280546001816001161561010002031660029004801561183c5780601f106118115761010080835404028352916020019161183c565b820191906000526020600020905b81548152906001019060200180831161181f57829003601f168201915b505050505090506060600960003373ffffffffffffffffffffffffffffffffffffffff1673ffffffffffffffffffffffffffffffffffffffff168152602001908152602001600020600201604051611893906152bf565b90815260200160405180910390208054600181600116156101000203166002900480601f0160208091040260200160405190810160405280929190818152602001828054600181600116156101000203166002900480156119355780601f1061190a57610100808354040283529160200191611935565b820191906000526020600020905b81548152906001019060200180831161191857829003601f168201915b50505050509050858051906020012084141580611959575084805190602001208314155b611998576040517f08c379a000000000000000000000000000000000000000000000000000000000815260040161198f9061564d565b60405180910390fd5b6000602060ff161415611a1b576000600960003373ffffffffffffffffffffffffffffffffffffffff1673ffffffffffffffffffffffffffffffffffffffff1681526020019081526020016000206004016040516119f5906151d8565b908152602001604051809103902060006101000a81548160ff0219169083151502179055505b600960003373ffffffffffffffffffffffffffffffffffffffff1673ffffffffffffffffffffffffffffffffffffffff168152602001908152602001600020600401604051611a69906151d8565b908152602001604051809103902060009054906101000a900460ff16611b03576001600960003373ffffffffffffffffffffffffffffffffffffffff1673ffffffffffffffffffffffffffffffffffffffff168152602001908152602001600020600401604051611ad9906151d8565b908152602001604051809103902060006101000a81548160ff021916908315150217905550611fe7565b60005b60048383604051602001611b1b929190614fc1565b604051602081830303815290604052604051611b379190614faa565b908152602001604051809103902080549050811015611dcf573373ffffffffffffffffffffffffffffffffffffffff1660048484604051602001611b7c929190614fc1565b604051602081830303815290604052604051611b989190614faa565b90815260200160405180910390208281548110611bb157fe5b9060005260206000200160009054906101000a900473ffffffffffffffffffffffffffffffffffffffff1673ffffffffffffffffffffffffffffffffffffffff161415611dc25760048383604051602001611c0d929190614fc1565b604051602081830303815290604052604051611c299190614faa565b9081526020016040518091039020600160048585604051602001611c4e929190614fc1565b604051602081830303815290604052604051611c6a9190614faa565b9081526020016040518091039020805490500381548110611c8757fe5b9060005260206000200160009054906101000a900473ffffffffffffffffffffffffffffffffffffffff1660048484604051602001611cc7929190614fc1565b604051602081830303815290604052604051611ce39190614faa565b90815260200160405180910390208281548110611cfc57fe5b9060005260206000200160006101000a81548173ffffffffffffffffffffffffffffffffffffffff021916908373ffffffffffffffffffffffffffffffffffffffff16021790555060048383604051602001611d59929190614fc1565b604051602081830303815290604052604051611d759190614faa565b9081526020016040518091039020805480611d8c57fe5b6001900381819060005260206000200160006101000a81549073ffffffffffffffffffffffffffffffffffffffff021916905590555b8080600101915050611b06565b5082858051906020012014611fe65760005b600482604051611df19190614faa565b908152602001604051809103902080549050811015611fe4573373ffffffffffffffffffffffffffffffffffffffff16600483604051611e319190614faa565b90815260200160405180910390208281548110611e4a57fe5b9060005260206000200160009054906101000a900473ffffffffffffffffffffffffffffffffffffffff1673ffffffffffffffffffffffffffffffffffffffff161415611fd757600482604051611ea19190614faa565b90815260200160405180910390206001600484604051611ec19190614faa565b9081526020016040518091039020805490500381548110611ede57fe5b9060005260206000200160009054906101000a900473ffffffffffffffffffffffffffffffffffffffff16600483604051611f199190614faa565b90815260200160405180910390208281548110611f3257fe5b9060005260206000200160006101000a81548173ffffffffffffffffffffffffffffffffffffffff021916908373ffffffffffffffffffffffffffffffffffffffff160217905550600482604051611f8a9190614faa565b9081526020016040518091039020805480611fa157fe5b6001900381819060005260206000200160006101000a81549073ffffffffffffffffffffffffffffffffffffffff021916905590555b8080600101915050611de1565b505b5b838680519060200120146120c85785600960003373ffffffffffffffffffffffffffffffffffffffff1673ffffffffffffffffffffffffffffffffffffffff1681526020019081526020016000206002016040516120449061515a565b90815260200160405180910390209080519060200190612065929190613bfb565b5042600960003373ffffffffffffffffffffffffffffffffffffffff1673ffffffffffffffffffffffffffffffffffffffff1681526020019081526020016000206000016040516120b590615280565b9081526020016040518091039020819055505b828580519060200120146121c75784600960003373ffffffffffffffffffffffffffffffffffffffff1673ffffffffffffffffffffffffffffffffffffffff168152602001908152602001600020600201604051612125906152bf565b90815260200160405180910390209080519060200190612146929190613bfb565b506004856040516121579190614faa565b9081526020016040518091039020339080600181540180825580915050600190039060005260206000200160009091909190916101000a81548173ffffffffffffffffffffffffffffffffffffffff021916908373ffffffffffffffffffffffffffffffffffffffff1602179055505b600486866040516020016121dc929190614fc1565b6040516020818303038152906040526040516121f89190614faa565b9081526020016040518091039020339080600181540180825580915050600190039060005260206000200160009091909190916101000a81548173ffffffffffffffffffffffffffffffffffffffff021916908373ffffffffffffffffffffffffffffffffffffffff160217905550858560405160200161227a929190614fc1565b60405160208183030381529060405280519060200120600960003373ffffffffffffffffffffffffffffffffffffffff1673ffffffffffffffffffffffffffffffffffffffff1681526020019081526020016000206002016040516122de9061515a565b9081526020016040518091039020600960003373ffffffffffffffffffffffffffffffffffffffff1673ffffffffffffffffffffffffffffffffffffffff16815260200190815260200160002060020160405161233a906152bf565b90815260200160405180910390206040516020016123599291906150a0565b604051602081830303815290604052805190602001201461237657fe5b7f0fa90349e70db5de13ccb54f6242579cf335e306530d405143d66bc412f0298f60016040516123a69190615359565b60405180910390a17f6724e5f8e4729e3484d67128d58ef72dc9d2f2d161c15bb46c54841d52d42dd286866040516123df929190615374565b60405180910390a1505050505050565b600860008381526020019081526020016000206004016040516124119061516f565b908152602001604051809103902060009054906101000a900460ff1661246c576040517f08c379a00000000000000000000000000000000000000000000000000000000081526004016124639061558d565b60405180910390fd5b6008600083815260200190815260200160002060010160405161248e90615130565b9081526020016040518091039020805490508111156124e2576040517f08c379a00000000000000000000000000000000000000000000000000000000081526004016124d9906156cd565b60405180910390fd5b426008600084815260200190815260200160002060000160405161250590615145565b9081526020016040518091039020541180156125505750426008600084815260200190815260200160002060000160405161253f90615241565b908152602001604051809103902054105b61258f576040517f08c379a0000000000000000000000000000000000000000000000000000000008152600401612586906155cd565b60405180910390fd5b600860008381526020019081526020016000206002016040516125b19061515a565b90815260200160405180910390206040516125cc9190614f93565b6040518091039020600960003373ffffffffffffffffffffffffffffffffffffffff1673ffffffffffffffffffffffffffffffffffffffff1681526020019081526020016000206002016040516126229061515a565b908152602001604051809103902060405161263d9190614f93565b6040518091039020148061268b57506008600083815260200190815260200160002060040160405161266e90615295565b908152602001604051809103902060009054906101000a900460ff165b6126ca576040517f08c379a00000000000000000000000000000000000000000000000000000000081526004016126c19061556d565b60405180910390fd5b600860008381526020019081526020016000206000016040516126ec90615184565b908152602001604051809103902054600960003373ffffffffffffffffffffffffffffffffffffffff1673ffffffffffffffffffffffffffffffffffffffff16815260200190815260200160002060000160405161274990615280565b9081526020016040518091039020541115612799576040517f08c379a00000000000000000000000000000000000000000000000000000000081526004016127909061566d565b60405180910390fd5b60086000838152602001908152602001600020600401336040516020016127c09190614f78565b6040516020818303038152906040526040516127dc9190614faa565b908152602001604051809103902060009054906101000a900460ff16156128a75760016008600084815260200190815260200160002060010160405161282190615130565b908152602001604051809103902060086000858152602001908152602001600020600001336040516020016128569190614f78565b6040516020818303038152906040526040516128729190614faa565b9081526020016040518091039020548154811061288b57fe5b9060005260206000200160008282540392505081905550612967565b600160086000848152602001908152602001600020600401336040516020016128d09190614f78565b6040516020818303038152906040526040516128ec9190614faa565b908152602001604051809103902060006101000a81548160ff02191690831515021790555060016008600084815260200190815260200160002060010160405161293590615130565b908152602001604051809103902060008154811061294f57fe5b90600052602060002001600082825403925050819055505b60016008600084815260200190815260200160002060010160405161298b90615130565b908152602001604051809103902082815481106129a457fe5b9060005260206000200160008282540192505081905550600060086000848152602001908152602001600020600001336040516020016129e49190614f78565b604051602081830303815290604052604051612a009190614faa565b9081526020016040518091039020549050816008600085815260200190815260200160002060000133604051602001612a399190614f78565b604051602081830303815290604052604051612a559190614faa565b908152602001604051809103902081905550808214158015612b765750816001604051602001612a869291906152d4565b604051602081830303815290604052805190602001206008600085815260200190815260200160002060000133604051602001612ac39190614f78565b604051602081830303815290604052604051612adf9190614faa565b9081526020016040518091039020546008600086815260200190815260200160002060040133604051602001612b159190614f78565b604051602081830303815290604052604051612b319190614faa565b908152602001604051809103902060009054906101000a900460ff16604051602001612b5e9291906152d4565b60405160208183030381529060405280519060200120145b612b7c57fe5b7f0fa90349e70db5de13ccb54f6242579cf335e306530d405143d66bc412f0298f6001604051612bac9190615359565b60405180910390a17f1f7e4522b9c0f7073c1a4213c66ee2f9ea8bc0c8a07bbf7d57bff96272bef16060086000858152602001908152602001600020600101604051612bf790615130565b9081526020016040518091039020604051612c129190615337565b60405180910390a1505050565b612c28816136f6565b612c67576040517f08c379a0000000000000000000000000000000000000000000000000000000008152600401612c5e9061562d565b60405180910390fd5b6000604051612c759061526b565b9081526020016040518091039020548111158015612c94575060008114155b612cd3576040517f08c379a0000000000000000000000000000000000000000000000000000000008152600401612cca9061576d565b60405180910390fd5b6008600082815260200190815260200160002060040133604051602001612cfa9190614f78565b604051602081830303815290604052604051612d169190614faa565b908152602001604051809103902060009054906101000a900460ff1615612d72576040517f08c379a0000000000000000000000000000000000000000000000000000000008152600401612d69906156ed565b60405180910390fd5b60086000828152602001908152602001600020600401604051612d949061516f565b908152602001604051809103902060009054906101000a900460ff1615612df0576040517f08c379a0000000000000000000000000000000000000000000000000000000008152600401612de79061550d565b60405180910390fd5b60016008600083815260200190815260200160002060040133604051602001612e199190614f78565b604051602081830303815290604052604051612e359190614faa565b908152602001604051809103902060006101000a81548160ff021916908315150217905550600160086000838152602001908152602001600020600001604051612e7e906151ae565b90815260200160405180910390206000828254019250508190555060086000828152602001908152602001600020600001604051612ebb9061511b565b90815260200160405180910390205460086000838152602001908152602001600020600001604051612eec906151ae565b90815260200160405180910390205410612fbb57600160086000838152602001908152602001600020600401604051612f249061516f565b908152602001604051809103902060006101000a81548160ff021916908315150217905550612f5281613ac3565b7f2f99e89675af6c394ff122fdcb4404ec5104d9994f419cad7e9f2826d56d3e8e8160086000848152602001908152602001600020600201604051612f9690615199565b9081526020016040518091039020604051612fb292919061580d565b60405180910390a15b6008600082815260200190815260200160002060040133604051602001612fe29190614f78565b604051602081830303815290604052604051612ffe9190614faa565b908152602001604051809103902060009054906101000a900460ff1661302057fe5b7f0fa90349e70db5de13ccb54f6242579cf335e306530d405143d66bc412f0298f60016040516130509190615359565b60405180910390a150565b60006040516130699061526b565b9081526020016040518091039020548111158015613088575060008114155b6130c7576040517f08c379a00000000000000000000000000000000000000000000000000000000081526004016130be9061572d565b60405180910390fd5b600860008281526020019081526020016000206004016040516130e99061516f565b908152602001604051809103902060009054906101000a900460ff1615613145576040517f08c379a000000000000000000000000000000000000000000000000000000000815260040161313c906155ad565b60405180910390fd5b7f04ba5e9e673c0814c597bd1c09f434aa8b4d1ce188ad58cf1358fed816d379fa60086000838152602001908152602001600020600001604051613188906151ae565b908152602001604051809103902054600860008481526020019081526020016000206000016040516131b99061511b565b9081526020016040518091039020546040516131d692919061583d565b60405180910390a150565b60006040516131ef9061526b565b908152602001604051809103902054811115801561320e575060008114155b61324d576040517f08c379a00000000000000000000000000000000000000000000000000000000081526004016132449061570d565b60405180910390fd5b7f6f32fc5f156617894b5184d12c1624668f4ac7f3721592d89503bcb7d11678516008600083815260200190815260200160002060030160405161329090615130565b908152602001604051809103902060086000848152602001908152602001600020600001336040516020016132c59190614f78565b6040516020818303038152906040526040516132e19190614faa565b908152602001604051809103902054815481106132fa57fe5b90600052602060002001604051613311919061545b565b60405180910390a150565b613325826136f6565b613364576040517f08c379a000000000000000000000000000000000000000000000000000000000815260040161335b906157ed565b60405180910390fd5b600060086000848152602001908152602001600020600001604051613388906151ae565b908152602001604051809103902054146133d7576040517f08c379a00000000000000000000000000000000000000000000000000000000081526004016133ce9061568d565b60405180910390fd5b600860008381526020019081526020016000206004016040516133f99061516f565b908152602001604051809103902060009054906101000a900460ff1615801561345d57506008600083815260200190815260200160002060040160405161343f906151ed565b908152602001604051809103902060009054906101000a900460ff16155b8015613485575060006040516134729061526b565b9081526020016040518091039020548211155b8015613492575060008214155b80156134bb57506040518060200160405280600081525080519060200120818051906020012014155b6134fa576040517f08c379a00000000000000000000000000000000000000000000000000000000081526004016134f1906154ad565b60405180910390fd5b6008600083815260200190815260200160002060030160405161351c90615130565b908152602001604051809103902081908060018154018082558091505060019003906000526020600020016000909190919091509080519060200190613563929190613bfb565b506008600083815260200190815260200160002060010160405161358690615130565b9081526020016040518091039020600090806001815401808255809150506001900390600052602060002001600090919091909150558080519060200120600860008481526020019081526020016000206003016040516135e690615130565b908152602001604051809103902060016008600086815260200190815260200160002060030160405161361890615130565b908152602001604051809103902080549050038154811061363557fe5b9060005260206000200160405161364c9190614f93565b60405180910390201461365b57fe5b7f5d6857b84a318d182869f8916db9a602067696f040d47c023c0893fbd85e7cd66008600084815260200190815260200160002060030160405161369e90615130565b9081526020016040518091039020600860008581526020019081526020016000206001016040516136ce90615130565b90815260200160405180910390206040516136ea929190615300565b60405180910390a15050565b60006040518060400160405280600581526020017f41646d696e00000000000000000000000000000000000000000000000000000081525080519060200120600960003373ffffffffffffffffffffffffffffffffffffffff1673ffffffffffffffffffffffffffffffffffffffff168152602001908152602001600020600201604051613783906152bf565b908152602001604051809103902060405161379e9190614f93565b6040518091039020148061385d57506040518060400160405280600a81526020017f537570657241646d696e0000000000000000000000000000000000000000000081525080519060200120600960003373ffffffffffffffffffffffffffffffffffffffff1673ffffffffffffffffffffffffffffffffffffffff168152602001908152602001600020600201604051613838906152bf565b90815260200160405180910390206040516138539190614f93565b6040518091039020145b61389c576040517f08c379a0000000000000000000000000000000000000000000000000000000008152600401613893906154cd565b60405180910390fd5b60005b6004600860008581526020019081526020016000206002016040516138c39061515a565b9081526020016040518091039020600960003373ffffffffffffffffffffffffffffffffffffffff1673ffffffffffffffffffffffffffffffffffffffff16815260200190815260200160002060020160405161391f906152bf565b908152602001604051809103902060405160200161393e9291906150a0565b60405160208183030381529060405260405161395a9190614faa565b908152602001604051809103902080549050811015613abc573373ffffffffffffffffffffffffffffffffffffffff166004600860008681526020019081526020016000206002016040516139ae9061515a565b9081526020016040518091039020600960003373ffffffffffffffffffffffffffffffffffffffff1673ffffffffffffffffffffffffffffffffffffffff168152602001908152602001600020600201604051613a0a906152bf565b9081526020016040518091039020604051602001613a299291906150a0565b604051602081830303815290604052604051613a459190614faa565b90815260200160405180910390208281548110613a5e57fe5b9060005260206000200160009054906101000a900473ffffffffffffffffffffffffffffffffffffffff1673ffffffffffffffffffffffffffffffffffffffff161415613aaf576001915050613abe565b808060010191505061389f565b505b919050565b60005b6001604051613ad490615202565b908152602001604051809103902080549050811015613bf757816001604051613afc90615202565b90815260200160405180910390208281548110613b1557fe5b90600052602060002001541415613bea576001604051613b3490615202565b9081526020016040518091039020600180604051613b5190615202565b9081526020016040518091039020805490500381548110613b6e57fe5b90600052602060002001546001604051613b8790615202565b90815260200160405180910390208281548110613ba057fe5b90600052602060002001819055506001604051613bbc90615202565b9081526020016040518091039020805480613bd357fe5b600190038181906000526020600020016000905590555b8080600101915050613ac6565b5050565b828054600181600116156101000203166002900490600052602060002090601f016020900481019282613c315760008555613c78565b82601f10613c4a57805160ff1916838001178555613c78565b82800160010185558215613c78579182015b82811115613c77578251825591602001919060010190613c5c565b5b509050613c859190613c89565b5090565b5b80821115613ca2576000816000905550600101613c8a565b5090565b600082601f830112613cb757600080fd5b8135613cca613cc582615897565b615866565b91508082526020830160208301858383011115613ce657600080fd5b613cf1838284615a02565b50505092915050565b600081359050613d0981615afd565b92915050565b60008060408385031215613d2257600080fd5b600083013567ffffffffffffffff811115613d3c57600080fd5b613d4885828601613ca6565b925050602083013567ffffffffffffffff811115613d6557600080fd5b613d7185828601613ca6565b9150509250929050565b60008060008060008060c08789031215613d9457600080fd5b600087013567ffffffffffffffff811115613dae57600080fd5b613dba89828a01613ca6565b965050602087013567ffffffffffffffff811115613dd757600080fd5b613de389828a01613ca6565b9550506040613df489828a01613cfa565b9450506060613e0589828a01613cfa565b935050608087013567ffffffffffffffff811115613e2257600080fd5b613e2e89828a01613ca6565b92505060a087013567ffffffffffffffff811115613e4b57600080fd5b613e5789828a01613ca6565b9150509295509295509295565b600060208284031215613e7657600080fd5b6000613e8484828501613cfa565b91505092915050565b60008060408385031215613ea057600080fd5b6000613eae85828601613cfa565b925050602083013567ffffffffffffffff811115613ecb57600080fd5b613ed785828601613ca6565b9150509250929050565b60008060408385031215613ef457600080fd5b6000613f0285828601613cfa565b9250506020613f1385828601613cfa565b9150509250929050565b6000613f298383614157565b905092915050565b6000613f3d8383614f43565b60208301905092915050565b613f5a613f55826159ba565b615a5e565b82525050565b6000613f6b8261591b565b613f758185615956565b935083602082028501613f87856158c7565b8060005b85811015613fc257848403895281613fa38582613f1d565b9450613fae8361593c565b925060208a01995050600181019050613f8b565b50829750879550505050505092915050565b6000613fdf82615926565b613fe98185615967565b9350613ff4836158dc565b8060005b8381101561402c5761400982615ab2565b6140138882613f31565b975061401e83615949565b925050600181019050613ff8565b5085935050505092915050565b614042816159cc565b82525050565b614059614054826159cc565b615a70565b82525050565b60008154600181166000811461407c57600181146140a1576140e5565b607f600283041661408d8187615978565b955060ff19831686528086019350506140e5565b600282046140af8187615978565b95506140ba856158f1565b60005b828110156140dc578154818901526001820191506020810190506140bd565b82880195505050505b505092915050565b60006140f882615931565b6141028185615994565b9350614112818560208601615a11565b61411b81615ac5565b840191505092915050565b600061413182615931565b61413b81856159a5565b935061414b818560208601615a11565b80840191505092915050565b600081546001811660008114614174576001811461419a576141de565b607f60028304166141858187615983565b955060ff1983168652602086019350506141de565b600282046141a88187615983565b95506141b385615906565b60005b828110156141d5578154818901526001820191506020810190506141b6565b80880195505050505b505092915050565b60008154600181166000811461420357600181146142295761426d565b607f60028304166142148187615994565b955060ff19831686526020860193505061426d565b600282046142378187615994565b955061424285615906565b60005b8281101561426457815481890152600182019150602081019050614245565b80880195505050505b505092915050565b60008154600181166000811461429257600181146142b7576142fb565b607f60028304166142a381876159a5565b955060ff19831686528086019350506142fb565b600282046142c581876159a5565b95506142d085615906565b60005b828110156142f2578154818901526001820191506020810190506142d3565b82880195505050505b505092915050565b6000614310600f836159a5565b91507f417070726f76616c734e656564656400000000000000000000000000000000006000830152600f82019050919050565b60006143506003836159a5565b91507f416c7400000000000000000000000000000000000000000000000000000000006000830152600382019050919050565b60006143906007836159a5565b91507f456e6444617465000000000000000000000000000000000000000000000000006000830152600782019050919050565b60006143d0600583615994565b91507f45525232300000000000000000000000000000000000000000000000000000006000830152602082019050919050565b60006144106006836159a5565b91507f526567696f6e00000000000000000000000000000000000000000000000000006000830152600682019050919050565b6000614450600d836159a5565b91507f4f70656e466f72566f74696e67000000000000000000000000000000000000006000830152600d82019050919050565b6000614490600b836159a5565b91507f43617365437265617465640000000000000000000000000000000000000000006000830152600b82019050919050565b60006144d0600583615994565b91507f45525231360000000000000000000000000000000000000000000000000000006000830152602082019050919050565b6000614510600583615994565b91507f45525232390000000000000000000000000000000000000000000000000000006000830152602082019050919050565b6000614550600583615994565b91507f45525231390000000000000000000000000000000000000000000000000000006000830152602082019050919050565b6000614590600483615994565b91507f45525236000000000000000000000000000000000000000000000000000000006000830152602082019050919050565b60006145d06008836159a5565b91507f4e6f74566f7465640000000000000000000000000000000000000000000000006000830152600882019050919050565b6000614610600583615994565b91507f45525232320000000000000000000000000000000000000000000000000000006000830152602082019050919050565b60006146506005836159a5565b91507f5469746c650000000000000000000000000000000000000000000000000000006000830152600582019050919050565b6000614690600583615994565b91507f45525233320000000000000000000000000000000000000000000000000000006000830152602082019050919050565b60006146d0600483615994565b91507f45525237000000000000000000000000000000000000000000000000000000006000830152602082019050919050565b6000614710600583615994565b91507f45525233300000000000000000000000000000000000000000000000000000006000830152602082019050919050565b6000614750600483615994565b91507f45525239000000000000000000000000000000000000000000000000000000006000830152602082019050919050565b6000614790600583615994565b91507f45525233360000000000000000000000000000000000000000000000000000006000830152602082019050919050565b60006147d0600f836159a5565b91507f417070726f76616c735369676e656400000000000000000000000000000000006000830152600f82019050919050565b6000614810600583615994565b91507f45525233310000000000000000000000000000000000000000000000000000006000830152602082019050919050565b6000614850600583615994565b91507f45525232310000000000000000000000000000000000000000000000000000006000830152602082019050919050565b6000614890600483615994565b91507f45525232000000000000000000000000000000000000000000000000000000006000830152602082019050919050565b60006148d06008836159a5565b91507f5374616e646172640000000000000000000000000000000000000000000000006000830152600882019050919050565b6000614910600583615994565b91507f45525233330000000000000000000000000000000000000000000000000000006000830152602082019050919050565b6000614950600583615994565b91507f45525232380000000000000000000000000000000000000000000000000000006000830152602082019050919050565b6000614990601083615994565b91507f43617365204465616374697661746564000000000000000000000000000000006000830152602082019050919050565b60006149d0600483615994565b91507f45525238000000000000000000000000000000000000000000000000000000006000830152602082019050919050565b6000614a106004836159a5565b91507f496e6974000000000000000000000000000000000000000000000000000000006000830152600482019050919050565b6000614a50600f836159a5565b91507f43617365446561637469766174656400000000000000000000000000000000006000830152600f82019050919050565b6000614a906012836159a5565b91507f57616974696e67466f72417070726f76616c00000000000000000000000000006000830152601282019050919050565b6000614ad0600b836159a5565b91507f4465736372697074696f6e0000000000000000000000000000000000000000006000830152600b82019050919050565b6000614b10600583615994565b91507f45525231380000000000000000000000000000000000000000000000000000006000830152602082019050919050565b6000614b506005836159a5565b91507f41646d696e0000000000000000000000000000000000000000000000000000006000830152600582019050919050565b6000614b906009836159a5565b91507f53746172744461746500000000000000000000000000000000000000000000006000830152600982019050919050565b6000614bd0600583615994565b91507f45525231330000000000000000000000000000000000000000000000000000006000830152602082019050919050565b6000614c10600583615994565b91507f45525231350000000000000000000000000000000000000000000000000000006000830152602082019050919050565b6000614c50600583615994565b91507f45525233340000000000000000000000000000000000000000000000000000006000830152602082019050919050565b6000614c90600583615994565b91507f45525231370000000000000000000000000000000000000000000000000000006000830152602082019050919050565b6000614cd0600a836159a5565b91507f537570657241646d696e000000000000000000000000000000000000000000006000830152600a82019050919050565b6000614d10600a836159a5565b91507f436173654e756d626572000000000000000000000000000000000000000000006000830152600a82019050919050565b6000614d50600583615994565b91507f45525231320000000000000000000000000000000000000000000000000000006000830152602082019050919050565b6000614d906005836159a5565b91507f4d6f7665640000000000000000000000000000000000000000000000000000006000830152600582019050919050565b6000614dd06008836159a5565b91507f4e6174696f6e616c0000000000000000000000000000000000000000000000006000830152600882019050919050565b6000614e10600a836159a5565b91507f546f74616c566f746573000000000000000000000000000000000000000000006000830152600a82019050919050565b6000614e506008836159a5565b91507f55736572547970650000000000000000000000000000000000000000000000006000830152600882019050919050565b6000614e90600483615994565b91507f45525234000000000000000000000000000000000000000000000000000000006000830152602082019050919050565b6000614ed0600483615994565b91507f45525233000000000000000000000000000000000000000000000000000000006000830152602082019050919050565b6000614f10600583615994565b91507f45525232330000000000000000000000000000000000000000000000000000006000830152602082019050919050565b614f4c816159f8565b82525050565b614f5b816159f8565b82525050565b614f72614f6d826159f8565b615a94565b82525050565b6000614f848284613f49565b60148201915081905092915050565b6000614f9f828461405f565b915081905092915050565b6000614fb68284614126565b915081905092915050565b6000614fcd8285614126565b9150614fd98284614126565b91508190509392505050565b6000614ff18284614126565b9150614ffc826148c3565b915081905092915050565b60006150138284614126565b915061501e82614b43565b915081905092915050565b60006150358284614126565b915061504082614cc3565b915081905092915050565b60006150578287614126565b91506150638286614f61565b6020820191506150738285614f61565b6020820191506150838284614048565b600182019150615092826145c3565b915081905095945050505050565b60006150ac8285614275565b91506150b88284614275565b91508190509392505050565b60006150d08288614275565b91506150dc8287614f61565b6020820191506150ec8286614f61565b6020820191506150fc8285614048565b60018201915061510c8284614275565b91508190509695505050505050565b600061512682614303565b9150819050919050565b600061513b82614343565b9150819050919050565b600061515082614383565b9150819050919050565b600061516582614403565b9150819050919050565b600061517a82614443565b9150819050919050565b600061518f82614483565b9150819050919050565b60006151a482614643565b9150819050919050565b60006151b9826147c3565b9150819050919050565b60006151ce826148c3565b9150819050919050565b60006151e382614a03565b9150819050919050565b60006151f882614a43565b9150819050919050565b600061520d82614a83565b9150819050919050565b600061522282614ac3565b9150819050919050565b600061523782614b43565b9150819050919050565b600061524c82614b83565b9150819050919050565b600061526182614cc3565b9150819050919050565b600061527682614d03565b9150819050919050565b600061528b82614d83565b9150819050919050565b60006152a082614dc3565b9150819050919050565b60006152b582614e03565b9150819050919050565b60006152ca82614e43565b9150819050919050565b60006152e08285614f61565b6020820191506152f08284614048565b6001820191508190509392505050565b6000604082019050818103600083015261531a8185613f60565b9050818103602083015261532e8184613fd4565b90509392505050565b600060208201905081810360008301526153518184613fd4565b905092915050565b600060208201905061536e6000830184614039565b92915050565b6000604082019050818103600083015261538e81856140ed565b905081810360208301526153a281846140ed565b90509392505050565b60006101208201905081810360008301526153c6818c6140ed565b905081810360208301526153da818b6140ed565b90506153e9604083018a614039565b6153f66060830189614f52565b6154036080830188614f52565b81810360a08301526154158187613f60565b905081810360c08301526154298186613fd4565b905061543860e0830185614f52565b81810361010083015261544b81846140ed565b90509a9950505050505050505050565b6000602082019050818103600083015261547581846141e6565b905092915050565b6000604082019050818103600083015261549781856141e6565b90506154a66020830184614f52565b9392505050565b600060208201905081810360008301526154c6816143c3565b9050919050565b600060208201905081810360008301526154e6816144c3565b9050919050565b6000602082019050818103600083015261550681614503565b9050919050565b6000602082019050818103600083015261552681614543565b9050919050565b6000602082019050818103600083015261554681614583565b9050919050565b6000602082019050818103600083015261556681614603565b9050919050565b6000602082019050818103600083015261558681614683565b9050919050565b600060208201905081810360008301526155a6816146c3565b9050919050565b600060208201905081810360008301526155c681614703565b9050919050565b600060208201905081810360008301526155e681614743565b9050919050565b6000602082019050818103600083015261560681614783565b9050919050565b6000602082019050818103600083015261562681614803565b9050919050565b6000602082019050818103600083015261564681614843565b9050919050565b6000602082019050818103600083015261566681614883565b9050919050565b6000602082019050818103600083015261568681614903565b9050919050565b600060208201905081810360008301526156a681614943565b9050919050565b600060208201905081810360008301526156c681614983565b9050919050565b600060208201905081810360008301526156e6816149c3565b9050919050565b6000602082019050818103600083015261570681614b03565b9050919050565b6000602082019050818103600083015261572681614bc3565b9050919050565b6000602082019050818103600083015261574681614c03565b9050919050565b6000602082019050818103600083015261576681614c43565b9050919050565b6000602082019050818103600083015261578681614c83565b9050919050565b600060208201905081810360008301526157a681614d43565b9050919050565b600060208201905081810360008301526157c681614e83565b9050919050565b600060208201905081810360008301526157e681614ec3565b9050919050565b6000602082019050818103600083015261580681614f03565b9050919050565b60006040820190506158226000830185614f52565b818103602083015261583481846141e6565b90509392505050565b60006040820190506158526000830185614f52565b61585f6020830184614f52565b9392505050565b6000604051905081810181811067ffffffffffffffff8211171561588d5761588c615ab0565b5b8060405250919050565b600067ffffffffffffffff8211156158b2576158b1615ab0565b5b601f19601f8301169050602081019050919050565b60008190508160005260206000209050919050565b60008190508160005260206000209050919050565b60008190508160005260206000209050919050565b60008190508160005260206000209050919050565b600081549050919050565b600081549050919050565b600081519050919050565b6000600182019050919050565b6000600182019050919050565b600082825260208201905092915050565b600082825260208201905092915050565b600081905092915050565b600082825260208201905092915050565b600082825260208201905092915050565b600081905092915050565b6000819050919050565b60006159c5826159d8565b9050919050565b60008115159050919050565b600073ffffffffffffffffffffffffffffffffffffffff82169050919050565b6000819050919050565b82818337600083830152505050565b60005b83811015615a2f578082015181840152602081019050615a14565b83811115615a3e576000848401525b50505050565b6000615a57615a5283615af0565b6159b0565b9050919050565b6000615a6982615a82565b9050919050565b6000615a7b82615a9e565b9050919050565b6000615a8d82615ae3565b9050919050565b6000819050919050565b6000615aa982615ad6565b9050919050565bfe5b6000615abe8254615a44565b9050919050565b6000601f19601f8301169050919050565b60008160f81b9050919050565b60008160601b9050919050565b60008160001c9050919050565b615b06816159f8565b8114615b1157600080fd5b5056fea26469706673582212206091fefec30987bee39dd3d542bf57861489ab9c68a30ee38210061bb77c393564736f6c63430007050033",
  "immutableReferences": {},
  "source": "// SPDX-License-Identifier: UNLICENSED\npragma solidity 0.7.5;\npragma abicoder v2;\n\nimport \"./MultiSigCase.sol\";\n\ncontract Case is MultiSigCase {\n\n    event addApprovalsE(string[] stringAlt, uint256[] uintAlt);\n    event approvalsE(uint256 numberOfApprovals, uint256 limit);\n    event casesWaitingForApprovalE(uint[] casesWaitingForApproval);\n    event getCaseE(uint256 indexed caseNumber, string title, string description, bool openForVoting, uint256 startDate, uint256 endDate, string[] stringAlt, uint256[] uintAlt, uint256 totalVotes, string region);\n    event getUsersE(uint256 usersWithSameRegionAndUserType); \n    event getUserE(string region, string userType); \n    event myVoteE(string votedAlternative);\n    event signingRequestE(string title,uint256 caseNumber);\n    event totalVotesE(uint256 toalVotes);\n    \n    /*  \"receipt.events.userCreatedE.returnValues.confirmationE\" in main.js\n     *   used for userCreatedE(x x, string confirmation)\n     */\n\n    function createUser(string memory _region, string memory _userType) public {\n        bytes32 _regionStorageKecc = keccak256(bytes(_users[msg.sender]._stringUser[\"Region\"]));\n        bytes32 _userTypeStorageKecc = keccak256(bytes(_users[msg.sender]._stringUser[\"UserType\"]));\n        string memory oldRegion = _users[msg.sender]._stringUser[\"Region\"];\n        string memory oldUserType = _users[msg.sender]._stringUser[\"UserType\"];\n        //checks if there are changes\n        require(_regionStorageKecc != keccak256(bytes(_region)) || _userTypeStorageKecc != keccak256(bytes(_userType)), \"ERR2\");\n\n        if(_regionStorageKecc.length == 0){\n            _users[msg.sender]._boolUser[\"Init\"] = false;\n        }\n\n        if(!_users[msg.sender]._boolUser[\"Init\"]){\n            _users[msg.sender]._boolUser[\"Init\"] = true;\n        } else {\n            for(uint256 i = 0; i < _addressArrayStorage[ string(abi.encodePacked(oldRegion,oldUserType)) ].length; i++){\n                if(_addressArrayStorage[ string(abi.encodePacked(oldRegion,oldUserType)) ][i] == msg.sender){\n                    _addressArrayStorage[ string(abi.encodePacked(oldRegion,oldUserType)) ][i] = \n                    _addressArrayStorage[ string(abi.encodePacked(oldRegion,oldUserType)) ][ _addressArrayStorage[ string(abi.encodePacked(oldRegion,oldUserType)) ].length - 1];\n                    _addressArrayStorage[ string(abi.encodePacked(oldRegion,oldUserType)) ].pop();\n                }\n            }\n            if(keccak256((bytes(_userType))) != _userTypeStorageKecc){\n                for(uint256 i = 0; i < _addressArrayStorage[oldUserType].length; i++){\n                    if(_addressArrayStorage[oldUserType][i] == msg.sender){\n                        _addressArrayStorage[oldUserType][i] = _addressArrayStorage[oldUserType][ _addressArrayStorage[oldUserType].length - 1];\n                        _addressArrayStorage[oldUserType].pop();\n                    }\n                }\n            }\n        }\n\n        // checks where there are changes, then applies to storage\n        if(keccak256((bytes(_region))) != _regionStorageKecc){\n            _users[msg.sender]._stringUser[\"Region\"] = _region;\n            _users[msg.sender]._uintUser[\"Moved\"] = block.timestamp;\n        }\n        if(keccak256((bytes(_userType))) != _userTypeStorageKecc){\n            _users[msg.sender]._stringUser[\"UserType\"] = _userType;\n            _addressArrayStorage[_userType].push(msg.sender); // adds msg.sender to addressArrayStorage[ _userType ]\n        }\n        _addressArrayStorage[ string(abi.encodePacked(_region,_userType)) ].push(msg.sender); // adds msg.sender to addressArrayStorage[ _region+_userType ]\n        \n        // uint256 length = _addressArrayStorage[ string(abi.encodePacked(_region,_userType)) ].length;     // check length of the array\n        assert(bytes32(keccak256(abi.encodePacked(\n                    _users[msg.sender]._stringUser[\"Region\"],\n                    _users[msg.sender]._stringUser[\"UserType\"]\n                     // _addressArrayStorage[ string(abi.encodePacked(_region,_userType)) ].length\n                )))\n            ==\n            bytes32(keccak256(abi.encodePacked(\n                    _region,\n                    _userType\n                    // length += 1     \n                )))\n        );\n        emit confirmationE(true);\n        emit getUserE(_region, _userType);\n    }\n    \n    function endVoting(uint256 _caseNumber)public {\n        require(decitionmaker(_caseNumber), \"ERR22\");\n        require(_caseNumber <= _uintStorage[\"CaseNumber\"] && _caseNumber != 0, \"ERR36\");\n        if(_cases[_caseNumber]._boolCase[\"OpenForVoting\"]){\n            // end voting when the deadline has passed\n            require(_cases[_caseNumber]._uintCase[\"EndDate\"] < block.timestamp, \"ERR3\");\n            _cases[_caseNumber]._boolCase[\"OpenForVoting\"] = false; \n            emit addApprovalsE(_cases[_caseNumber]._stringArrayCase[\"Alt\"], _cases[_caseNumber]._uintArrayCase[\"Alt\"]);\n        } else {\n            // delete case before it has been approved by anyone\n            require(_cases[_caseNumber]._uintCase[\"ApprovalsSigned\"] == 0, \"ERR6\");\n            clearFromWaiting(_caseNumber);\n            _cases[_caseNumber]._boolCase[\"CaseDeactivated\"] = true;\n            emit myVoteE(\"Case Deactivated\");\n        }\n        assert(!_cases[_caseNumber]._boolCase[\"OpenForVoting\"]);\n        emit confirmationE(true);\n    }\n\n    function addAlternatives(uint256 _caseNumber, string memory _alternative) public {\n        require(decitionmaker(_caseNumber), \"ERR23\");\n        require(_cases[_caseNumber]._uintCase[\"ApprovalsSigned\"] == 0, \"ERR28\");\n        require(!_cases[_caseNumber]._boolCase[\"OpenForVoting\"] && !_cases[_caseNumber]._boolCase[\"CaseDeactivated\"] && \n                _caseNumber <= _uintStorage[\"CaseNumber\"] && _caseNumber != 0 && keccak256(bytes(_alternative)) != keccak256(bytes(\"\")), \"ERR20\");\n        _cases[_caseNumber]._stringArrayCase[\"Alt\"].push(_alternative);\n        _cases[_caseNumber]._uintArrayCase[\"Alt\"].push(0);\n        assert(keccak256(bytes(_cases[_caseNumber]._stringArrayCase[\"Alt\"][ _cases[_caseNumber]._stringArrayCase[\"Alt\"].length-1 ])) == keccak256(bytes(_alternative)));\n        emit addApprovalsE(_cases[_caseNumber]._stringArrayCase[\"Alt\"], _cases[_caseNumber]._uintArrayCase[\"Alt\"]);\n    }\n\n    function createCase(string memory _title, string memory _description, uint256 _startDate, uint256 _endDate, string memory _alt1, string memory _alt2) public {\n        string memory _userType = _users[msg.sender]._stringUser[\"UserType\"];\n        require(keccak256(bytes(_userType)) == keccak256(bytes(\"Admin\")) ||\n            keccak256(bytes(_userType)) == keccak256(bytes(\"SuperAdmin\")), \"ERR4\"); // checks that the userType is \"Admin\" or \"SuperAdmin\"\n        require(_startDate > block.timestamp && _endDate > block.timestamp, \"ERR12\");\n        require(keccak256(bytes(_title)) != keccak256(bytes(\"\")) && keccak256(bytes(_description)) != keccak256(bytes(\"\"))&& \n                keccak256(bytes(_alt1)) != keccak256(bytes(\"\")) && keccak256(bytes(_alt2)) != keccak256(bytes(\"\")), \"ERR29\");\n\n        string memory _region = _users[msg.sender]._stringUser[\"Region\"];\n        \n        // Checks that there is an odd number of people that needs to approve the case to avoid a tie\n        if(keccak256(bytes(_userType)) == keccak256(bytes(\"Admin\"))){\n            require(_addressArrayStorage[ string(abi.encodePacked(_region, _userType )) ].length % 2 != 0, \"ERR31\");\n        } else if(keccak256(bytes(_userType)) == keccak256(bytes(\"SuperAdmin\"))){\n            require(_addressArrayStorage[\"SuperAdmin\"].length % 2 != 0, \"ERR34\");\n        }\n\n        _uintStorage[\"CaseNumber\"] += 1; // \"Global\" Case Number Counter\n        uint256 caseNumber = _uintStorage[\"CaseNumber\"];\n\n        // This creates a case\n        _cases[caseNumber]._stringCase[\"Title\"] = _title;\n        _cases[caseNumber]._stringCase[\"Description\"] = _description;\n        \n        // Calculate half of the votes needed +1\n        _cases[caseNumber]._uintCase[\"ApprovalsNeeded\"] = (((_addressArrayStorage[ string(abi.encodePacked(_region, _userType )) ].length * 10) /2) +5) /10;\n        \n        _cases[caseNumber]._uintCase[\"CaseCreated\"] = block.timestamp;\n        // Counts total voters (TotalVotes = Standard + Regional + National).\n        if(keccak256(bytes(_userType)) == keccak256(bytes(\"Admin\"))){\n            _cases[caseNumber]._stringCase[\"Region\"] = _region; \n            _cases[caseNumber]._uintCase[\"TotalVotes\"] = _addressArrayStorage[ string(abi.encodePacked(_region,\"SuperAdmin\")) ].length\n                                                        + _addressArrayStorage[ string(abi.encodePacked(_region,\"Admin\")) ].length\n                                                        + _addressArrayStorage[ string(abi.encodePacked(_region,\"Standard\")) ].length;\n\n        } else if(keccak256(bytes(_userType)) == keccak256(bytes(\"SuperAdmin\"))){\n\n            _cases[caseNumber]._boolCase[\"National\"] = true;\n            _cases[caseNumber]._uintCase[\"TotalVotes\"] = _addressArrayStorage[\"SuperAdmin\"].length\n                + _addressArrayStorage[\"Admin\"].length + _addressArrayStorage[\"Standard\"].length;\n        }\n        \n        // adding mandatory first alternative to Array and giving it all the votes\n        _cases[caseNumber]._stringArrayCase[\"Alt\"].push(\"NotVoted\");\n        _cases[caseNumber]._uintArrayCase[\"Alt\"].push(_cases[caseNumber]._uintCase[\"TotalVotes\"]);\n\n        _cases[caseNumber]._stringArrayCase[\"Alt\"].push(_alt1);\n        _cases[caseNumber]._stringArrayCase[\"Alt\"].push(_alt2);\n        _cases[caseNumber]._uintArrayCase[\"Alt\"].push(0);\n        _cases[caseNumber]._uintArrayCase[\"Alt\"].push(0);\n    \n\n        _cases[caseNumber]._uintCase[\"StartDate\"] = _startDate;\n        _cases[caseNumber]._uintCase[\"EndDate\"] = _endDate;\n        _cases[caseNumber]._boolCase[\"OpenForVoting\"] = false;\n        _cases[caseNumber]._boolCase[\"CaseDeactivated\"] = false;\n        \n        // checks if the information that is going to be stored is the same as the information entered into the function\n        // for(uint256 i = 0; i < _cases[caseNumber]._stringArrayCase[\"Alt\"].length; i++){\n        //     assert(keccak256(abi.encodePacked(_cases[caseNumber]._stringArrayCase[\"Alt\"][i+1])) == keccak256(abi.encodePacked(alt[i])) && \n        //             _cases[caseNumber]._uintArrayCase[\"Alt\"][i+1] == 0);\n        // }\n        _cases[caseNumber]._uintCase[\"ApprovalsSigned\"] = 0;        // Initialize approvals\n        _uintArrayStorage[\"WaitingForApproval\"].push(caseNumber);   // Add to waiting list\n\n        assert(keccak256(abi.encodePacked(\n                    _cases[caseNumber]._stringCase[\"Title\"],          \n                    _cases[caseNumber]._uintCase[\"StartDate\"],        _cases[caseNumber]._uintCase[\"EndDate\"],\n                    _cases[caseNumber]._boolCase[\"OpenForVoting\"],    _cases[caseNumber]._stringArrayCase[\"Alt\"][0]))\n            ==\n              keccak256(abi.encodePacked(\n                    _title,     \n                    _startDate,      _endDate,\n                    false,      \"NotVoted\"))\n        );\n\n\n        emit confirmationE(true);\n        emit signingRequestE(_cases[caseNumber]._stringCase[\"Title\"], caseNumber);\n        emit getCaseE(caseNumber, _title, _description, _cases[caseNumber]._boolCase[\"OpenForVoting\"], _startDate, _endDate, _cases[caseNumber]._stringArrayCase[\"Alt\"], _cases[caseNumber]._uintArrayCase[\"Alt\"], _cases[caseNumber]._uintCase[\"TotalVotes\"], _region);\n    }\n   \n    function vote(uint256 _caseNumber, uint256 _optionVoted) public {\n        require(_cases[_caseNumber]._boolCase[\"OpenForVoting\"], \"ERR7\");  // Checks that the case is open for voting\n        require(_optionVoted <= _cases[_caseNumber]._uintArrayCase[\"Alt\"].length, \"ERR8\");   // Checks that the voting option exists\n        require(_cases[_caseNumber]._uintCase[\"EndDate\"] > block.timestamp && _cases[_caseNumber]._uintCase[\"StartDate\"] < block.timestamp, \"ERR9\" );\n        require(keccak256(bytes(_users[msg.sender]._stringUser[\"Region\"])) == keccak256(bytes(_cases[_caseNumber]._stringCase[\"Region\"])) || _cases[_caseNumber]._boolCase[\"National\"], \"ERR32\");\n        require(_users[msg.sender]._uintUser[\"Moved\"] <= _cases[_caseNumber]._uintCase[\"CaseCreated\"], \"ERR33\");\n\n        if(_cases[_caseNumber]._boolCase[string(abi.encodePacked(msg.sender))]) { // Has voted\n            _cases[_caseNumber]._uintArrayCase[\"Alt\"][_cases[_caseNumber]._uintCase[string(abi.encodePacked(msg.sender))]] -= 1; // SUBTRACT\n        } else { // Has not voted\n            _cases[_caseNumber]._boolCase[string(abi.encodePacked(msg.sender))] = true; // Voting = TRUE\n            _cases[_caseNumber]._uintArrayCase[\"Alt\"][0] -= 1; // SUBTRACT\n        }\n        _cases[_caseNumber]._uintArrayCase[\"Alt\"][_optionVoted] += 1; // ADD\n\n        uint256 oldVote = _cases[_caseNumber]._uintCase[string(abi.encodePacked(msg.sender))];\n        _cases[_caseNumber]._uintCase[string(abi.encodePacked(msg.sender))] = _optionVoted; // Map msg.sender => _optionVoted\n\n        assert(_optionVoted != oldVote && keccak256(abi.encodePacked( \n                    _cases[_caseNumber]._uintCase[string(abi.encodePacked(msg.sender))],\n                    _cases[_caseNumber]._boolCase[string(abi.encodePacked(msg.sender))]\n                ))\n            == keccak256(abi.encodePacked(\n                    _optionVoted,\n                    true\n                ))\n        );\n        emit confirmationE(true);\n        emit casesWaitingForApprovalE(_cases[_caseNumber]._uintArrayCase[\"Alt\"]);\n    }\n\n    function getMyVote(uint256 _caseNumber) public {\n        require(_caseNumber <= _uintStorage[\"CaseNumber\"] && _caseNumber != 0, \"ERR13\");\n        emit myVoteE( _cases[_caseNumber]._stringArrayCase[\"Alt\"][ _cases[_caseNumber]._uintCase[string(abi.encodePacked(msg.sender))] ] );\n    }\n\n    function getApprovalsAndLimit(uint256 _caseNumber) public {\n        require(_caseNumber <= _uintStorage[\"CaseNumber\"] && _caseNumber != 0, \"ERR15\");\n        require(!_cases[_caseNumber]._boolCase[\"OpenForVoting\"], \"ERR30\");\n        emit approvalsE(_cases[_caseNumber]._uintCase[\"ApprovalsSigned\"], _cases[_caseNumber]._uintCase[\"ApprovalsNeeded\"]);\n    }\n\n    // function getCase(uint256 _caseNumber) public {\n    //     require(!_cases[_caseNumber]._boolCase[\"CaseDeactivated\"], \"ERR10\");\n    //     require(_caseNumber <= _uintStorage[\"CaseNumber\"] && _caseNumber != 0, \"ERR11\");\n    //     emit getCaseE(_caseNumber,                                  _cases[_caseNumber]._stringCase[\"Title\"], \n    //                 _cases[_caseNumber]._stringCase[\"Description\"], _cases[_caseNumber]._boolCase[\"OpenForVoting\"], \n    //                 _cases[_caseNumber]._uintCase[\"StartDate\"],     _cases[_caseNumber]._uintCase[\"EndDate\"], \n    //                 _cases[_caseNumber]._stringArrayCase[\"Alt\"],    _cases[_caseNumber]._uintArrayCase[\"Alt\"], \n    //                 _cases[_caseNumber]._uintCase[\"TotalVotes\"],    _users[msg.sender]._stringUser[\"Region\"]);\n    // }\n\n    // function getUserArrayLength(string memory _region, string memory _userType) public view returns(uint retur){\n    //     // emit getUsersE(_addressArrayStorage[ string(abi.encodePacked(_region,_userType)) ].length);\n    //     return _addressArrayStorage[ string(abi.encodePacked(_region,_userType)) ].length;\n    // }\n\n    // function usersOfType(string memory _userType) public view returns(uint usersOT){\n    //     return _addressArrayStorage[_userType].length;\n    // }\n    \n    // function getTotalVotes(uint256 _caseNumber) public {\n    //     require(_caseNumber <= _uintStorage[\"CaseNumber\"] && _caseNumber != 0, \"ERR14\");\n    //     emit totalVotesE(_cases[_caseNumber]._uintCase[\"TotalVotes\"]);\n    // }\n\n    // function getUser() public view returns(bool boo){\n    //     // emit getUserE(_users[msg.sender]._stringUser[\"Region\"], _users[msg.sender]._stringUser[\"UserType\"]);\n    //     // return (_users[msg.sender]._stringUser[\"Region\"], _users[msg.sender]._stringUser[\"UserType\"]);\n    //     return _users[msg.sender]._boolUser[\"Init\"];\n    // }\n\n    // function getCasesWaitingForApproval() public {\n    //     emit casesWaitingForApprovalE(_uintArrayStorage[\"WaitingForApproval\"]);\n    // }\n\n}",
  "sourcePath": "/Users/alex/Library/Mobile Documents/com~apple~CloudDocs/UiA/DAT304V21 - Oppgave/ChainVote/BackEnd/contracts/Case.sol",
  "compiler": {
    "name": "solc",
    "version": "0.7.5+commit.eb77ed08.Emscripten.clang"
  },
  "schemaVersion": "3.3.4",
  "updatedAt": "2021-05-03T16:07:25.951Z",
  "networkType": "ethereum",
  "devdoc": {
    "kind": "dev",
    "methods": {},
    "version": 1
  },
  "userdoc": {
    "kind": "user",
    "methods": {},
    "version": 1
  }
}