{
  "contractName": "Case",
  "abi": [
    {
      "inputs": [],
      "stateMutability": "nonpayable",
      "type": "constructor"
    },
    {
      "anonymous": false,
      "inputs": [
        {
          "indexed": false,
          "internalType": "string",
          "name": "title",
          "type": "string"
        },
        {
          "indexed": false,
          "internalType": "bool",
          "name": "openForVoting",
          "type": "bool"
        }
      ],
      "name": "caseCreated",
      "type": "event"
    },
    {
      "anonymous": false,
      "inputs": [
        {
          "indexed": false,
          "internalType": "string",
          "name": "title",
          "type": "string"
        },
        {
          "indexed": false,
          "internalType": "bool",
          "name": "openForVoting",
          "type": "bool"
        },
        {
          "indexed": false,
          "internalType": "address",
          "name": "deletedBy",
          "type": "address"
        }
      ],
      "name": "caseDeleted",
      "type": "event"
    },
    {
      "inputs": [
        {
          "internalType": "address",
          "name": "_owner",
          "type": "address"
        }
      ],
      "name": "initialize",
      "outputs": [],
      "stateMutability": "nonpayable",
      "type": "function"
    },
    {
      "inputs": [
        {
          "internalType": "string",
          "name": "_title",
          "type": "string"
        },
        {
          "internalType": "uint256",
          "name": "_deadline",
          "type": "uint256"
        },
        {
          "internalType": "uint256",
          "name": "_totalVotes",
          "type": "uint256"
        }
      ],
      "name": "createCase",
      "outputs": [],
      "stateMutability": "nonpayable",
      "type": "function"
    },
    {
      "inputs": [
        {
          "internalType": "uint256",
          "name": "_caseNumber",
          "type": "uint256"
        }
      ],
      "name": "getCase",
      "outputs": [
        {
          "internalType": "string",
          "name": "_title",
          "type": "string"
        },
        {
          "internalType": "uint256",
          "name": "_deadline",
          "type": "uint256"
        },
        {
          "internalType": "uint256",
          "name": "_totalVotes",
          "type": "uint256"
        },
        {
          "internalType": "bool",
          "name": "_openForVoting",
          "type": "bool"
        },
        {
          "internalType": "string[]",
          "name": "_alternatives",
          "type": "string[]"
        },
        {
          "internalType": "uint256[]",
          "name": "_num",
          "type": "uint256[]"
        }
      ],
      "stateMutability": "view",
      "type": "function",
      "constant": true
    },
    {
      "inputs": [
        {
          "internalType": "uint256",
          "name": "_caseNumber",
          "type": "uint256"
        }
      ],
      "name": "deleteCase",
      "outputs": [],
      "stateMutability": "nonpayable",
      "type": "function"
    },
    {
      "inputs": [
        {
          "internalType": "uint256",
          "name": "_caseNumber",
          "type": "uint256"
        },
        {
          "internalType": "string",
          "name": "_alternative",
          "type": "string"
        }
      ],
      "name": "addAlternatives",
      "outputs": [],
      "stateMutability": "nonpayable",
      "type": "function"
    },
    {
      "inputs": [
        {
          "internalType": "uint256",
          "name": "_caseNumber",
          "type": "uint256"
        }
      ],
      "name": "openVoting",
      "outputs": [],
      "stateMutability": "nonpayable",
      "type": "function"
    },
    {
      "inputs": [
        {
          "internalType": "uint256",
          "name": "_caseNumber",
          "type": "uint256"
        },
        {
          "internalType": "uint256",
          "name": "_optionVoted",
          "type": "uint256"
        }
      ],
      "name": "vote",
      "outputs": [],
      "stateMutability": "nonpayable",
      "type": "function"
    },
    {
      "inputs": [
        {
          "internalType": "uint256",
          "name": "_caseNumber",
          "type": "uint256"
        }
      ],
      "name": "getAlternatives",
      "outputs": [
        {
          "internalType": "string[]",
          "name": "",
          "type": "string[]"
        },
        {
          "internalType": "uint256[]",
          "name": "",
          "type": "uint256[]"
        }
      ],
      "stateMutability": "view",
      "type": "function",
      "constant": true
    },
    {
      "inputs": [
        {
          "internalType": "uint256",
          "name": "_caseNumber",
          "type": "uint256"
        }
      ],
      "name": "getMyVote",
      "outputs": [
        {
          "internalType": "uint256",
          "name": "",
          "type": "uint256"
        }
      ],
      "stateMutability": "view",
      "type": "function",
      "constant": true
    }
  ],
  "bytecode": "0x60806040523480156200001157600080fd5b50336004600080815260200190815260200160002060405180807f6f776e65720000000000000000000000000000000000000000000000000000008152506005019050908152602001604051809103902060006101000a81548173ffffffffffffffffffffffffffffffffffffffff021916908373ffffffffffffffffffffffffffffffffffffffff160217905550620000b133620000b760201b60201c565b62000275565b60056000808152602001908152602001600020604051620000d89062000253565b908152602001604051809103902060009054906101000a900460ff1615620000ff57600080fd5b806004600080815260200190815260200160002060405162000121906200023c565b908152602001604051809103902060006101000a81548173ffffffffffffffffffffffffffffffffffffffff021916908373ffffffffffffffffffffffffffffffffffffffff160217905550600160056000808152602001908152602001600020604051620001909062000253565b908152602001604051809103902060006101000a81548160ff02191690831515021790555050565b6000620001c76005836200026a565b91507f6f776e65720000000000000000000000000000000000000000000000000000006000830152600582019050919050565b600062000209600b836200026a565b91507f696e697469616c697a65640000000000000000000000000000000000000000006000830152600b82019050919050565b60006200024982620001b8565b9150819050919050565b60006200026082620001fa565b9150819050919050565b600081905092915050565b612cae80620002856000396000f3fe608060405234801561001057600080fd5b50600436106100935760003560e01c8063c4d66de811610066578063c4d66de814610136578063d590bf4914610152578063d82d76381461016e578063f76b40491461018a578063fcf18775146101ba57610093565b8063256d7566146100985780635f2ba6b2146100c9578063a91a1080146100e5578063b384abef1461011a575b600080fd5b6100b260048036038101906100ad9190611f08565b6101d6565b6040516100c0929190612879565b60405180910390f35b6100e360048036038101906100de9190611f08565b610371565b005b6100ff60048036038101906100fa9190611f08565b61049a565b604051610111969594939291906128ee565b60405180910390f35b610134600480360381019061012f9190611f85565b6107a6565b005b610150600480360381019061014b9190611e78565b610ae9565b005b61016c60048036038101906101679190611f08565b610be3565b005b61018860048036038101906101839190611ea1565b610fc4565b005b6101a4600480360381019061019f9190611f08565b6117a3565b6040516101b191906129f4565b60405180910390f35b6101d460048036038101906101cf9190611f31565b6117fa565b005b606080600360008481526020019081526020016000206040516101f89061284f565b9081526020016040518091039020600160008581526020019081526020016000206040516102259061284f565b908152602001604051809103902081805480602002602001604051908101604052809291908181526020016000905b82821015610310578382906000526020600020018054600181600116156101000203166002900480601f0160208091040260200160405190810160405280929190818152602001828054600181600116156101000203166002900480156102fc5780601f106102d1576101008083540402835291602001916102fc565b820191906000526020600020905b8154815290600101906020018083116102df57829003601f168201915b505050505081526020019060010190610254565b5050505091508080548060200260200160405190810160405280929190818152602001828054801561036157602002820191906000526020600020905b81548152602001906001019080831161034d575b5050505050905091509150915091565b6004600080815260200190815260200160002060405180807f6f776e65720000000000000000000000000000000000000000000000000000008152506005019050908152602001604051809103902060009054906101000a900473ffffffffffffffffffffffffffffffffffffffff1673ffffffffffffffffffffffffffffffffffffffff163373ffffffffffffffffffffffffffffffffffffffff161461041857600080fd5b600080600083815260200190815260200160002060405161043890612825565b9081526020016040518091039020541161045157600080fd5b60016005600083815260200190815260200160002060405161047290612810565b908152602001604051809103902060006101000a81548160ff02191690831515021790555050565b60606000806000606080600260008881526020019081526020016000206040516104c3906127fb565b90815260200160405180910390206000808981526020019081526020016000206040516104ef90612864565b9081526020016040518091039020546000808a815260200190815260200160002060405161051c90612825565b908152602001604051809103902054600560008b815260200190815260200160002060405161054a90612810565b908152602001604051809103902060009054906101000a900460ff16600360008c81526020019081526020016000206040516105859061284f565b9081526020016040518091039020600160008d81526020019081526020016000206040516105b29061284f565b9081526020016040518091039020858054600181600116156101000203166002900480601f0160208091040260200160405190810160405280929190818152602001828054600181600116156101000203166002900480156106555780601f1061062a57610100808354040283529160200191610655565b820191906000526020600020905b81548152906001019060200180831161063857829003601f168201915b5050505050955081805480602002602001604051908101604052809291908181526020016000905b82821015610739578382906000526020600020018054600181600116156101000203166002900480601f0160208091040260200160405190810160405280929190818152602001828054600181600116156101000203166002900480156107255780601f106106fa57610100808354040283529160200191610725565b820191906000526020600020905b81548152906001019060200180831161070857829003601f168201915b50505050508152602001906001019061067d565b5050505091508080548060200260200160405190810160405280929190818152602001828054801561078a57602002820191906000526020600020905b815481526020019060010190808311610776575b5050505050905095509550955095509550955091939550919395565b600560008381526020019081526020016000206040516107c590612810565b908152602001604051809103902060009054906101000a900460ff16610820576040517f08c379a0000000000000000000000000000000000000000000000000000000008152600401610817906129d4565b60405180910390fd5b6001600083815260200190815260200160002060405161083f9061284f565b908152602001604051809103902080549050811115610893576040517f08c379a000000000000000000000000000000000000000000000000000000000815260040161088a90612994565b60405180910390fd5b60056000838152602001908152602001600020336040516020016108b791906126a7565b6040516020818303038152906040526040516108d391906126c2565b908152602001604051809103902060009054906101000a900460ff1615610903576108fe8282611961565b610ae5565b6001600560008481526020019081526020016000203360405160200161092991906126a7565b60405160208183030381529060405260405161094591906126c2565b908152602001604051809103902060006101000a81548160ff021916908315150217905550806000808481526020019081526020016000203360405160200161098e91906126a7565b6040516020818303038152906040526040516109aa91906126c2565b908152602001604051809103902081905550610a0a600160008481526020019081526020016000206040516109de9061284f565b90815260200160405180910390206000815481106109f857fe5b90600052602060002001546001611b30565b60016000848152602001908152602001600020604051610a299061284f565b9081526020016040518091039020600081548110610a4357fe5b9060005260206000200181905550610a9e60016000848152602001908152602001600020604051610a739061284f565b90815260200160405180910390208281548110610a8c57fe5b90600052602060002001546001611b7a565b60016000848152602001908152602001600020604051610abd9061284f565b90815260200160405180910390208281548110610ad657fe5b90600052602060002001819055505b5050565b60056000808152602001908152602001600020604051610b089061283a565b908152602001604051809103902060009054906101000a900460ff1615610b2e57600080fd5b8060046000808152602001908152602001600020604051610b4e906127d1565b908152602001604051809103902060006101000a81548173ffffffffffffffffffffffffffffffffffffffff021916908373ffffffffffffffffffffffffffffffffffffffff160217905550600160056000808152602001908152602001600020604051610bbb9061283a565b908152602001604051809103902060006101000a81548160ff02191690831515021790555050565b6004600080815260200190815260200160002060405180807f6f776e65720000000000000000000000000000000000000000000000000000008152506005019050908152602001604051809103902060009054906101000a900473ffffffffffffffffffffffffffffffffffffffff1673ffffffffffffffffffffffffffffffffffffffff163373ffffffffffffffffffffffffffffffffffffffff1614610c8a57600080fd5b60056000828152602001908152602001600020604051610ca990612810565b908152602001604051809103902060009054906101000a900460ff1615610ccf57600080fd5b606060026000838152602001908152602001600020604051610cf0906127fb565b90815260200160405180910390208054600181600116156101000203166002900480601f016020809104026020016040519081016040528092919081815260200182805460018160011615610100020316600290048015610d925780601f10610d6757610100808354040283529160200191610d92565b820191906000526020600020905b815481529060010190602001808311610d7557829003601f168201915b50505050509050600060056000848152602001908152602001600020604051610dba90612810565b908152602001604051809103902060009054906101000a900460ff16905060026000848152602001908152602001600020604051610df7906127fb565b90815260200160405180910390206000610e119190611cc2565b600080848152602001908152602001600020604051610e2f90612864565b908152602001604051809103902060009055600080848152602001908152602001600020604051610e5f90612825565b90815260200160405180910390206000905560036000848152602001908152602001600020604051610e909061284f565b90815260200160405180910390206000610eaa9190611d0a565b60046000848152602001908152602001600020604051610ec9906127a7565b908152602001604051809103902060006101000a81549073ffffffffffffffffffffffffffffffffffffffff021916905560056000848152602001908152602001600020604051610f1990612810565b908152602001604051809103902060006101000a81549060ff02191690557fa4c718bd313dad312b5d43f0a1273b3fdec432bf439dca210e183699979b6715828260046000808152602001908152602001600020604051610f79906127d1565b908152602001604051809103902060009054906101000a900473ffffffffffffffffffffffffffffffffffffffff16604051610fb7939291906128b0565b60405180910390a1505050565b6004600080815260200190815260200160002060405180807f6f776e65720000000000000000000000000000000000000000000000000000008152506005019050908152602001604051809103902060009054906101000a900473ffffffffffffffffffffffffffffffffffffffff1673ffffffffffffffffffffffffffffffffffffffff163373ffffffffffffffffffffffffffffffffffffffff161461106b57600080fd5b600081116110ae576040517f08c379a00000000000000000000000000000000000000000000000000000000081526004016110a5906129b4565b60405180910390fd5b6110e56000808081526020019081526020016000206040516110cf906127e6565b9081526020016040518091039020546001611b7a565b600080808152602001908152602001600020604051611103906127e6565b9081526020016040518091039020819055508260026000806000808152602001908152602001600020604051611138906127e6565b9081526020016040518091039020548152602001908152602001600020604051611161906127fb565b90815260200160405180910390209080519060200190611182929190611d2b565b50816000808060008081526020019081526020016000206040516111a5906127e6565b90815260200160405180910390205481526020019081526020016000206040516111ce90612864565b90815260200160405180910390208190555080600080806000808152602001908152602001600020604051611202906127e6565b908152602001604051809103902054815260200190815260200160002060405161122b90612825565b908152602001604051809103902081905550600060056000806000808152602001908152602001600020604051611261906127e6565b908152602001604051809103902054815260200190815260200160002060405161128a906127bc565b908152602001604051809103902060006101000a81548160ff021916908315150217905550600360008060008081526020019081526020016000206040516112d1906127e6565b90815260200160405180910390205481526020019081526020016000206040516112fa9061284f565b908152602001604051809103902080600181540180825580915050600190039060005260206000200160006040518060400160405280600a81526020017f496b6b65205374656d740000000000000000000000000000000000000000000081525090919091509080519060200190611373929190611d2b565b5060016000806000808152602001908152602001600020604051611396906127e6565b90815260200160405180910390205481526020019081526020016000206040516113bf9061284f565b908152602001604051809103902081908060018154018082558091505060019003906000526020600020016000909190919091505582826000838460405160200161140e9594939291906126d9565b6040516020818303038152906040528051906020012060026000806000808152602001908152602001600020604051611446906127e6565b908152602001604051809103902054815260200190815260200160002060405161146f906127fb565b908152602001604051809103902060008080600080815260200190815260200160002060405161149e906127e6565b90815260200160405180910390205481526020019081526020016000206040516114c790612864565b908152602001604051809103902054600560008060008081526020019081526020016000206040516114f8906127e6565b908152602001604051809103902054815260200190815260200160002060405161152190612810565b908152602001604051809103902060009054906101000a900460ff1660008080600080815260200190815260200160002060405161155e906127e6565b908152602001604051809103902054815260200190815260200160002060405161158790612825565b908152602001604051809103902054600360008060008081526020019081526020016000206040516115b8906127e6565b90815260200160405180910390205481526020019081526020016000206040516115e19061284f565b90815260200160405180910390206000815481106115fb57fe5b9060005260206000200160016000806000808152602001908152602001600020604051611627906127e6565b90815260200160405180910390205481526020019081526020016000206040516116509061284f565b908152602001604051809103902060008154811061166a57fe5b906000526020600020015460405160200161168a9695949392919061273f565b60405160208183030381529060405280519060200120146116a757fe5b7f397bd7bf3071967480966f6a0dbc085b8c14d5fa5e0fae7e9aec4d4f5edba282600260008060008081526020019081526020016000206040516116ea906127e6565b9081526020016040518091039020548152602001908152602001600020604051611713906127fb565b908152602001604051809103902060056000806000808152602001908152602001600020604051611743906127e6565b908152602001604051809103902054815260200190815260200160002060405161176c90612810565b908152602001604051809103902060009054906101000a900460ff16604051611796929190612964565b60405180910390a1505050565b6000806000838152602001908152602001600020336040516020016117c891906126a7565b6040516020818303038152906040526040516117e491906126c2565b9081526020016040518091039020549050919050565b6004600080815260200190815260200160002060405180807f6f776e65720000000000000000000000000000000000000000000000000000008152506005019050908152602001604051809103902060009054906101000a900473ffffffffffffffffffffffffffffffffffffffff1673ffffffffffffffffffffffffffffffffffffffff163373ffffffffffffffffffffffffffffffffffffffff16146118a157600080fd5b600160008381526020019081526020016000206040516118c09061284f565b908152602001604051809103902060009080600181540180825580915050600190039060005260206000200160009091909190915055600360008381526020019081526020016000206040516119159061284f565b90815260200160405180910390208190806001815401808255809150506001900390600052602060002001600090919091909150908051906020019061195c929190611d2b565b505050565b60008060008481526020019081526020016000203360405160200161198691906126a7565b6040516020818303038152906040526040516119a291906126c2565b908152602001604051809103902054905081600080858152602001908152602001600020336040516020016119d791906126a7565b6040516020818303038152906040526040516119f391906126c2565b908152602001604051809103902081905550611a5260016000858152602001908152602001600020604051611a279061284f565b90815260200160405180910390208281548110611a4057fe5b90600052602060002001546001611b30565b60016000858152602001908152602001600020604051611a719061284f565b90815260200160405180910390208281548110611a8a57fe5b9060005260206000200181905550611ae560016000858152602001908152602001600020604051611aba9061284f565b90815260200160405180910390208381548110611ad357fe5b90600052602060002001546001611b7a565b60016000858152602001908152602001600020604051611b049061284f565b90815260200160405180910390208381548110611b1d57fe5b9060005260206000200181905550505050565b6000611b7283836040518060400160405280601e81526020017f536166654d6174683a207375627472616374696f6e206f766572666c6f770000815250611c02565b905092915050565b600080828401905083811015611bf8576040517f08c379a000000000000000000000000000000000000000000000000000000000815260040180806020018281038252601b8152602001807f536166654d6174683a206164646974696f6e206f766572666c6f77000000000081525060200191505060405180910390fd5b8091505092915050565b6000838311158290611caf576040517f08c379a00000000000000000000000000000000000000000000000000000000081526004018080602001828103825283818151815260200191508051906020019080838360005b83811015611c74578082015181840152602081019050611c59565b50505050905090810190601f168015611ca15780820380516001836020036101000a031916815260200191505b509250505060405180910390fd5b5060008385039050809150509392505050565b50805460018160011615610100020316600290046000825580601f10611ce85750611d07565b601f016020900490600052602060002090810190611d069190611db9565b5b50565b5080546000825590600052602060002090810190611d289190611dd6565b50565b828054600181600116156101000203166002900490600052602060002090601f016020900481019282611d615760008555611da8565b82601f10611d7a57805160ff1916838001178555611da8565b82800160010185558215611da8579182015b82811115611da7578251825591602001919060010190611d8c565b5b509050611db59190611db9565b5090565b5b80821115611dd2576000816000905550600101611dba565b5090565b5b80821115611df65760008181611ded9190611cc2565b50600101611dd7565b5090565b600081359050611e0981612c4a565b92915050565b600082601f830112611e2057600080fd5b8135611e33611e2e82612a40565b612a0f565b91508082526020830160208301858383011115611e4f57600080fd5b611e5a838284612b89565b50505092915050565b600081359050611e7281612c61565b92915050565b600060208284031215611e8a57600080fd5b6000611e9884828501611dfa565b91505092915050565b600080600060608486031215611eb657600080fd5b600084013567ffffffffffffffff811115611ed057600080fd5b611edc86828701611e0f565b9350506020611eed86828701611e63565b9250506040611efe86828701611e63565b9150509250925092565b600060208284031215611f1a57600080fd5b6000611f2884828501611e63565b91505092915050565b60008060408385031215611f4457600080fd5b6000611f5285828601611e63565b925050602083013567ffffffffffffffff811115611f6f57600080fd5b611f7b85828601611e0f565b9150509250929050565b60008060408385031215611f9857600080fd5b6000611fa685828601611e63565b9250506020611fb785828601611e63565b9150509250929050565b6000611fcd838361210c565b905092915050565b6000611fe18383612672565b60208301905092915050565b611ffe611ff982612b41565b612bcb565b82525050565b61200d81612b2f565b82525050565b600061201e82612aa5565b6120288185612ae0565b93508360208202850161203a85612a70565b8060005b8581101561207657848403895281516120578582611fc1565b945061206283612ac6565b925060208a0199505060018101905061203e565b50829750879550505050505092915050565b600061209382612ab0565b61209d8185612af1565b93506120a883612a80565b8060005b838110156120d95781516120c08882611fd5565b97506120cb83612ad3565b9250506001810190506120ac565b5085935050505092915050565b6120ef81612b53565b82525050565b61210661210182612b53565b612bdd565b82525050565b600061211782612abb565b6121218185612b02565b9350612131818560208601612b98565b61213a81612c1f565b840191505092915050565b600061215082612abb565b61215a8185612b13565b935061216a818560208601612b98565b61217381612c1f565b840191505092915050565b600061218982612abb565b6121938185612b24565b93506121a3818560208601612b98565b80840191505092915050565b6000815460018116600081146121cc57600181146121f257612236565b607f60028304166121dd8187612b13565b955060ff198316865260208601935050612236565b600282046122008187612b13565b955061220b85612a90565b60005b8281101561222d5781548189015260018201915060208101905061220e565b80880195505050505b505092915050565b60008154600181166000811461225b5760018114612280576122c4565b607f600283041661226c8187612b24565b955060ff19831686528086019350506122c4565b6002820461228e8187612b24565b955061229985612a90565b60005b828110156122bb5781548189015260018201915060208101905061229c565b82880195505050505b505092915050565b60006122d9600583612b24565b91507f566f7465640000000000000000000000000000000000000000000000000000006000830152600582019050919050565b6000612319600f83612b24565b91507f6f70656e20466f7220566f74696e6700000000000000000000000000000000006000830152600f82019050919050565b6000612359600583612b24565b91507f6f776e65720000000000000000000000000000000000000000000000000000006000830152600582019050919050565b6000612399600a83612b24565b91507f636173654e756d626572000000000000000000000000000000000000000000006000830152600a82019050919050565b60006123d9600583612b24565b91507f5469746c650000000000000000000000000000000000000000000000000000006000830152600582019050919050565b6000612419601a83612b13565b91507f5069636b20616e206f7074696f6e2074686174206578697374730000000000006000830152602082019050919050565b6000612459602383612b13565b91507f546f74616c20766f746573206e6565647320746f206265206d6f72652074686160008301527f6e203000000000000000000000000000000000000000000000000000000000006020830152604082019050919050565b60006124bf601883612b13565b91507f4e6f74204f70656e20466f7220566f74696e67205965742100000000000000006000830152602082019050919050565b60006124ff600f83612b24565b91507f4f70656e20466f7220566f74696e6700000000000000000000000000000000006000830152600f82019050919050565b600061253f600b83612b24565b91507f546f74616c20566f7465730000000000000000000000000000000000000000006000830152600b82019050919050565b600061257f600b83612b24565b91507f696e697469616c697a65640000000000000000000000000000000000000000006000830152600b82019050919050565b60006125bf600c83612b24565b91507f416c7465726e61746976657300000000000000000000000000000000000000006000830152600c82019050919050565b60006125ff600a83612b24565b91507f496b6b65205374656d74000000000000000000000000000000000000000000006000830152600a82019050919050565b600061263f600883612b24565b91507f446561646c696e650000000000000000000000000000000000000000000000006000830152600882019050919050565b61267b81612b7f565b82525050565b61268a81612b7f565b82525050565b6126a161269c82612b7f565b612c01565b82525050565b60006126b38284611fed565b60148201915081905092915050565b60006126ce828461217e565b915081905092915050565b60006126e5828861217e565b91506126f18287612690565b60208201915061270182866120f5565b6001820191506127118285612690565b602082019150612720826125f2565b915061272c8284612690565b6020820191508190509695505050505050565b600061274b828961223e565b91506127578288612690565b60208201915061276782876120f5565b6001820191506127778286612690565b602082019150612787828561223e565b91506127938284612690565b602082019150819050979650505050505050565b60006127b2826122cc565b9150819050919050565b60006127c78261230c565b9150819050919050565b60006127dc8261234c565b9150819050919050565b60006127f18261238c565b9150819050919050565b6000612806826123cc565b9150819050919050565b600061281b826124f2565b9150819050919050565b600061283082612532565b9150819050919050565b600061284582612572565b9150819050919050565b600061285a826125b2565b9150819050919050565b600061286f82612632565b9150819050919050565b600060408201905081810360008301526128938185612013565b905081810360208301526128a78184612088565b90509392505050565b600060608201905081810360008301526128ca8186612145565b90506128d960208301856120e6565b6128e66040830184612004565b949350505050565b600060c08201905081810360008301526129088189612145565b90506129176020830188612681565b6129246040830187612681565b61293160608301866120e6565b81810360808301526129438185612013565b905081810360a08301526129578184612088565b9050979650505050505050565b6000604082019050818103600083015261297e81856121af565b905061298d60208301846120e6565b9392505050565b600060208201905081810360008301526129ad8161240c565b9050919050565b600060208201905081810360008301526129cd8161244c565b9050919050565b600060208201905081810360008301526129ed816124b2565b9050919050565b6000602082019050612a096000830184612681565b92915050565b6000604051905081810181811067ffffffffffffffff82111715612a3657612a35612c1d565b5b8060405250919050565b600067ffffffffffffffff821115612a5b57612a5a612c1d565b5b601f19601f8301169050602081019050919050565b6000819050602082019050919050565b6000819050602082019050919050565b60008190508160005260206000209050919050565b600081519050919050565b600081519050919050565b600081519050919050565b6000602082019050919050565b6000602082019050919050565b600082825260208201905092915050565b600082825260208201905092915050565b600082825260208201905092915050565b600082825260208201905092915050565b600081905092915050565b6000612b3a82612b5f565b9050919050565b6000612b4c82612b5f565b9050919050565b60008115159050919050565b600073ffffffffffffffffffffffffffffffffffffffff82169050919050565b6000819050919050565b82818337600083830152505050565b60005b83811015612bb6578082015181840152602081019050612b9b565b83811115612bc5576000848401525b50505050565b6000612bd682612bef565b9050919050565b6000612be882612c0b565b9050919050565b6000612bfa82612c3d565b9050919050565b6000819050919050565b6000612c1682612c30565b9050919050565bfe5b6000601f19601f8301169050919050565b60008160f81b9050919050565b60008160601b9050919050565b612c5381612b2f565b8114612c5e57600080fd5b50565b612c6a81612b7f565b8114612c7557600080fd5b5056fea2646970667358221220ecf1ea404dc523e649d90d3062997adade469266106937ff3bcb78014e7f1edc64736f6c63430007050033",
  "immutableReferences": {},
  "source": "//SPDX-License-Identifier: MIT\npragma solidity 0.7.5;\npragma abicoder v2;\n\nimport \"./Ownable.sol\";\n\ncontract Case is Ownable {\n\n    constructor() {\n        initialize(msg.sender);\n    }\n\n    function initialize(address _owner) public {\n        require(!_boolStorage[0][\"initialized\"]);\n        _addressStorage[0][\"owner\"] = _owner;\n        _boolStorage[0][\"initialized\"] = true;\n    }\n\n    event caseCreated(string title, bool openForVoting);\n    event caseDeleted(string title, bool openForVoting, address deletedBy);\n\n    function createCase(string memory _title, uint256 _deadline, uint256 _totalVotes) public onlyOwner {\n        require(_totalVotes > 0, \"Total votes needs to be more than 0\");\n        // \"Global\" Case Number Counter\n        _uintStorage[0][\"caseNumber\"] = SafeMath.add(_uintStorage[0][\"caseNumber\"], 1);\n\n        // This creates a case\n        _stringStorage[ _uintStorage[0][\"caseNumber\"] ][\"Title\"] = _title;\n        _uintStorage[_uintStorage[0][\"caseNumber\"]][\"Deadline\"] = _deadline;\n        _uintStorage[_uintStorage[0][\"caseNumber\"]][\"Total Votes\"] = _totalVotes;\n        _boolStorage[_uintStorage[0][\"caseNumber\"]][\"open For Voting\"] = false;\n\n        //adding first alternative to Array and giving it all the votes\n        _stringArrayStorage[_uintStorage[0][\"caseNumber\"]][\"Alternatives\"].push(\"Ikke Stemt\");\n        _uintArrayStorage[_uintStorage[0][\"caseNumber\"]][\"Alternatives\"].push(_totalVotes);\n\n        // checks if the information that is going to be stored is the same as the information entered into the function\n        assert(keccak256(abi.encodePacked(\n                    _stringStorage[_uintStorage[0][\"caseNumber\"]][\"Title\"],\n                    _uintStorage[_uintStorage[0][\"caseNumber\"]][\"Deadline\"],\n                    _boolStorage[_uintStorage[0][\"caseNumber\"]][\"Open For Voting\"],\n                    _uintStorage[_uintStorage[0][\"caseNumber\"]][\"Total Votes\"],\n                    _stringArrayStorage[_uintStorage[0][\"caseNumber\"]][\"Alternatives\"][0],\n                    _uintArrayStorage[_uintStorage[0][\"caseNumber\"]][\"Alternatives\"][0]\n                ))\n            ==\n            keccak256(abi.encodePacked(\n                    _title,\n                    _deadline,\n                    false,\n                    _totalVotes,\n                    \"Ikke Stemt\",\n                    _totalVotes\n                ))\n        );\n        emit caseCreated(_stringStorage[_uintStorage[0][\"caseNumber\"]][\"Title\"], _boolStorage[_uintStorage[0][\"caseNumber\"]][\"Open For Voting\"]);\n    }\n\n    function getCase(uint _caseNumber) public view returns(string memory _title, uint _deadline, uint _totalVotes, bool _openForVoting, string[] memory _alternatives, uint[] memory _num){\n        return (_stringStorage[_caseNumber][\"Title\"], _uintStorage[_caseNumber][\"Deadline\"], _uintStorage[_caseNumber][\"Total Votes\"], \n        _boolStorage[_caseNumber][\"Open For Voting\"], _stringArrayStorage[_caseNumber][\"Alternatives\"], _uintArrayStorage[_caseNumber][\"Alternatives\"]);\n    }\n\n    // Problematisk  slette?\n    function deleteCase(uint _caseNumber) public onlyOwner {\n        require(!_boolStorage[_caseNumber][\"Open For Voting\"]);\n        string memory title = _stringStorage[_caseNumber][\"Title\"];\n        bool openForVoting = _boolStorage[_caseNumber][\"Open For Voting\"];\n\n        delete _stringStorage[_caseNumber][\"Title\"];\n        delete _uintStorage[_caseNumber][\"Deadline\"];\n        delete _uintStorage[_caseNumber][\"Total Votes\"];\n        delete _stringArrayStorage[_caseNumber][\"Alternatives\"];\n        delete _addressStorage[_caseNumber][\"Voted\"];\n        delete _boolStorage[_caseNumber][\"Open For Voting\"];\n\n        emit caseDeleted(title, openForVoting, _addressStorage[0][\"owner\"]);\n   }\n   \n   function addAlternatives(uint256 _caseNumber, string memory _alternative) public onlyOwner {\n        _uintArrayStorage[_caseNumber][\"Alternatives\"].push(0);\n        _stringArrayStorage[_caseNumber][\"Alternatives\"].push(_alternative);\n        // Assert\n   }\n\n   function openVoting(uint256 _caseNumber) public onlyOwner {\n       require(_uintStorage[_caseNumber][\"Total Votes\"] > 0);\n        _boolStorage[_caseNumber][\"Open For Voting\"] = true;\n        // emit\n   }\n   \n   function vote (uint256 _caseNumber, uint256 _optionVoted) public {\n        // Checks if the case is open for voting\n        require(_boolStorage[_caseNumber][\"Open For Voting\"], \"Not Open For Voting Yet!\");\n\n        // Checks that the option exists\n        require(_optionVoted <= _uintArrayStorage[_caseNumber][\"Alternatives\"].length, \"Pick an option that exists\");\n\n        // Checks if the address already voted, then using changeVote instead\n        if(_boolStorage[_caseNumber][string(abi.encodePacked(msg.sender))]) {\n            changeVote(_caseNumber, _optionVoted);\n        } else {\n            _boolStorage[_caseNumber][string(abi.encodePacked(msg.sender))] = true; // Voting address registerd to the case\n            _uintStorage[_caseNumber][string(abi.encodePacked(msg.sender))] = _optionVoted; // Register alternative to address\n            _uintArrayStorage[_caseNumber][\"Alternatives\"][0] = SafeMath.sub(_uintArrayStorage[_caseNumber][\"Alternatives\"][0], 1); // subtracts a Vote from \"Ikke Stemt\" \n            _uintArrayStorage[_caseNumber][\"Alternatives\"][_optionVoted] = SafeMath.add(_uintArrayStorage[_caseNumber][\"Alternatives\"][_optionVoted], 1); //adds a vote to the option chosen\n        }\n            // assert changes has to be done, no need if no transaction\n   }\n\n   function changeVote(uint256 _caseNumber, uint256 _optionVoted) internal {\n        uint256 registerdVote = _uintStorage[_caseNumber][string(abi.encodePacked(msg.sender))];\n        _uintStorage[_caseNumber][string(abi.encodePacked(msg.sender))] = _optionVoted; // Register alternative to address\n        _uintArrayStorage[_caseNumber][\"Alternatives\"][registerdVote] = SafeMath.sub(_uintArrayStorage[_caseNumber][\"Alternatives\"][registerdVote], 1); // subtracts a Vote from previously voted alternative\n        _uintArrayStorage[_caseNumber][\"Alternatives\"][_optionVoted] = SafeMath.add(_uintArrayStorage[_caseNumber][\"Alternatives\"][_optionVoted], 1); //adds a vote to the option chosen\n   }\n\n   function getAlternatives(uint256 _caseNumber) public view returns(string[] memory, uint256[] memory){\n        return (_stringArrayStorage[_caseNumber][\"Alternatives\"], _uintArrayStorage[_caseNumber][\"Alternatives\"]);\n   }\n\n   function getMyVote(uint256 _caseNumber) public view returns(uint256\n   //, string memory\n   ){\n        return (_uintStorage[_caseNumber][string(abi.encodePacked(msg.sender))]\n        //, _stringArrayStorage[_caseNumber][\"Alternatives\"][_uintStorage[_caseNumber][string(abi.encodePacked(msg.sender))]]\n        );\n   }\n \n}",
  "sourcePath": "/Users/alex/Library/Mobile Documents/com~apple~CloudDocs/UiA/DAT304V21 - Oppgave/ChainVote/BackEnd/contracts/Case.sol",
  "compiler": {
    "name": "solc",
    "version": "0.7.5+commit.eb77ed08.Emscripten.clang"
  },
  "schemaVersion": "3.3.4",
  "updatedAt": "2021-03-10T22:27:04.015Z",
  "networkType": "ethereum",
  "devdoc": {
    "kind": "dev",
    "methods": {},
    "version": 1
  },
  "userdoc": {
    "kind": "user",
    "methods": {},
    "version": 1
  }
}