{
  "contractName": "Case",
  "abi": [
    {
      "inputs": [],
      "stateMutability": "nonpayable",
      "type": "constructor"
    },
    {
      "anonymous": false,
      "inputs": [
        {
          "indexed": false,
          "internalType": "uint256",
          "name": "_caseNumber",
          "type": "uint256"
        },
        {
          "indexed": false,
          "internalType": "uint256",
          "name": "_approvals",
          "type": "uint256"
        },
        {
          "indexed": false,
          "internalType": "address",
          "name": "_approver",
          "type": "address"
        }
      ],
      "name": "ApprovalReceived",
      "type": "event"
    },
    {
      "anonymous": false,
      "inputs": [
        {
          "indexed": false,
          "internalType": "uint256",
          "name": "_caseNumber",
          "type": "uint256"
        }
      ],
      "name": "CaseApproved",
      "type": "event"
    },
    {
      "anonymous": false,
      "inputs": [
        {
          "indexed": false,
          "internalType": "string",
          "name": "title",
          "type": "string"
        },
        {
          "indexed": false,
          "internalType": "uint256",
          "name": "_caseNumber",
          "type": "uint256"
        }
      ],
      "name": "SigningRequestCreated",
      "type": "event"
    },
    {
      "anonymous": false,
      "inputs": [
        {
          "indexed": false,
          "internalType": "string",
          "name": "title",
          "type": "string"
        },
        {
          "indexed": false,
          "internalType": "bool",
          "name": "openForVoting",
          "type": "bool"
        }
      ],
      "name": "caseCreated",
      "type": "event"
    },
    {
      "anonymous": false,
      "inputs": [
        {
          "indexed": false,
          "internalType": "string",
          "name": "title",
          "type": "string"
        },
        {
          "indexed": false,
          "internalType": "bool",
          "name": "openForVoting",
          "type": "bool"
        }
      ],
      "name": "caseDeleted",
      "type": "event"
    },
    {
      "anonymous": false,
      "inputs": [
        {
          "indexed": false,
          "internalType": "uint256",
          "name": "caseNumber",
          "type": "uint256"
        },
        {
          "indexed": false,
          "internalType": "string",
          "name": "title",
          "type": "string"
        }
      ],
      "name": "votingClosed",
      "type": "event"
    },
    {
      "anonymous": false,
      "inputs": [
        {
          "indexed": false,
          "internalType": "uint256",
          "name": "caseNumber",
          "type": "uint256"
        },
        {
          "indexed": false,
          "internalType": "string",
          "name": "title",
          "type": "string"
        }
      ],
      "name": "votingOpened",
      "type": "event"
    },
    {
      "inputs": [
        {
          "internalType": "uint256",
          "name": "_caseNumber",
          "type": "uint256"
        }
      ],
      "name": "getApproval",
      "outputs": [
        {
          "internalType": "uint256",
          "name": "",
          "type": "uint256"
        }
      ],
      "stateMutability": "view",
      "type": "function",
      "constant": true
    },
    {
      "inputs": [
        {
          "internalType": "string",
          "name": "_region",
          "type": "string"
        },
        {
          "internalType": "string",
          "name": "_userType",
          "type": "string"
        }
      ],
      "name": "createUser",
      "outputs": [],
      "stateMutability": "nonpayable",
      "type": "function"
    },
    {
      "inputs": [
        {
          "internalType": "string",
          "name": "_region",
          "type": "string"
        },
        {
          "internalType": "string",
          "name": "_userType",
          "type": "string"
        }
      ],
      "name": "getUserArrayLength",
      "outputs": [
        {
          "internalType": "uint256",
          "name": "",
          "type": "uint256"
        }
      ],
      "stateMutability": "view",
      "type": "function",
      "constant": true
    },
    {
      "inputs": [
        {
          "internalType": "uint256",
          "name": "_caseNumber",
          "type": "uint256"
        }
      ],
      "name": "approvalZ",
      "outputs": [],
      "stateMutability": "nonpayable",
      "type": "function"
    },
    {
      "inputs": [
        {
          "internalType": "uint256",
          "name": "_caseNumber",
          "type": "uint256"
        }
      ],
      "name": "getSigningRequestsZ",
      "outputs": [
        {
          "internalType": "string",
          "name": "",
          "type": "string"
        },
        {
          "internalType": "uint256",
          "name": "",
          "type": "uint256"
        }
      ],
      "stateMutability": "view",
      "type": "function",
      "constant": true
    },
    {
      "inputs": [
        {
          "internalType": "uint256",
          "name": "_caseNumber",
          "type": "uint256"
        }
      ],
      "name": "returnLimitApproval",
      "outputs": [
        {
          "internalType": "uint256",
          "name": "",
          "type": "uint256"
        }
      ],
      "stateMutability": "view",
      "type": "function",
      "constant": true
    },
    {
      "inputs": [
        {
          "internalType": "uint256",
          "name": "_caseNumber",
          "type": "uint256"
        }
      ],
      "name": "returnTotalVotes",
      "outputs": [
        {
          "internalType": "uint256",
          "name": "",
          "type": "uint256"
        }
      ],
      "stateMutability": "view",
      "type": "function",
      "constant": true
    },
    {
      "inputs": [
        {
          "internalType": "uint256",
          "name": "_caseNumber",
          "type": "uint256"
        }
      ],
      "name": "getApprovalZ",
      "outputs": [
        {
          "internalType": "uint256",
          "name": "",
          "type": "uint256"
        }
      ],
      "stateMutability": "view",
      "type": "function",
      "constant": true
    },
    {
      "inputs": [
        {
          "internalType": "string",
          "name": "_title",
          "type": "string"
        },
        {
          "internalType": "uint256",
          "name": "_deadline",
          "type": "uint256"
        },
        {
          "internalType": "string[]",
          "name": "_alternatives",
          "type": "string[]"
        },
        {
          "internalType": "string",
          "name": "_region",
          "type": "string"
        }
      ],
      "name": "createCase",
      "outputs": [],
      "stateMutability": "nonpayable",
      "type": "function"
    },
    {
      "inputs": [
        {
          "internalType": "uint256",
          "name": "_caseNumber",
          "type": "uint256"
        }
      ],
      "name": "getCase",
      "outputs": [
        {
          "internalType": "string",
          "name": "_title",
          "type": "string"
        },
        {
          "internalType": "uint256",
          "name": "_deadline",
          "type": "uint256"
        },
        {
          "internalType": "uint256",
          "name": "_totalVotes",
          "type": "uint256"
        },
        {
          "internalType": "bool",
          "name": "_openForVoting",
          "type": "bool"
        },
        {
          "internalType": "string[]",
          "name": "_alternatives",
          "type": "string[]"
        },
        {
          "internalType": "uint256[]",
          "name": "_num",
          "type": "uint256[]"
        }
      ],
      "stateMutability": "view",
      "type": "function",
      "constant": true
    },
    {
      "inputs": [
        {
          "internalType": "uint256",
          "name": "_caseNumber",
          "type": "uint256"
        }
      ],
      "name": "deleteCase",
      "outputs": [],
      "stateMutability": "nonpayable",
      "type": "function"
    },
    {
      "inputs": [
        {
          "internalType": "uint256",
          "name": "_caseNumber",
          "type": "uint256"
        },
        {
          "internalType": "uint256",
          "name": "_optionVoted",
          "type": "uint256"
        }
      ],
      "name": "vote",
      "outputs": [],
      "stateMutability": "nonpayable",
      "type": "function"
    },
    {
      "inputs": [
        {
          "internalType": "uint256",
          "name": "_caseNumber",
          "type": "uint256"
        }
      ],
      "name": "getAlternatives",
      "outputs": [
        {
          "internalType": "string[]",
          "name": "",
          "type": "string[]"
        },
        {
          "internalType": "uint256[]",
          "name": "",
          "type": "uint256[]"
        }
      ],
      "stateMutability": "view",
      "type": "function",
      "constant": true
    },
    {
      "inputs": [
        {
          "internalType": "uint256",
          "name": "_caseNumber",
          "type": "uint256"
        }
      ],
      "name": "getMyVote",
      "outputs": [
        {
          "internalType": "string",
          "name": "",
          "type": "string"
        }
      ],
      "stateMutability": "view",
      "type": "function",
      "constant": true
    }
  ],
  "bytecode": "0x60806040523480156200001157600080fd5b5033600560405180807f6f776e65720000000000000000000000000000000000000000000000000000008152506005019050908152602001604051809103902060006101000a81548173ffffffffffffffffffffffffffffffffffffffff021916908373ffffffffffffffffffffffffffffffffffffffff160217905550620000a033620000a660201b60201c565b620002de565b6006604051620000b69062000289565b908152602001604051809103902060009054906101000a900460ff161562000115576040517f08c379a00000000000000000000000000000000000000000000000000000000081526004016200010c90620002a0565b60405180910390fd5b806005604051620001269062000272565b908152602001604051809103902060006101000a81548173ffffffffffffffffffffffffffffffffffffffff021916908373ffffffffffffffffffffffffffffffffffffffff16021790555060016006604051620001849062000289565b908152602001604051809103902060006101000a81548160ff02191690831515021790555050565b6000620001bb600583620002d3565b91507f6f776e65720000000000000000000000000000000000000000000000000000006000830152600582019050919050565b6000620001fd601183620002c2565b91507f455252363a20696e697469616c697a65640000000000000000000000000000006000830152602082019050919050565b60006200023f600b83620002d3565b91507f696e697469616c697a65640000000000000000000000000000000000000000006000830152600b82019050919050565b60006200027f82620001ac565b9150819050919050565b6000620002968262000230565b9150819050919050565b60006020820190508181036000830152620002bb81620001ee565b9050919050565b600082825260208201905092915050565b600081905092915050565b61453b80620002ee6000396000f3fe608060405234801561001057600080fd5b50600436106100ea5760003560e01c8063b384abef1161008c578063d7ec1d4b11610066578063d7ec1d4b14610271578063efeab0d2146102a2578063f658518a146102d2578063f76b404914610302576100ea565b8063b384abef1461021d578063be1032e114610239578063d590bf4914610255576100ea565b80635b962d55116100c85780635b962d551461016c578063865148c61461019c57806387b162b5146101cc578063a91a1080146101e8576100ea565b80630d0c0980146100ef5780631e39cf291461011f578063256d75661461013b575b600080fd5b610109600480360381019061010491906130c9565b610332565b60405161011691906141d0565b60405180910390f35b6101396004803603810190610134919061301e565b610344565b005b610155600480360381019061015091906130c9565b610cb0565b604051610163929190613f11565b60405180910390f35b610186600480360381019061018191906130c9565b610e51565b60405161019391906141d0565b60405180910390f35b6101b660048036038101906101b19190612fb2565b610e8b565b6040516101c391906141d0565b60405180910390f35b6101e660048036038101906101e19190612fb2565b610ed8565b005b61020260048036038101906101fd91906130c9565b61105e565b60405161021496959493929190613f9a565b60405180910390f35b610237600480360381019061023291906130f2565b611468565b005b610253600480360381019061024e91906130c9565b611a62565b005b61026f600480360381019061026a91906130c9565b611a6e565b005b61028b600480360381019061028691906130c9565b611c3d565b604051610299929190613f6a565b60405180910390f35b6102bc60048036038101906102b791906130c9565b611c53565b6040516102c991906141d0565b60405180910390f35b6102ec60048036038101906102e791906130c9565b611c8d565b6040516102f991906141d0565b60405180910390f35b61031c600480360381019061031791906130c9565b611cc7565b6040516103299190613f48565b60405180910390f35b600061033d82611c8d565b9050919050565b61034c611e6b565b61038b576040517f08c379a0000000000000000000000000000000000000000000000000000000008152600401610382906140f0565b60405180910390fd5b6103b2600060405161039c90613dfe565b9081526020016040518091039020546001612018565b60006040516103c090613dfe565b9081526020016040518091039020819055506000806040516103e190613dfe565b9081526020016040518091039020549050846008600083815260200190815260200160002060020160405161041590613e13565b90815260200160405180910390209080519060200190610436929190612e2a565b50816008600083815260200190815260200160002060020160405161045a90613de9565b9081526020016040518091039020908051906020019061047b929190612e2a565b506104ee6104e76104e06104d96004866104936120a0565b6040516020016104a4929190613c6b565b6040516020818303038152906040526040516104c09190613c54565b908152602001604051809103902080549050600a6122cf565b6002612355565b6005612018565b600a612355565b6008600083815260200190815260200160002060000160405161051090613ea6565b9081526020016040518091039020819055506004826040516020016105359190613d02565b6040516020818303038152906040526040516105519190613c54565b9081526020016040518091039020805490506008600083815260200190815260200160002060000160405161058590613e7c565b9081526020016040518091039020819055506004826040516020016105aa9190613ce0565b6040516020818303038152906040526040516105c69190613c54565b908152602001604051809103902080549050600860008381526020019081526020016000206000016040516105fa90613e7c565b9081526020016040518091039020600082825401925050819055506004826040516020016106289190613d24565b6040516020818303038152906040526040516106449190613c54565b9081526020016040518091039020805490506008600083815260200190815260200160002060000160405161067890613e7c565b90815260200160405180910390206000828254019250508190555083600860008381526020019081526020016000206000016040516106b690613ed0565b9081526020016040518091039020819055506000600860008381526020019081526020016000206004016040516106ec90613dd4565b908152602001604051809103902060006101000a81548160ff02191690831515021790555060006008600083815260200190815260200160002060040160405161073590613e52565b908152602001604051809103902060006101000a81548160ff0219169083151502179055506008600082815260200190815260200160002060030160405161077c90613e91565b908152602001604051809103902080600181540180825580915050600190039060005260206000200160006040518060400160405280600a81526020017f496b6b65205374656d7400000000000000000000000000000000000000000000815250909190915090805190602001906107f5929190612e2a565b506008600082815260200190815260200160002060010160405161081890613e91565b90815260200160405180910390206008600083815260200190815260200160002060000160405161084890613e7c565b908152602001604051809103902054908060018154018082558091505060019003906000526020600020016000909190919091505560005b835181101561096b57600860008381526020019081526020016000206003016040516108ab90613e91565b90815260200160405180910390208482815181106108c557fe5b6020026020010151908060018154018082558091505060019003906000526020600020016000909190919091509080519060200190610905929190612e2a565b506008600083815260200190815260200160002060010160405161092890613e91565b9081526020016040518091039020600090806001815401808255809150506001900390600052602060002001600090919091909150558080600101915050610880565b5060005b8351811015610a865783818151811061098457fe5b602002602001015160405160200161099c9190613c54565b60405160208183030381529060405280519060200120600860008481526020019081526020016000206003016040516109d490613e91565b908152602001604051809103902060018301815481106109f057fe5b90600052602060002001604051602001610a0a9190613d46565b6040516020818303038152906040528051906020012014610a2757fe5b600060086000848152602001908152602001600020600101604051610a4b90613e91565b90815260200160405180910390206001830181548110610a6757fe5b906000526020600020015414610a7957fe5b808060010191505061096f565b508482856000604051602001610a9f9493929190613c8f565b6040516020818303038152906040528051906020012060086000838152602001908152602001600020600201604051610ad790613e13565b908152602001604051809103902060086000848152602001908152602001600020600201604051610b0790613de9565b908152602001604051809103902060086000858152602001908152602001600020600001604051610b3790613ed0565b90815260200160405180910390205460086000868152602001908152602001600020600401604051610b6890613dd4565b908152602001604051809103902060009054906101000a900460ff1660086000878152602001908152602001600020600301604051610ba690613e91565b9081526020016040518091039020600081548110610bc057fe5b90600052602060002001604051602001610bde959493929190613d81565b6040516020818303038152906040528051906020012014610bfb57fe5b7f397bd7bf3071967480966f6a0dbc085b8c14d5fa5e0fae7e9aec4d4f5edba28260086000838152602001908152602001600020600201604051610c3e90613e13565b908152602001604051809103902060086000848152602001908152602001600020600401604051610c6e90613e3d565b908152602001604051809103902060009054906101000a900460ff16604051610c98929190614010565b60405180910390a1610ca98161239f565b5050505050565b60608060086000848152602001908152602001600020600301604051610cd590613e91565b908152602001604051809103902060086000858152602001908152602001600020600101604051610d0590613e91565b908152602001604051809103902081805480602002602001604051908101604052809291908181526020016000905b82821015610df0578382906000526020600020018054600181600116156101000203166002900480601f016020809104026020016040519081016040528092919081815260200182805460018160011615610100020316600290048015610ddc5780601f10610db157610100808354040283529160200191610ddc565b820191906000526020600020905b815481529060010190602001808311610dbf57829003601f168201915b505050505081526020019060010190610d34565b50505050915080805480602002602001604051908101604052809291908181526020018280548015610e4157602002820191906000526020600020905b815481526020019060010190808311610e2d575b5050505050905091509150915091565b600060086000838152602001908152602001600020600001604051610e7590613e7c565b9081526020016040518091039020549050919050565b600060048383604051602001610ea2929190613c6b565b604051602081830303815290604052604051610ebe9190613c54565b908152602001604051809103902080549050905092915050565b81600960003373ffffffffffffffffffffffffffffffffffffffff1673ffffffffffffffffffffffffffffffffffffffff168152602001908152602001600020600201604051610f2790613de9565b90815260200160405180910390209080519060200190610f48929190612e2a565b5080600960003373ffffffffffffffffffffffffffffffffffffffff1673ffffffffffffffffffffffffffffffffffffffff168152602001908152602001600020600201604051610f9890613e28565b90815260200160405180910390209080519060200190610fb9929190612e2a565b5060048282604051602001610fcf929190613c6b565b604051602081830303815290604052604051610feb9190613c54565b9081526020016040518091039020339080600181540180825580915050600190039060005260206000200160009091909190916101000a81548173ffffffffffffffffffffffffffffffffffffffff021916908373ffffffffffffffffffffffffffffffffffffffff1602179055505050565b606060008060006060806008600088815260200190815260200160002060040160405161108a90613e52565b908152602001604051809103902060009054906101000a900460ff16156110e6576040517f08c379a00000000000000000000000000000000000000000000000000000000081526004016110dd90614070565b60405180910390fd5b60006040516110f490613dfe565b9081526020016040518091039020548711158015611113575060008714155b611152576040517f08c379a0000000000000000000000000000000000000000000000000000000008152600401611149906140d0565b60405180910390fd5b6008600088815260200190815260200160002060020160405161117490613e13565b9081526020016040518091039020600860008981526020019081526020016000206000016040516111a490613ed0565b908152602001604051809103902054600860008a81526020019081526020016000206000016040516111d590613e7c565b908152602001604051809103902054600860008b815260200190815260200160002060040160405161120690613e3d565b908152602001604051809103902060009054906101000a900460ff16600860008c815260200190815260200160002060030160405161124490613e91565b9081526020016040518091039020600860008d815260200190815260200160002060010160405161127490613e91565b9081526020016040518091039020858054600181600116156101000203166002900480601f0160208091040260200160405190810160405280929190818152602001828054600181600116156101000203166002900480156113175780601f106112ec57610100808354040283529160200191611317565b820191906000526020600020905b8154815290600101906020018083116112fa57829003601f168201915b5050505050955081805480602002602001604051908101604052809291908181526020016000905b828210156113fb578382906000526020600020018054600181600116156101000203166002900480601f0160208091040260200160405190810160405280929190818152602001828054600181600116156101000203166002900480156113e75780601f106113bc576101008083540402835291602001916113e7565b820191906000526020600020905b8154815290600101906020018083116113ca57829003601f168201915b50505050508152602001906001019061133f565b5050505091508080548060200260200160405190810160405280929190818152602001828054801561144c57602002820191906000526020600020905b815481526020019060010190808311611438575b5050505050905095509550955095509550955091939550919395565b6008600083815260200190815260200160002060040160405161148a90613e3d565b908152602001604051809103902060009054906101000a900460ff166114e5576040517f08c379a00000000000000000000000000000000000000000000000000000000081526004016114dc90614170565b60405180910390fd5b6008600083815260200190815260200160002060010160405161150790613e91565b90815260200160405180910390208054905081111561155b576040517f08c379a000000000000000000000000000000000000000000000000000000000815260040161155290614090565b60405180910390fd5b60086000838152602001908152602001600020600401336040516020016115829190613c22565b60405160208183030381529060405260405161159e9190613c54565b908152602001604051809103902060009054906101000a900460ff16156116ff57611660600860008481526020019081526020016000206001016040516115e490613e91565b908152602001604051809103902060086000858152602001908152602001600020600001336040516020016116199190613c22565b6040516020818303038152906040526040516116359190613c54565b9081526020016040518091039020548154811061164e57fe5b90600052602060002001546001612642565b6008600084815260200190815260200160002060010160405161168290613e91565b908152602001604051809103902060086000858152602001908152602001600020600001336040516020016116b79190613c22565b6040516020818303038152906040526040516116d39190613c54565b908152602001604051809103902054815481106116ec57fe5b9060005260206000200181905550611805565b600160086000848152602001908152602001600020600401336040516020016117289190613c22565b6040516020818303038152906040526040516117449190613c54565b908152602001604051809103902060006101000a81548160ff0219169083151502179055506117ba6008600084815260200190815260200160002060010160405161178e90613e91565b90815260200160405180910390206000815481106117a857fe5b90600052602060002001546001612642565b600860008481526020019081526020016000206001016040516117dc90613e91565b90815260200160405180910390206000815481106117f657fe5b90600052602060002001819055505b6118556008600084815260200190815260200160002060010160405161182a90613e91565b9081526020016040518091039020828154811061184357fe5b90600052602060002001546001612018565b6008600084815260200190815260200160002060010160405161187790613e91565b9081526020016040518091039020828154811061189057fe5b9060005260206000200181905550600060086000848152602001908152602001600020600001336040516020016118c79190613c22565b6040516020818303038152906040526040516118e39190613c54565b908152602001604051809103902054905081600860008581526020019081526020016000206000013360405160200161191c9190613c22565b6040516020818303038152906040526040516119389190613c54565b9081526020016040518091039020819055508082141561195457fe5b816001604051602001611968929190613ee5565b6040516020818303038152906040528051906020012060086000858152602001908152602001600020600001336040516020016119a59190613c22565b6040516020818303038152906040526040516119c19190613c54565b90815260200160405180910390205460086000868152602001908152602001600020600401336040516020016119f79190613c22565b604051602081830303815290604052604051611a139190613c54565b908152602001604051809103902060009054906101000a900460ff16604051602001611a40929190613ee5565b6040516020818303038152906040528051906020012014611a5d57fe5b505050565b611a6b8161268c565b50565b600560405180807f6f776e65720000000000000000000000000000000000000000000000000000008152506005019050908152602001604051809103902060009054906101000a900473ffffffffffffffffffffffffffffffffffffffff1673ffffffffffffffffffffffffffffffffffffffff163373ffffffffffffffffffffffffffffffffffffffff1614611b0457600080fd5b60086000828152602001908152602001600020600401604051611b2690613e3d565b908152602001604051809103902060009054906101000a900460ff1615611b4c57600080fd5b600160086000838152602001908152602001600020600401604051611b7090613e52565b908152602001604051809103902060006101000a81548160ff0219169083151502179055507f89a70fe1536f6bbb141a4c96d2517714f4b156b768ffeed8bf5d97570b76e05460086000838152602001908152602001600020600201604051611bd890613e13565b908152602001604051809103902060086000848152602001908152602001600020600401604051611c0890613e3d565b908152602001604051809103902060009054906101000a900460ff16604051611c32929190614010565b60405180910390a150565b60606000611c4a83612bdf565b91509150915091565b600060086000838152602001908152602001600020600001604051611c7790613ea6565b9081526020016040518091039020549050919050565b600060086000838152602001908152602001600020600001604051611cb190613ebb565b9081526020016040518091039020549050919050565b60606000604051611cd790613dfe565b9081526020016040518091039020548211158015611cf6575060008214155b611d35576040517f08c379a0000000000000000000000000000000000000000000000000000000008152600401611d2c90614150565b60405180910390fd5b60086000838152602001908152602001600020600301604051611d5790613e91565b90815260200160405180910390206008600084815260200190815260200160002060000133604051602001611d8c9190613c22565b604051602081830303815290604052604051611da89190613c54565b90815260200160405180910390205481548110611dc157fe5b906000526020600020018054600181600116156101000203166002900480601f016020809104026020016040519081016040528092919081815260200182805460018160011615610100020316600290048015611e5f5780601f10611e3457610100808354040283529160200191611e5f565b820191906000526020600020905b815481529060010190602001808311611e4257829003601f168201915b50505050509050919050565b60006040518060400160405280600881526020017f526567696f6e616c00000000000000000000000000000000000000000000000081525080519060200120600960003373ffffffffffffffffffffffffffffffffffffffff1673ffffffffffffffffffffffffffffffffffffffff168152602001908152602001600020600201604051611ef890613e28565b9081526020016040518091039020604051611f139190613c3d565b60405180910390201480611fd257506040518060400160405280600881526020017f4e6174696f6e616c00000000000000000000000000000000000000000000000081525080519060200120600960003373ffffffffffffffffffffffffffffffffffffffff1673ffffffffffffffffffffffffffffffffffffffff168152602001908152602001600020600201604051611fad90613e28565b9081526020016040518091039020604051611fc89190613c3d565b6040518091039020145b612011576040517f08c379a000000000000000000000000000000000000000000000000000000000815260040161200890614110565b60405180910390fd5b6001905090565b600080828401905083811015612096576040517f08c379a000000000000000000000000000000000000000000000000000000000815260040180806020018281038252601b8152602001807f536166654d6174683a206164646974696f6e206f766572666c6f77000000000081525060200191505060405180910390fd5b8091505092915050565b60606120aa611e6b565b6120e9576040517f08c379a00000000000000000000000000000000000000000000000000000000081526004016120e090614190565b60405180910390fd5b6040518060400160405280600881526020017f526567696f6e616c00000000000000000000000000000000000000000000000081525080519060200120600960003373ffffffffffffffffffffffffffffffffffffffff1673ffffffffffffffffffffffffffffffffffffffff16815260200190815260200160002060020160405161217490613e28565b908152602001604051809103902060405161218f9190613c3d565b604051809103902014156121da576040518060400160405280600881526020017f526567696f6e616c00000000000000000000000000000000000000000000000081525090506122cc565b6040518060400160405280600881526020017f4e6174696f6e616c00000000000000000000000000000000000000000000000081525080519060200120600960003373ffffffffffffffffffffffffffffffffffffffff1673ffffffffffffffffffffffffffffffffffffffff16815260200190815260200160002060020160405161226590613e28565b90815260200160405180910390206040516122809190613c3d565b604051809103902014156122cb576040518060400160405280600881526020017f4e6174696f6e616c00000000000000000000000000000000000000000000000081525090506122cc565b5b90565b6000808314156122e2576000905061234f565b60008284029050828482816122f357fe5b041461234a576040517f08c379a00000000000000000000000000000000000000000000000000000000081526004018080602001828103825260218152602001806144e56021913960400191505060405180910390fd5b809150505b92915050565b600061239783836040518060400160405280601a81526020017f536166654d6174683a206469766973696f6e206279207a65726f000000000000815250612ca4565b905092915050565b806000805b6004600860008581526020019081526020016000206002016040516123c890613de9565b90815260200160405180910390206123de6120a0565b6040516020016123ef929190613d5d565b60405160208183030381529060405260405161240b9190613c54565b908152602001604051809103902080549050811015612514573373ffffffffffffffffffffffffffffffffffffffff1660046008600086815260200190815260200160002060020160405161245f90613de9565b90815260200160405180910390206124756120a0565b604051602001612486929190613d5d565b6040516020818303038152906040526040516124a29190613c54565b908152602001604051809103902082815481106124bb57fe5b9060005260206000200160009054906101000a900473ffffffffffffffffffffffffffffffffffffffff1673ffffffffffffffffffffffffffffffffffffffff16141561250757600191505b80806001019150506123a4565b50600115158115151461255c576040517f08c379a0000000000000000000000000000000000000000000000000000000008152600401612553906140b0565b60405180910390fd5b60006008600085815260200190815260200160002060000160405161258090613ebb565b90815260200160405180910390208190555060016040516125a090613e67565b90815260200160405180910390208390806001815401808255809150506001900390600052602060002001600090919091909150557f9ebb3c03561c733b59a512566b5b18ec5796fdc6ed05edf321d587eb807185866008600085815260200190815260200160002060020160405161261890613e13565b908152602001604051809103902084604051612635929190614040565b60405180910390a1505050565b600061268483836040518060400160405280601e81526020017f536166654d6174683a207375627472616374696f6e206f766572666c6f770000815250612d6a565b905092915050565b806000805b6004600860008581526020019081526020016000206002016040516126b590613de9565b90815260200160405180910390206126cb6120a0565b6040516020016126dc929190613d5d565b6040516020818303038152906040526040516126f89190613c54565b908152602001604051809103902080549050811015612801573373ffffffffffffffffffffffffffffffffffffffff1660046008600086815260200190815260200160002060020160405161274c90613de9565b90815260200160405180910390206127626120a0565b604051602001612773929190613d5d565b60405160208183030381529060405260405161278f9190613c54565b908152602001604051809103902082815481106127a857fe5b9060005260206000200160009054906101000a900473ffffffffffffffffffffffffffffffffffffffff1673ffffffffffffffffffffffffffffffffffffffff1614156127f457600191505b8080600101915050612691565b506001151581151514612849576040517f08c379a0000000000000000000000000000000000000000000000000000000008152600401612840906140b0565b60405180910390fd5b6000151560086000858152602001908152602001600020600401336040516020016128749190613c22565b6040516020818303038152906040526040516128909190613c54565b908152602001604051809103902060009054906101000a900460ff161515146128ee576040517f08c379a00000000000000000000000000000000000000000000000000000000081526004016128e590614130565b60405180910390fd5b600015156008600085815260200190815260200160002060040160405161291490613e3d565b908152602001604051809103902060009054906101000a900460ff16151514612972576040517f08c379a0000000000000000000000000000000000000000000000000000000008152600401612969906141b0565b60405180910390fd5b6001600860008581526020019081526020016000206004013360405160200161299b9190613c22565b6040516020818303038152906040526040516129b79190613c54565b908152602001604051809103902060006101000a81548160ff021916908315150217905550600160086000858152602001908152602001600020600001604051612a0090613ebb565b9081526020016040518091039020600082825401925050819055507ffec9d12d15ee8c8b836a58347cb0d4980db38411bcd0b83662cee48fb20b6dee8360086000868152602001908152602001600020600001604051612a5f90613ebb565b90815260200160405180910390205433604051612a7e939291906141eb565b60405180910390a160086000848152602001908152602001600020600001604051612aa890613ea6565b90815260200160405180910390205460086000858152602001908152602001600020600001604051612ad990613ebb565b90815260200160405180910390205410612b6e57600160086000858152602001908152602001600020600401604051612b1190613e3d565b908152602001604051809103902060006101000a81548160ff0219169083151502179055507f7154413448c2c174ae1fa459442e8775c138d15526ccd5e537576d6f5e9fd65683604051612b6591906141d0565b60405180910390a15b600115156008600085815260200190815260200160002060040133604051602001612b999190613c22565b604051602081830303815290604052604051612bb59190613c54565b908152602001604051809103902060009054906101000a900460ff16151514612bda57fe5b505050565b6060600080606460086000868152602001908152602001600020600001604051612c0890613ebb565b9081526020016040518091039020540290506000606460086000878152602001908152602001600020600001604051612c4090613e7c565b9081526020016040518091039020540290506000818381612c5d57fe5b049050806040518060400160405280601381526020017f50657263656e74207369676e65642825293a20000000000000000000000000008152509094509450505050915091565b60008083118290612d50576040517f08c379a00000000000000000000000000000000000000000000000000000000081526004018080602001828103825283818151815260200191508051906020019080838360005b83811015612d15578082015181840152602081019050612cfa565b50505050905090810190601f168015612d425780820380516001836020036101000a031916815260200191505b509250505060405180910390fd5b506000838581612d5c57fe5b049050809150509392505050565b6000838311158290612e17576040517f08c379a00000000000000000000000000000000000000000000000000000000081526004018080602001828103825283818151815260200191508051906020019080838360005b83811015612ddc578082015181840152602081019050612dc1565b50505050905090810190601f168015612e095780820380516001836020036101000a031916815260200191505b509250505060405180910390fd5b5060008385039050809150509392505050565b828054600181600116156101000203166002900490600052602060002090601f016020900481019282612e605760008555612ea7565b82601f10612e7957805160ff1916838001178555612ea7565b82800160010185558215612ea7579182015b82811115612ea6578251825591602001919060010190612e8b565b5b509050612eb49190612eb8565b5090565b5b80821115612ed1576000816000905550600101612eb9565b5090565b600082601f830112612ee657600080fd5b8135612ef9612ef482614253565b614222565b9150818183526020840193506020810190508360005b83811015612f3f5781358601612f258882612f49565b845260208401935060208301925050600181019050612f0f565b5050505092915050565b600082601f830112612f5a57600080fd5b8135612f6d612f688261427f565b614222565b91508082526020830160208301858383011115612f8957600080fd5b612f9483828461440c565b50505092915050565b600081359050612fac816144cd565b92915050565b60008060408385031215612fc557600080fd5b600083013567ffffffffffffffff811115612fdf57600080fd5b612feb85828601612f49565b925050602083013567ffffffffffffffff81111561300857600080fd5b61301485828601612f49565b9150509250929050565b6000806000806080858703121561303457600080fd5b600085013567ffffffffffffffff81111561304e57600080fd5b61305a87828801612f49565b945050602061306b87828801612f9d565b935050604085013567ffffffffffffffff81111561308857600080fd5b61309487828801612ed5565b925050606085013567ffffffffffffffff8111156130b157600080fd5b6130bd87828801612f49565b91505092959194509250565b6000602082840312156130db57600080fd5b60006130e984828501612f9d565b91505092915050565b6000806040838503121561310557600080fd5b600061311385828601612f9d565b925050602061312485828601612f9d565b9150509250929050565b600061313a8383613307565b905092915050565b600061314e8383613bed565b60208301905092915050565b613163816143d6565b82525050565b61317a6131758261438e565b61444e565b82525050565b600061318b826142f9565b6131958185614334565b9350836020820285016131a7856142af565b8060005b858110156131e357848403895281516131c4858261312e565b94506131cf8361431a565b925060208a019950506001810190506131ab565b50829750879550505050505092915050565b600061320082614304565b61320a8185614345565b9350613215836142bf565b8060005b8381101561324657815161322d8882613142565b975061323883614327565b925050600181019050613219565b5085935050505092915050565b61325c816143a0565b82525050565b61327361326e826143a0565b614460565b82525050565b60008154600181166000811461329657600181146132bb576132ff565b607f60028304166132a78187614356565b955060ff19831686528086019350506132ff565b600282046132c98187614356565b95506132d4856142cf565b60005b828110156132f6578154818901526001820191506020810190506132d7565b82880195505050505b505092915050565b60006133128261430f565b61331c8185614361565b935061332c81856020860161441b565b613335816144a2565b840191505092915050565b600061334b8261430f565b6133558185614372565b935061336581856020860161441b565b61336e816144a2565b840191505092915050565b60006133848261430f565b61338e8185614383565b935061339e81856020860161441b565b80840191505092915050565b6000815460018116600081146133c757600181146133ed57613431565b607f60028304166133d88187614372565b955060ff198316865260208601935050613431565b600282046133fb8187614372565b9550613406856142e4565b60005b8281101561342857815481890152600182019150602081019050613409565b80880195505050505b505092915050565b600081546001811660008114613456576001811461347b576134bf565b607f60028304166134678187614383565b955060ff19831686528086019350506134bf565b600282046134898187614383565b9550613494856142e4565b60005b828110156134b657815481890152600182019150602081019050613497565b82880195505050505b505092915050565b60006134d4600f83614383565b91507f6f70656e20466f7220566f74696e6700000000000000000000000000000000006000830152600f82019050919050565b6000613514602483614372565b91507f455252393a2054686973206361736520686173206265656e206465616374697660008301527f61746564000000000000000000000000000000000000000000000000000000006020830152604082019050919050565b600061357a602083614372565b91507f455252383a205069636b20616e206f7074696f6e2074686174206578697374736000830152602082019050919050565b60006135ba600683614383565b91507f526567696f6e00000000000000000000000000000000000000000000000000006000830152600682019050919050565b60006135fa601383614372565b91507f455252353a205369676e6572203d2074727565000000000000000000000000006000830152602082019050919050565b600061363a601a83614372565b91507f45525231303a204361736520646f6573206e6f742065786973740000000000006000830152602082019050919050565b600061367a600a83614383565b91507f636173654e756d626572000000000000000000000000000000000000000000006000830152600a82019050919050565b60006136ba600583614383565b91507f5469746c650000000000000000000000000000000000000000000000000000006000830152600582019050919050565b60006136fa600983614383565b91507f55736572205479706500000000000000000000000000000000000000000000006000830152600982019050919050565b600061373a600883614383565b91507f526567696f6e616c0000000000000000000000000000000000000000000000006000830152600882019050919050565b600061377a601e83614372565b91507f455252313a204e6f7420526567696f6e616c206f72204e6174696f6e616c00006000830152602082019050919050565b60006137ba601883614372565b91507f455252343a205265717569726520526567204f52204e617400000000000000006000830152602082019050919050565b60006137fa601983614372565b91507f45525231323a206d73672e73656e646572203d2066616c7365000000000000006000830152602082019050919050565b600061383a600883614383565b91507f5374616e646172640000000000000000000000000000000000000000000000006000830152600882019050919050565b600061387a600f83614383565b91507f4f70656e20466f7220566f74696e6700000000000000000000000000000000006000830152600f82019050919050565b60006138ba601083614383565b91507f43617365204465616374697661746564000000000000000000000000000000006000830152601082019050919050565b60006138fa601383614372565b91507f4361736520646f6573206e6f74206578697374000000000000000000000000006000830152602082019050919050565b600061393a601283614383565b91507f57616974696e67466f72417070726f76616c00000000000000000000000000006000830152601282019050919050565b600061397a600b83614383565b91507f546f74616c20566f7465730000000000000000000000000000000000000000006000830152600b82019050919050565b60006139ba601e83614372565b91507f455252373a204e6f74204f70656e20466f7220566f74696e67205965742100006000830152602082019050919050565b60006139fa600c83614383565b91507f416c7465726e61746976657300000000000000000000000000000000000000006000830152600c82019050919050565b6000613a3a600a83614383565b91507f496b6b65205374656d74000000000000000000000000000000000000000000006000830152600a82019050919050565b6000613a7a601783614372565b91507f455252333a20636865636b5573657254797065426f6f6c0000000000000000006000830152602082019050919050565b6000613aba600583614383565b91507f4c696d69740000000000000000000000000000000000000000000000000000006000830152600582019050919050565b6000613afa600983614383565b91507f417070726f76616c7300000000000000000000000000000000000000000000006000830152600982019050919050565b6000613b3a600883614383565b91507f446561646c696e650000000000000000000000000000000000000000000000006000830152600882019050919050565b6000613b7a600883614383565b91507f4e6174696f6e616c0000000000000000000000000000000000000000000000006000830152600882019050919050565b6000613bba601583614372565b91507f45525231333a206f70656e203d2066616c7365205800000000000000000000006000830152602082019050919050565b613bf6816143cc565b82525050565b613c05816143cc565b82525050565b613c1c613c17826143cc565b614484565b82525050565b6000613c2e8284613169565b60148201915081905092915050565b6000613c498284613279565b915081905092915050565b6000613c608284613379565b915081905092915050565b6000613c778285613379565b9150613c838284613379565b91508190509392505050565b6000613c9b8287613379565b9150613ca78286613379565b9150613cb38285613c0b565b602082019150613cc38284613262565b600182019150613cd282613a2d565b915081905095945050505050565b6000613cec8284613379565b9150613cf78261372d565b915081905092915050565b6000613d0e8284613379565b9150613d198261382d565b915081905092915050565b6000613d308284613379565b9150613d3b82613b6d565b915081905092915050565b6000613d528284613439565b915081905092915050565b6000613d698285613439565b9150613d758284613379565b91508190509392505050565b6000613d8d8288613439565b9150613d998287613439565b9150613da58286613c0b565b602082019150613db58285613262565b600182019150613dc58284613439565b91508190509695505050505050565b6000613ddf826134c7565b9150819050919050565b6000613df4826135ad565b9150819050919050565b6000613e098261366d565b9150819050919050565b6000613e1e826136ad565b9150819050919050565b6000613e33826136ed565b9150819050919050565b6000613e488261386d565b9150819050919050565b6000613e5d826138ad565b9150819050919050565b6000613e728261392d565b9150819050919050565b6000613e878261396d565b9150819050919050565b6000613e9c826139ed565b9150819050919050565b6000613eb182613aad565b9150819050919050565b6000613ec682613aed565b9150819050919050565b6000613edb82613b2d565b9150819050919050565b6000613ef18285613c0b565b602082019150613f018284613262565b6001820191508190509392505050565b60006040820190508181036000830152613f2b8185613180565b90508181036020830152613f3f81846131f5565b90509392505050565b60006020820190508181036000830152613f628184613340565b905092915050565b60006040820190508181036000830152613f848185613340565b9050613f936020830184613bfc565b9392505050565b600060c0820190508181036000830152613fb48189613340565b9050613fc36020830188613bfc565b613fd06040830187613bfc565b613fdd6060830186613253565b8181036080830152613fef8185613180565b905081810360a083015261400381846131f5565b9050979650505050505050565b6000604082019050818103600083015261402a81856133aa565b90506140396020830184613253565b9392505050565b6000604082019050818103600083015261405a81856133aa565b90506140696020830184613bfc565b9392505050565b6000602082019050818103600083015261408981613507565b9050919050565b600060208201905081810360008301526140a98161356d565b9050919050565b600060208201905081810360008301526140c9816135ed565b9050919050565b600060208201905081810360008301526140e98161362d565b9050919050565b600060208201905081810360008301526141098161376d565b9050919050565b60006020820190508181036000830152614129816137ad565b9050919050565b60006020820190508181036000830152614149816137ed565b9050919050565b60006020820190508181036000830152614169816138ed565b9050919050565b60006020820190508181036000830152614189816139ad565b9050919050565b600060208201905081810360008301526141a981613a6d565b9050919050565b600060208201905081810360008301526141c981613bad565b9050919050565b60006020820190506141e56000830184613bfc565b92915050565b60006060820190506142006000830186613bfc565b61420d6020830185613bfc565b61421a604083018461315a565b949350505050565b6000604051905081810181811067ffffffffffffffff82111715614249576142486144a0565b5b8060405250919050565b600067ffffffffffffffff82111561426e5761426d6144a0565b5b602082029050602081019050919050565b600067ffffffffffffffff82111561429a576142996144a0565b5b601f19601f8301169050602081019050919050565b6000819050602082019050919050565b6000819050602082019050919050565b60008190508160005260206000209050919050565b60008190508160005260206000209050919050565b600081519050919050565b600081519050919050565b600081519050919050565b6000602082019050919050565b6000602082019050919050565b600082825260208201905092915050565b600082825260208201905092915050565b600081905092915050565b600082825260208201905092915050565b600082825260208201905092915050565b600081905092915050565b6000614399826143ac565b9050919050565b60008115159050919050565b600073ffffffffffffffffffffffffffffffffffffffff82169050919050565b6000819050919050565b60006143e1826143e8565b9050919050565b60006143f3826143fa565b9050919050565b6000614405826143ac565b9050919050565b82818337600083830152505050565b60005b8381101561443957808201518184015260208101905061441e565b83811115614448576000848401525b50505050565b600061445982614472565b9050919050565b600061446b8261448e565b9050919050565b600061447d826144c0565b9050919050565b6000819050919050565b6000614499826144b3565b9050919050565bfe5b6000601f19601f8301169050919050565b60008160f81b9050919050565b60008160601b9050919050565b6144d6816143cc565b81146144e157600080fd5b5056fe536166654d6174683a206d756c7469706c69636174696f6e206f766572666c6f77a26469706673582212206020408e3ce7ce68d8314579c049e01292b24712a03d83fdf3a50885d24f2aea64736f6c63430007050033",
  "immutableReferences": {},
  "source": "//SPDX-License-Identifier: MIT\npragma solidity 0.7.5;\npragma abicoder v2;\n\nimport \"./Ownable.sol\";\nimport \"./MultiSig.sol\";\n\ncontract Case is Ownable, MultiSig {\n\n    constructor() {\n        initialize(msg.sender);\n    }\n    \n    function createUser(string memory _region, string memory _userType) public {\n        _users[msg.sender]._stringUser[\"Region\"] = _region;\n        _users[msg.sender]._stringUser[\"User Type\"] = _userType;\n        \n        _addressArrayStorage[ string(abi.encodePacked(_region,_userType)) ].push(msg.sender); // makes array based on region and usertype\n    }\n    \n    function getUserArrayLength(string memory _region, string memory _userType) public view returns(uint){\n        return _addressArrayStorage[ string(abi.encodePacked(_region,_userType)) ].length;\n    }\n    \n    function initialize(address _owner) private {\n        require(!_boolStorage[\"initialized\"], \"ERR6: initialized\");\n        _addressStorage[\"owner\"] = _owner;\n        _boolStorage[\"initialized\"] = true;\n    }\n\n    event caseCreated(string title, bool openForVoting);\n    event caseDeleted(string title, bool openForVoting);\n    event votingOpened(uint256 caseNumber, string title);\n    event votingClosed(uint256 caseNumber, string title);\n    \n    function approvalZ(uint _caseNumber) public {\n        approve(_caseNumber);\n    }\n    \n    function getSigningRequestsZ(uint _caseNumber) public view returns(string memory, uint){\n        return getSigningRequests(_caseNumber);\n    }\n    \n    function returnLimitApproval(uint _caseNumber) public view returns(uint){\n        return _cases[_caseNumber]._uintCase[\"Limit\"];\n    }\n    \n    function returnTotalVotes(uint _caseNumber) public view returns(uint){\n        return _cases[_caseNumber]._uintCase[\"Total Votes\"];\n    }\n\n    function getApprovalZ(uint _caseNumber) public view returns(uint){\n        return getApproval(_caseNumber);\n    }\n\n    function createCase(string memory _title, uint256 _deadline, string[] memory _alternatives, string memory _region) public {\n        require(checkUserTypeBool(),\"ERR1: Not Regional or National\"); // checks that the userType is \"Regional\" or \"National\"\n        _uintStorage[\"caseNumber\"] = SafeMath.add(_uintStorage[\"caseNumber\"], 1); // \"Global\" Case Number Counter\n        uint caseNumber = _uintStorage[\"caseNumber\"];\n\n        // This creates a case\n        _cases[caseNumber]._stringCase[\"Title\"] = _title;\n        _cases[caseNumber]._stringCase[\"Region\"] = _region;\n        \n        // tall p antall stemer som trengs \"((((7 *10) /2) +5) /10)\" for  approve casen i MultiSig\n        _cases[caseNumber]._uintCase[\"Limit\"] = \n        SafeMath.div(\n            SafeMath.add(\n                SafeMath.div(\n                    SafeMath.mul(\n                        _addressArrayStorage[ string(abi.encodePacked(_region,checkUserTypeString())) ].length, \n                    10),\n                2),\n            5),\n        10);\n        \n        // totalVotes = Standard+Regional+National\n        _cases[caseNumber]._uintCase[\"Total Votes\"] = _addressArrayStorage[ string(abi.encodePacked(_region,\"Standard\")) ].length;\n        _cases[caseNumber]._uintCase[\"Total Votes\"] += _addressArrayStorage[ string(abi.encodePacked(_region,\"Regional\")) ].length;\n        _cases[caseNumber]._uintCase[\"Total Votes\"] += _addressArrayStorage[ string(abi.encodePacked(_region,\"National\")) ].length;\n\n        _cases[caseNumber]._uintCase[\"Deadline\"] = _deadline;\n        _cases[caseNumber]._boolCase[\"open For Voting\"] = false;\n        _cases[caseNumber]._boolCase[\"Case Deactivated\"] = false;\n\n        //adding first alternative to Array and giving it all the votes\n        _cases[caseNumber]._stringArrayCase[\"Alternatives\"].push(\"Ikke Stemt\");\n        _cases[caseNumber]._uintArrayCase[\"Alternatives\"].push(_cases[caseNumber]._uintCase[\"Total Votes\"]);\n\n        for(uint i = 0; i < _alternatives.length; i++){\n            _cases[caseNumber]._stringArrayCase[\"Alternatives\"].push(_alternatives[i]);\n            _cases[caseNumber]._uintArrayCase[\"Alternatives\"].push(0);\n        }\n        \n        // checks if the information that is going to be stored is the same as the information entered into the function\n        for(uint i = 0; i < _alternatives.length; i++){\n            assert(keccak256(abi.encodePacked(_cases[caseNumber]._stringArrayCase[\"Alternatives\"][i+1])) == keccak256(abi.encodePacked(_alternatives[i])));\n            assert(_cases[caseNumber]._uintArrayCase[\"Alternatives\"][i+1] == 0);\n        }\n\n        assert(keccak256(abi.encodePacked(\n                    _cases[caseNumber]._stringCase[\"Title\"],\n                    _cases[caseNumber]._stringCase[\"Region\"],\n                    _cases[caseNumber]._uintCase[\"Deadline\"],\n                    _cases[caseNumber]._boolCase[\"open For Voting\"],\n                    //_cases[caseNumber]._uintCase[\"Total Votes\"],\n                    _cases[caseNumber]._stringArrayCase[\"Alternatives\"][0]\n                    // _cases[caseNumber]._uintArrayCase[\"Alternatives\"][0]\n                ))\n            ==\n            keccak256(abi.encodePacked(\n                    _title,\n                    _region,\n                    _deadline,\n                    false,\n                    //_totalVotes,\n                    \"Ikke Stemt\"\n                    // _totalVotes\n                ))\n        );\n        emit caseCreated(_cases[caseNumber]._stringCase[\"Title\"], _cases[caseNumber]._boolCase[\"Open For Voting\"]);\n        \n        publishForApproval(caseNumber);\n    }\n\n    function getCase(uint _caseNumber) public view returns(string memory _title, uint _deadline, uint _totalVotes, bool _openForVoting, string[] memory _alternatives, uint[] memory _num){\n        require(!_cases[_caseNumber]._boolCase[\"Case Deactivated\"], \"ERR9: This case has been deactivated\");\n        require(_caseNumber <= _uintStorage[\"caseNumber\"] && _caseNumber != 0, \"ERR10: Case does not exist\");\n        return (_cases[_caseNumber]._stringCase[\"Title\"],               _cases[_caseNumber]._uintCase[\"Deadline\"], \n                _cases[_caseNumber]._uintCase[\"Total Votes\"],           _cases[_caseNumber]._boolCase[\"Open For Voting\"], \n                _cases[_caseNumber]._stringArrayCase[\"Alternatives\"],   _cases[_caseNumber]._uintArrayCase[\"Alternatives\"]\n        );\n    }\n\n    // Problematisk  slette? Ligger p BC, s det gr vel ikke akkurat  gjre, bygge om til deactivate?\n    function deleteCase(uint _caseNumber) public onlyOwner {\n        require(!_cases[_caseNumber]._boolCase[\"Open For Voting\"]);\n\n        _cases[_caseNumber]._boolCase[\"Case Deactivated\"] = true;\n\n        emit caseDeleted(_cases[_caseNumber]._stringCase[\"Title\"], _cases[_caseNumber]._boolCase[\"Open For Voting\"]);\n   }\n\n//    function openVoting(uint256 _caseNumber) public onlyOwners(_caseNumber) {\n//         require(_cases[_caseNumber]._uintCase[\"Total Votes\"] > 0, \"Total Votes must be higher than 0\");\n//         _cases[_caseNumber]._boolCase[\"hasBeenApproved\"] = true;\n//         _cases[_caseNumber]._boolCase[\"Open For Voting\"] = true;\n//         emit votingOpened(_caseNumber, _cases[_caseNumber]._stringCase[\"title\"]);\n//    }\n   \n   function vote (uint256 _caseNumber, uint256 _optionVoted) public {\n        require(_cases[_caseNumber]._boolCase[\"Open For Voting\"], \"ERR7: Not Open For Voting Yet!\");  // Checks if the case is open for voting\n        require(_optionVoted <= _cases[_caseNumber]._uintArrayCase[\"Alternatives\"].length, \"ERR8: Pick an option that exists\");   // Checks that the option exists\n\n        if(_cases[_caseNumber]._boolCase[string(abi.encodePacked(msg.sender))]) { // Has voted\n            _cases[_caseNumber]._uintArrayCase[\"Alternatives\"][_cases[_caseNumber]._uintCase[string(abi.encodePacked(msg.sender))]] = \n                SafeMath.sub(_cases[_caseNumber]._uintArrayCase[\"Alternatives\"][_cases[_caseNumber]._uintCase[string(abi.encodePacked(msg.sender))]], 1); // SUBTRACT\n        } else { // Has not voted\n            _cases[_caseNumber]._boolCase[string(abi.encodePacked(msg.sender))] = true; // VOTING = TRUE\n            _cases[_caseNumber]._uintArrayCase[\"Alternatives\"][0] = SafeMath.sub(_cases[_caseNumber]._uintArrayCase[\"Alternatives\"][0], 1); // SUBTRACT\n        }\n        _cases[_caseNumber]._uintArrayCase[\"Alternatives\"][_optionVoted] = SafeMath.add(_cases[_caseNumber]._uintArrayCase[\"Alternatives\"][_optionVoted], 1); // ADD\n\n        uint256 oldVote = _cases[_caseNumber]._uintCase[string(abi.encodePacked(msg.sender))];\n        _cases[_caseNumber]._uintCase[string(abi.encodePacked(msg.sender))] = _optionVoted; // Map msg.sender => _optionVoted\n\n        assert(_optionVoted != oldVote); // vote has changed\n        assert(keccak256(abi.encodePacked( \n                    _cases[_caseNumber]._uintCase[string(abi.encodePacked(msg.sender))],\n                    _cases[_caseNumber]._boolCase[string(abi.encodePacked(msg.sender))]\n                ))\n            == keccak256(abi.encodePacked(\n                    _optionVoted,\n                    true\n                ))\n        );\n   }\n\n   function getAlternatives(uint256 _caseNumber) public view returns(string[] memory, uint256[] memory){\n        return (_cases[_caseNumber]._stringArrayCase[\"Alternatives\"], _cases[_caseNumber]._uintArrayCase[\"Alternatives\"]);\n   }\n\n   function getMyVote(uint256 _caseNumber) public view returns(string memory){\n      require(_caseNumber <= _uintStorage[\"caseNumber\"] && _caseNumber != 0, \"Case does not exist\");\n        return ( _cases[_caseNumber]._stringArrayCase[\"Alternatives\"][ _cases[_caseNumber]._uintCase[string(abi.encodePacked(msg.sender))] ] );\n   }\n}",
  "sourcePath": "/Users/alex/Library/Mobile Documents/com~apple~CloudDocs/UiA/DAT304V21 - Oppgave/ChainVote/BackEnd/contracts/Case.sol",
  "compiler": {
    "name": "solc",
    "version": "0.7.5+commit.eb77ed08.Emscripten.clang"
  },
  "schemaVersion": "3.3.4",
  "updatedAt": "2021-03-27T01:19:15.231Z",
  "networkType": "ethereum",
  "devdoc": {
    "kind": "dev",
    "methods": {},
    "version": 1
  },
  "userdoc": {
    "kind": "user",
    "methods": {},
    "version": 1
  }
}