{
  "contractName": "CaseTwo",
  "abi": [
    {
      "anonymous": false,
      "inputs": [
        {
          "indexed": false,
          "internalType": "string",
          "name": "cool",
          "type": "string"
        }
      ],
      "name": "casetwoemit",
      "type": "event"
    },
    {
      "inputs": [],
      "name": "verifyNewCase",
      "outputs": [],
      "stateMutability": "nonpayable",
      "type": "function"
    }
  ],
  "bytecode": "0x608060405234801561001057600080fd5b5061010d806100206000396000f3fe6080604052348015600f57600080fd5b506004361060285760003560e01c8063a64e0b1014602d575b600080fd5b60336035565b005b7f6b516bcf9f1a2463c777b882b5415c19bc9e5a3700093ab23293b9380103dc0560405160609060a8565b60405180910390a1565b6000607560048360c6565b91507f436f6f6c000000000000000000000000000000000000000000000000000000006000830152602082019050919050565b6000602082019050818103600083015260bf81606a565b9050919050565b60008282526020820190509291505056fea264697066735822122099d2a8884117181e8267f01e3b2216275501829429896c407bf40ab2065c675464736f6c63430007050033",
  "immutableReferences": {},
  "source": "// SPDX-License-Identifier: UNLICENSED\npragma solidity 0.7.5;\npragma abicoder v2;\n\n\ncontract CaseTwo {\n    event casetwoemit(string cool);\n    function verifyNewCase()public {\n            emit casetwoemit(\"Cool\");\n    }\n}",
  "sourcePath": "/Users/alex/Library/Mobile Documents/com~apple~CloudDocs/UiA/DAT304V21 - Oppgave/ChainVote/BackEnd/contracts/CaseTwo.sol",
  "compiler": {
    "name": "solc",
    "version": "0.7.5+commit.eb77ed08.Emscripten.clang"
  },
  "schemaVersion": "3.3.4",
  "updatedAt": "2021-04-20T14:09:32.590Z",
  "networkType": "ethereum",
  "devdoc": {
    "kind": "dev",
    "methods": {},
    "version": 1
  },
  "userdoc": {
    "kind": "user",
    "methods": {},
    "version": 1
  }
}