{
  "contractName": "Case",
  "abi": [
    {
      "inputs": [],
      "stateMutability": "nonpayable",
      "type": "constructor"
    },
    {
      "anonymous": false,
      "inputs": [
        {
          "indexed": false,
          "internalType": "uint256",
          "name": "_caseNumber",
          "type": "uint256"
        },
        {
          "indexed": false,
          "internalType": "uint256",
          "name": "_approvals",
          "type": "uint256"
        },
        {
          "indexed": false,
          "internalType": "address",
          "name": "_approver",
          "type": "address"
        }
      ],
      "name": "ApprovalReceived",
      "type": "event"
    },
    {
      "anonymous": false,
      "inputs": [
        {
          "indexed": false,
          "internalType": "uint256",
          "name": "_caseNumber",
          "type": "uint256"
        }
      ],
      "name": "CaseApproved",
      "type": "event"
    },
    {
      "anonymous": false,
      "inputs": [
        {
          "indexed": false,
          "internalType": "string",
          "name": "title",
          "type": "string"
        },
        {
          "indexed": false,
          "internalType": "uint256",
          "name": "_caseNumber",
          "type": "uint256"
        }
      ],
      "name": "SigningRequestCreated",
      "type": "event"
    },
    {
      "anonymous": false,
      "inputs": [
        {
          "indexed": false,
          "internalType": "string",
          "name": "title",
          "type": "string"
        },
        {
          "indexed": false,
          "internalType": "bool",
          "name": "openForVoting",
          "type": "bool"
        }
      ],
      "name": "caseCreated",
      "type": "event"
    },
    {
      "anonymous": false,
      "inputs": [
        {
          "indexed": false,
          "internalType": "string",
          "name": "title",
          "type": "string"
        },
        {
          "indexed": false,
          "internalType": "bool",
          "name": "openForVoting",
          "type": "bool"
        }
      ],
      "name": "caseDeleted",
      "type": "event"
    },
    {
      "anonymous": false,
      "inputs": [
        {
          "indexed": false,
          "internalType": "uint256",
          "name": "caseNumber",
          "type": "uint256"
        },
        {
          "indexed": false,
          "internalType": "string",
          "name": "title",
          "type": "string"
        }
      ],
      "name": "votingClosed",
      "type": "event"
    },
    {
      "anonymous": false,
      "inputs": [
        {
          "indexed": false,
          "internalType": "uint256",
          "name": "caseNumber",
          "type": "uint256"
        },
        {
          "indexed": false,
          "internalType": "string",
          "name": "title",
          "type": "string"
        }
      ],
      "name": "votingOpened",
      "type": "event"
    },
    {
      "inputs": [
        {
          "internalType": "uint256",
          "name": "_caseNumber",
          "type": "uint256"
        }
      ],
      "name": "getApproval",
      "outputs": [
        {
          "internalType": "uint256",
          "name": "",
          "type": "uint256"
        }
      ],
      "stateMutability": "view",
      "type": "function",
      "constant": true
    },
    {
      "inputs": [
        {
          "internalType": "string",
          "name": "_region",
          "type": "string"
        },
        {
          "internalType": "string",
          "name": "_userType",
          "type": "string"
        }
      ],
      "name": "createUser",
      "outputs": [],
      "stateMutability": "nonpayable",
      "type": "function"
    },
    {
      "inputs": [
        {
          "internalType": "string",
          "name": "_region",
          "type": "string"
        },
        {
          "internalType": "string",
          "name": "_userType",
          "type": "string"
        }
      ],
      "name": "getUserArrayLength",
      "outputs": [
        {
          "internalType": "uint256",
          "name": "",
          "type": "uint256"
        }
      ],
      "stateMutability": "view",
      "type": "function",
      "constant": true
    },
    {
      "inputs": [
        {
          "internalType": "uint256",
          "name": "_caseNumber",
          "type": "uint256"
        }
      ],
      "name": "approvalZ",
      "outputs": [],
      "stateMutability": "nonpayable",
      "type": "function"
    },
    {
      "inputs": [
        {
          "internalType": "uint256",
          "name": "_caseNumber",
          "type": "uint256"
        }
      ],
      "name": "getSigningRequestsZ",
      "outputs": [
        {
          "internalType": "string",
          "name": "",
          "type": "string"
        },
        {
          "internalType": "uint256",
          "name": "",
          "type": "uint256"
        }
      ],
      "stateMutability": "view",
      "type": "function",
      "constant": true
    },
    {
      "inputs": [
        {
          "internalType": "uint256",
          "name": "_caseNumber",
          "type": "uint256"
        }
      ],
      "name": "returnLimitApproval",
      "outputs": [
        {
          "internalType": "uint256",
          "name": "",
          "type": "uint256"
        }
      ],
      "stateMutability": "view",
      "type": "function",
      "constant": true
    },
    {
      "inputs": [
        {
          "internalType": "uint256",
          "name": "_caseNumber",
          "type": "uint256"
        }
      ],
      "name": "returnTotalVotes",
      "outputs": [
        {
          "internalType": "uint256",
          "name": "",
          "type": "uint256"
        }
      ],
      "stateMutability": "view",
      "type": "function",
      "constant": true
    },
    {
      "inputs": [
        {
          "internalType": "uint256",
          "name": "_caseNumber",
          "type": "uint256"
        }
      ],
      "name": "getApprovalZ",
      "outputs": [
        {
          "internalType": "uint256",
          "name": "",
          "type": "uint256"
        }
      ],
      "stateMutability": "view",
      "type": "function",
      "constant": true
    },
    {
      "inputs": [
        {
          "internalType": "string",
          "name": "_title",
          "type": "string"
        },
        {
          "internalType": "uint256",
          "name": "_deadline",
          "type": "uint256"
        },
        {
          "internalType": "string[]",
          "name": "_alternatives",
          "type": "string[]"
        }
      ],
      "name": "createCase",
      "outputs": [],
      "stateMutability": "nonpayable",
      "type": "function"
    },
    {
      "inputs": [
        {
          "internalType": "uint256",
          "name": "_caseNumber",
          "type": "uint256"
        }
      ],
      "name": "getCase",
      "outputs": [
        {
          "internalType": "string",
          "name": "_title",
          "type": "string"
        },
        {
          "internalType": "uint256",
          "name": "_deadline",
          "type": "uint256"
        },
        {
          "internalType": "uint256",
          "name": "_totalVotes",
          "type": "uint256"
        },
        {
          "internalType": "bool",
          "name": "_openForVoting",
          "type": "bool"
        },
        {
          "internalType": "string[]",
          "name": "_alternatives",
          "type": "string[]"
        },
        {
          "internalType": "uint256[]",
          "name": "_num",
          "type": "uint256[]"
        }
      ],
      "stateMutability": "view",
      "type": "function",
      "constant": true
    },
    {
      "inputs": [
        {
          "internalType": "uint256",
          "name": "_caseNumber",
          "type": "uint256"
        }
      ],
      "name": "deleteCase",
      "outputs": [],
      "stateMutability": "nonpayable",
      "type": "function"
    },
    {
      "inputs": [
        {
          "internalType": "uint256",
          "name": "_caseNumber",
          "type": "uint256"
        },
        {
          "internalType": "uint256",
          "name": "_optionVoted",
          "type": "uint256"
        }
      ],
      "name": "vote",
      "outputs": [],
      "stateMutability": "nonpayable",
      "type": "function"
    },
    {
      "inputs": [
        {
          "internalType": "uint256",
          "name": "_caseNumber",
          "type": "uint256"
        }
      ],
      "name": "getAlternatives",
      "outputs": [
        {
          "internalType": "string[]",
          "name": "",
          "type": "string[]"
        },
        {
          "internalType": "uint256[]",
          "name": "",
          "type": "uint256[]"
        }
      ],
      "stateMutability": "view",
      "type": "function",
      "constant": true
    },
    {
      "inputs": [
        {
          "internalType": "uint256",
          "name": "_caseNumber",
          "type": "uint256"
        }
      ],
      "name": "getMyVote",
      "outputs": [
        {
          "internalType": "string",
          "name": "",
          "type": "string"
        }
      ],
      "stateMutability": "view",
      "type": "function",
      "constant": true
    }
  ],
  "bytecode": "0x60806040523480156200001157600080fd5b5033600560405180807f6f776e65720000000000000000000000000000000000000000000000000000008152506005019050908152602001604051809103902060006101000a81548173ffffffffffffffffffffffffffffffffffffffff021916908373ffffffffffffffffffffffffffffffffffffffff160217905550620000a033620000a660201b60201c565b620002de565b6006604051620000b69062000289565b908152602001604051809103902060009054906101000a900460ff161562000115576040517f08c379a00000000000000000000000000000000000000000000000000000000081526004016200010c90620002a0565b60405180910390fd5b806005604051620001269062000272565b908152602001604051809103902060006101000a81548173ffffffffffffffffffffffffffffffffffffffff021916908373ffffffffffffffffffffffffffffffffffffffff16021790555060016006604051620001849062000289565b908152602001604051809103902060006101000a81548160ff02191690831515021790555050565b6000620001bb600583620002d3565b91507f6f776e65720000000000000000000000000000000000000000000000000000006000830152600582019050919050565b6000620001fd601183620002c2565b91507f455252363a20696e697469616c697a65640000000000000000000000000000006000830152602082019050919050565b60006200023f600b83620002d3565b91507f696e697469616c697a65640000000000000000000000000000000000000000006000830152600b82019050919050565b60006200027f82620001ac565b9150819050919050565b6000620002968262000230565b9150819050919050565b60006020820190508181036000830152620002bb81620001ee565b9050919050565b600082825260208201905092915050565b600081905092915050565b61464d80620002ee6000396000f3fe608060405234801561001057600080fd5b50600436106100ea5760003560e01c8063b384abef1161008c578063d7ec1d4b11610066578063d7ec1d4b14610271578063efeab0d2146102a2578063f658518a146102d2578063f76b404914610302576100ea565b8063b384abef1461021d578063be1032e114610239578063d590bf4914610255576100ea565b8063865148c6116100c8578063865148c61461018057806387b162b5146101b0578063a1c49c17146101cc578063a91a1080146101e8576100ea565b80630d0c0980146100ef578063256d75661461011f5780635b962d5514610150575b600080fd5b610109600480360381019061010491906131db565b610332565b60405161011691906142e2565b60405180910390f35b610139600480360381019061013491906131db565b610344565b604051610147929190614023565b60405180910390f35b61016a600480360381019061016591906131db565b6104e5565b60405161017791906142e2565b60405180910390f35b61019a600480360381019061019591906130f0565b61051f565b6040516101a791906142e2565b60405180910390f35b6101ca60048036038101906101c591906130f0565b61056c565b005b6101e660048036038101906101e1919061315c565b6106f2565b005b61020260048036038101906101fd91906131db565b61119c565b604051610214969594939291906140ac565b60405180910390f35b61023760048036038101906102329190613204565b6115a6565b005b610253600480360381019061024e91906131db565b611ba0565b005b61026f600480360381019061026a91906131db565b611bac565b005b61028b600480360381019061028691906131db565b611d7b565b60405161029992919061407c565b60405180910390f35b6102bc60048036038101906102b791906131db565b611d91565b6040516102c991906142e2565b60405180910390f35b6102ec60048036038101906102e791906131db565b611dcb565b6040516102f991906142e2565b60405180910390f35b61031c600480360381019061031791906131db565b611e05565b604051610329919061405a565b60405180910390f35b600061033d82611dcb565b9050919050565b6060806008600084815260200190815260200160002060030160405161036990613fa3565b90815260200160405180910390206008600085815260200190815260200160002060010160405161039990613fa3565b908152602001604051809103902081805480602002602001604051908101604052809291908181526020016000905b82821015610484578382906000526020600020018054600181600116156101000203166002900480601f0160208091040260200160405190810160405280929190818152602001828054600181600116156101000203166002900480156104705780601f1061044557610100808354040283529160200191610470565b820191906000526020600020905b81548152906001019060200180831161045357829003601f168201915b5050505050815260200190600101906103c8565b505050509150808054806020026020016040519081016040528092919081815260200182805480156104d557602002820191906000526020600020905b8154815260200190600101908083116104c1575b5050505050905091509150915091565b60006008600083815260200190815260200160002060000160405161050990613f8e565b9081526020016040518091039020549050919050565b600060048383604051602001610536929190613d7d565b6040516020818303038152906040526040516105529190613d66565b908152602001604051809103902080549050905092915050565b81600960003373ffffffffffffffffffffffffffffffffffffffff1673ffffffffffffffffffffffffffffffffffffffff1681526020019081526020016000206002016040516105bb90613efb565b908152602001604051809103902090805190602001906105dc929190612f68565b5080600960003373ffffffffffffffffffffffffffffffffffffffff1673ffffffffffffffffffffffffffffffffffffffff16815260200190815260200160002060020160405161062c90613f3a565b9081526020016040518091039020908051906020019061064d929190612f68565b5060048282604051602001610663929190613d7d565b60405160208183030381529060405260405161067f9190613d66565b9081526020016040518091039020339080600181540180825580915050600190039060005260206000200160009091909190916101000a81548173ffffffffffffffffffffffffffffffffffffffff021916908373ffffffffffffffffffffffffffffffffffffffff1602179055505050565b6106fa611fa9565b610739576040517f08c379a000000000000000000000000000000000000000000000000000000000815260040161073090614202565b60405180910390fd5b610760600060405161074a90613f10565b9081526020016040518091039020546001612156565b600060405161076e90613f10565b90815260200160405180910390208190555060008060405161078f90613f10565b90815260200160405180910390205490506060600960003373ffffffffffffffffffffffffffffffffffffffff1673ffffffffffffffffffffffffffffffffffffffff1681526020019081526020016000206002016040516107f090613efb565b90815260200160405180910390208054600181600116156101000203166002900480601f0160208091040260200160405190810160405280929190818152602001828054600181600116156101000203166002900480156108925780601f1061086757610100808354040283529160200191610892565b820191906000526020600020905b81548152906001019060200180831161087557829003601f168201915b5050505050905084600860008481526020019081526020016000206002016040516108bc90613f25565b908152602001604051809103902090805190602001906108dd929190612f68565b50806008600084815260200190815260200160002060020160405161090190613efb565b90815260200160405180910390209080519060200190610922929190612f68565b5061099561098e61098761098060048561093a6121de565b60405160200161094b929190613d7d565b6040516020818303038152906040526040516109679190613d66565b908152602001604051809103902080549050600a61240d565b6002612493565b6005612156565b600a612493565b600860008481526020019081526020016000206000016040516109b790613fb8565b9081526020016040518091039020819055506004816040516020016109dc9190613e14565b6040516020818303038152906040526040516109f89190613d66565b90815260200160405180910390208054905060086000848152602001908152602001600020600001604051610a2c90613f8e565b908152602001604051809103902081905550600481604051602001610a519190613df2565b604051602081830303815290604052604051610a6d9190613d66565b90815260200160405180910390208054905060086000848152602001908152602001600020600001604051610aa190613f8e565b908152602001604051809103902060008282540192505081905550600481604051602001610acf9190613e36565b604051602081830303815290604052604051610aeb9190613d66565b90815260200160405180910390208054905060086000848152602001908152602001600020600001604051610b1f90613f8e565b9081526020016040518091039020600082825401925050819055508360086000848152602001908152602001600020600001604051610b5d90613fe2565b908152602001604051809103902081905550600060086000848152602001908152602001600020600401604051610b9390613ee6565b908152602001604051809103902060006101000a81548160ff021916908315150217905550600060086000848152602001908152602001600020600401604051610bdc90613f64565b908152602001604051809103902060006101000a81548160ff02191690831515021790555060086000838152602001908152602001600020600301604051610c2390613fa3565b908152602001604051809103902080600181540180825580915050600190039060005260206000200160006040518060400160405280600a81526020017f496b6b65205374656d740000000000000000000000000000000000000000000081525090919091509080519060200190610c9c929190612f68565b5060086000838152602001908152602001600020600101604051610cbf90613fa3565b908152602001604051809103902060086000848152602001908152602001600020600001604051610cef90613f8e565b908152602001604051809103902054908060018154018082558091505060019003906000526020600020016000909190919091505560005b8351811015610e125760086000848152602001908152602001600020600301604051610d5290613fa3565b9081526020016040518091039020848281518110610d6c57fe5b6020026020010151908060018154018082558091505060019003906000526020600020016000909190919091509080519060200190610dac929190612f68565b5060086000848152602001908152602001600020600101604051610dcf90613fa3565b9081526020016040518091039020600090806001815401808255809150506001900390600052602060002001600090919091909150558080600101915050610d27565b5060005b8351811015610f2d57838181518110610e2b57fe5b6020026020010151604051602001610e439190613d66565b6040516020818303038152906040528051906020012060086000858152602001908152602001600020600301604051610e7b90613fa3565b90815260200160405180910390206001830181548110610e9757fe5b90600052602060002001604051602001610eb19190613e58565b6040516020818303038152906040528051906020012014610ece57fe5b600060086000858152602001908152602001600020600101604051610ef290613fa3565b90815260200160405180910390206001830181548110610f0e57fe5b906000526020600020015414610f2057fe5b8080600101915050610e16565b508481856000604051602001610f469493929190613da1565b6040516020818303038152906040528051906020012060086000848152602001908152602001600020600201604051610f7e90613f25565b908152602001604051809103902060086000858152602001908152602001600020600201604051610fae90613efb565b908152602001604051809103902060086000868152602001908152602001600020600001604051610fde90613fe2565b9081526020016040518091039020546008600087815260200190815260200160002060040160405161100f90613ee6565b908152602001604051809103902060009054906101000a900460ff166008600088815260200190815260200160002060030160405161104d90613fa3565b908152602001604051809103902060008154811061106757fe5b90600052602060002001604051602001611085959493929190613e93565b60405160208183030381529060405280519060200120146110a257fe5b60006002600860008581526020019081526020016000206000016040516110c890613fb8565b908152602001604051809103902054816110de57fe5b0614156110e757fe5b7f397bd7bf3071967480966f6a0dbc085b8c14d5fa5e0fae7e9aec4d4f5edba2826008600084815260200190815260200160002060020160405161112a90613f25565b90815260200160405180910390206008600085815260200190815260200160002060040160405161115a90613f4f565b908152602001604051809103902060009054906101000a900460ff16604051611184929190614122565b60405180910390a1611195826124dd565b5050505050565b60606000806000606080600860008881526020019081526020016000206004016040516111c890613f64565b908152602001604051809103902060009054906101000a900460ff1615611224576040517f08c379a000000000000000000000000000000000000000000000000000000000815260040161121b90614182565b60405180910390fd5b600060405161123290613f10565b9081526020016040518091039020548711158015611251575060008714155b611290576040517f08c379a0000000000000000000000000000000000000000000000000000000008152600401611287906141e2565b60405180910390fd5b600860008881526020019081526020016000206002016040516112b290613f25565b9081526020016040518091039020600860008981526020019081526020016000206000016040516112e290613fe2565b908152602001604051809103902054600860008a815260200190815260200160002060000160405161131390613f8e565b908152602001604051809103902054600860008b815260200190815260200160002060040160405161134490613f4f565b908152602001604051809103902060009054906101000a900460ff16600860008c815260200190815260200160002060030160405161138290613fa3565b9081526020016040518091039020600860008d81526020019081526020016000206001016040516113b290613fa3565b9081526020016040518091039020858054600181600116156101000203166002900480601f0160208091040260200160405190810160405280929190818152602001828054600181600116156101000203166002900480156114555780601f1061142a57610100808354040283529160200191611455565b820191906000526020600020905b81548152906001019060200180831161143857829003601f168201915b5050505050955081805480602002602001604051908101604052809291908181526020016000905b82821015611539578382906000526020600020018054600181600116156101000203166002900480601f0160208091040260200160405190810160405280929190818152602001828054600181600116156101000203166002900480156115255780601f106114fa57610100808354040283529160200191611525565b820191906000526020600020905b81548152906001019060200180831161150857829003601f168201915b50505050508152602001906001019061147d565b5050505091508080548060200260200160405190810160405280929190818152602001828054801561158a57602002820191906000526020600020905b815481526020019060010190808311611576575b5050505050905095509550955095509550955091939550919395565b600860008381526020019081526020016000206004016040516115c890613f4f565b908152602001604051809103902060009054906101000a900460ff16611623576040517f08c379a000000000000000000000000000000000000000000000000000000000815260040161161a90614282565b60405180910390fd5b6008600083815260200190815260200160002060010160405161164590613fa3565b908152602001604051809103902080549050811115611699576040517f08c379a0000000000000000000000000000000000000000000000000000000008152600401611690906141a2565b60405180910390fd5b60086000838152602001908152602001600020600401336040516020016116c09190613d34565b6040516020818303038152906040526040516116dc9190613d66565b908152602001604051809103902060009054906101000a900460ff161561183d5761179e6008600084815260200190815260200160002060010160405161172290613fa3565b908152602001604051809103902060086000858152602001908152602001600020600001336040516020016117579190613d34565b6040516020818303038152906040526040516117739190613d66565b9081526020016040518091039020548154811061178c57fe5b90600052602060002001546001612780565b600860008481526020019081526020016000206001016040516117c090613fa3565b908152602001604051809103902060086000858152602001908152602001600020600001336040516020016117f59190613d34565b6040516020818303038152906040526040516118119190613d66565b9081526020016040518091039020548154811061182a57fe5b9060005260206000200181905550611943565b600160086000848152602001908152602001600020600401336040516020016118669190613d34565b6040516020818303038152906040526040516118829190613d66565b908152602001604051809103902060006101000a81548160ff0219169083151502179055506118f8600860008481526020019081526020016000206001016040516118cc90613fa3565b90815260200160405180910390206000815481106118e657fe5b90600052602060002001546001612780565b6008600084815260200190815260200160002060010160405161191a90613fa3565b908152602001604051809103902060008154811061193457fe5b90600052602060002001819055505b6119936008600084815260200190815260200160002060010160405161196890613fa3565b9081526020016040518091039020828154811061198157fe5b90600052602060002001546001612156565b600860008481526020019081526020016000206001016040516119b590613fa3565b908152602001604051809103902082815481106119ce57fe5b906000526020600020018190555060006008600084815260200190815260200160002060000133604051602001611a059190613d34565b604051602081830303815290604052604051611a219190613d66565b9081526020016040518091039020549050816008600085815260200190815260200160002060000133604051602001611a5a9190613d34565b604051602081830303815290604052604051611a769190613d66565b90815260200160405180910390208190555080821415611a9257fe5b816001604051602001611aa6929190613ff7565b604051602081830303815290604052805190602001206008600085815260200190815260200160002060000133604051602001611ae39190613d34565b604051602081830303815290604052604051611aff9190613d66565b9081526020016040518091039020546008600086815260200190815260200160002060040133604051602001611b359190613d34565b604051602081830303815290604052604051611b519190613d66565b908152602001604051809103902060009054906101000a900460ff16604051602001611b7e929190613ff7565b6040516020818303038152906040528051906020012014611b9b57fe5b505050565b611ba9816127ca565b50565b600560405180807f6f776e65720000000000000000000000000000000000000000000000000000008152506005019050908152602001604051809103902060009054906101000a900473ffffffffffffffffffffffffffffffffffffffff1673ffffffffffffffffffffffffffffffffffffffff163373ffffffffffffffffffffffffffffffffffffffff1614611c4257600080fd5b60086000828152602001908152602001600020600401604051611c6490613f4f565b908152602001604051809103902060009054906101000a900460ff1615611c8a57600080fd5b600160086000838152602001908152602001600020600401604051611cae90613f64565b908152602001604051809103902060006101000a81548160ff0219169083151502179055507f89a70fe1536f6bbb141a4c96d2517714f4b156b768ffeed8bf5d97570b76e05460086000838152602001908152602001600020600201604051611d1690613f25565b908152602001604051809103902060086000848152602001908152602001600020600401604051611d4690613f4f565b908152602001604051809103902060009054906101000a900460ff16604051611d70929190614122565b60405180910390a150565b60606000611d8883612d1d565b91509150915091565b600060086000838152602001908152602001600020600001604051611db590613fb8565b9081526020016040518091039020549050919050565b600060086000838152602001908152602001600020600001604051611def90613fcd565b9081526020016040518091039020549050919050565b60606000604051611e1590613f10565b9081526020016040518091039020548211158015611e34575060008214155b611e73576040517f08c379a0000000000000000000000000000000000000000000000000000000008152600401611e6a90614262565b60405180910390fd5b60086000838152602001908152602001600020600301604051611e9590613fa3565b90815260200160405180910390206008600084815260200190815260200160002060000133604051602001611eca9190613d34565b604051602081830303815290604052604051611ee69190613d66565b90815260200160405180910390205481548110611eff57fe5b906000526020600020018054600181600116156101000203166002900480601f016020809104026020016040519081016040528092919081815260200182805460018160011615610100020316600290048015611f9d5780601f10611f7257610100808354040283529160200191611f9d565b820191906000526020600020905b815481529060010190602001808311611f8057829003601f168201915b50505050509050919050565b60006040518060400160405280600881526020017f526567696f6e616c00000000000000000000000000000000000000000000000081525080519060200120600960003373ffffffffffffffffffffffffffffffffffffffff1673ffffffffffffffffffffffffffffffffffffffff16815260200190815260200160002060020160405161203690613f3a565b90815260200160405180910390206040516120519190613d4f565b6040518091039020148061211057506040518060400160405280600881526020017f4e6174696f6e616c00000000000000000000000000000000000000000000000081525080519060200120600960003373ffffffffffffffffffffffffffffffffffffffff1673ffffffffffffffffffffffffffffffffffffffff1681526020019081526020016000206002016040516120eb90613f3a565b90815260200160405180910390206040516121069190613d4f565b6040518091039020145b61214f576040517f08c379a000000000000000000000000000000000000000000000000000000000815260040161214690614222565b60405180910390fd5b6001905090565b6000808284019050838110156121d4576040517f08c379a000000000000000000000000000000000000000000000000000000000815260040180806020018281038252601b8152602001807f536166654d6174683a206164646974696f6e206f766572666c6f77000000000081525060200191505060405180910390fd5b8091505092915050565b60606121e8611fa9565b612227576040517f08c379a000000000000000000000000000000000000000000000000000000000815260040161221e906142a2565b60405180910390fd5b6040518060400160405280600881526020017f526567696f6e616c00000000000000000000000000000000000000000000000081525080519060200120600960003373ffffffffffffffffffffffffffffffffffffffff1673ffffffffffffffffffffffffffffffffffffffff1681526020019081526020016000206002016040516122b290613f3a565b90815260200160405180910390206040516122cd9190613d4f565b60405180910390201415612318576040518060400160405280600881526020017f526567696f6e616c000000000000000000000000000000000000000000000000815250905061240a565b6040518060400160405280600881526020017f4e6174696f6e616c00000000000000000000000000000000000000000000000081525080519060200120600960003373ffffffffffffffffffffffffffffffffffffffff1673ffffffffffffffffffffffffffffffffffffffff1681526020019081526020016000206002016040516123a390613f3a565b90815260200160405180910390206040516123be9190613d4f565b60405180910390201415612409576040518060400160405280600881526020017f4e6174696f6e616c000000000000000000000000000000000000000000000000815250905061240a565b5b90565b600080831415612420576000905061248d565b600082840290508284828161243157fe5b0414612488576040517f08c379a00000000000000000000000000000000000000000000000000000000081526004018080602001828103825260218152602001806145f76021913960400191505060405180910390fd5b809150505b92915050565b60006124d583836040518060400160405280601a81526020017f536166654d6174683a206469766973696f6e206279207a65726f000000000000815250612de2565b905092915050565b806000805b60046008600085815260200190815260200160002060020160405161250690613efb565b908152602001604051809103902061251c6121de565b60405160200161252d929190613e6f565b6040516020818303038152906040526040516125499190613d66565b908152602001604051809103902080549050811015612652573373ffffffffffffffffffffffffffffffffffffffff1660046008600086815260200190815260200160002060020160405161259d90613efb565b90815260200160405180910390206125b36121de565b6040516020016125c4929190613e6f565b6040516020818303038152906040526040516125e09190613d66565b908152602001604051809103902082815481106125f957fe5b9060005260206000200160009054906101000a900473ffffffffffffffffffffffffffffffffffffffff1673ffffffffffffffffffffffffffffffffffffffff16141561264557600191505b80806001019150506124e2565b50600115158115151461269a576040517f08c379a0000000000000000000000000000000000000000000000000000000008152600401612691906141c2565b60405180910390fd5b6000600860008581526020019081526020016000206000016040516126be90613fcd565b90815260200160405180910390208190555060016040516126de90613f79565b90815260200160405180910390208390806001815401808255809150506001900390600052602060002001600090919091909150557f9ebb3c03561c733b59a512566b5b18ec5796fdc6ed05edf321d587eb807185866008600085815260200190815260200160002060020160405161275690613f25565b908152602001604051809103902084604051612773929190614152565b60405180910390a1505050565b60006127c283836040518060400160405280601e81526020017f536166654d6174683a207375627472616374696f6e206f766572666c6f770000815250612ea8565b905092915050565b806000805b6004600860008581526020019081526020016000206002016040516127f390613efb565b90815260200160405180910390206128096121de565b60405160200161281a929190613e6f565b6040516020818303038152906040526040516128369190613d66565b90815260200160405180910390208054905081101561293f573373ffffffffffffffffffffffffffffffffffffffff1660046008600086815260200190815260200160002060020160405161288a90613efb565b90815260200160405180910390206128a06121de565b6040516020016128b1929190613e6f565b6040516020818303038152906040526040516128cd9190613d66565b908152602001604051809103902082815481106128e657fe5b9060005260206000200160009054906101000a900473ffffffffffffffffffffffffffffffffffffffff1673ffffffffffffffffffffffffffffffffffffffff16141561293257600191505b80806001019150506127cf565b506001151581151514612987576040517f08c379a000000000000000000000000000000000000000000000000000000000815260040161297e906141c2565b60405180910390fd5b6000151560086000858152602001908152602001600020600401336040516020016129b29190613d34565b6040516020818303038152906040526040516129ce9190613d66565b908152602001604051809103902060009054906101000a900460ff16151514612a2c576040517f08c379a0000000000000000000000000000000000000000000000000000000008152600401612a2390614242565b60405180910390fd5b6000151560086000858152602001908152602001600020600401604051612a5290613f4f565b908152602001604051809103902060009054906101000a900460ff16151514612ab0576040517f08c379a0000000000000000000000000000000000000000000000000000000008152600401612aa7906142c2565b60405180910390fd5b60016008600085815260200190815260200160002060040133604051602001612ad99190613d34565b604051602081830303815290604052604051612af59190613d66565b908152602001604051809103902060006101000a81548160ff021916908315150217905550600160086000858152602001908152602001600020600001604051612b3e90613fcd565b9081526020016040518091039020600082825401925050819055507ffec9d12d15ee8c8b836a58347cb0d4980db38411bcd0b83662cee48fb20b6dee8360086000868152602001908152602001600020600001604051612b9d90613fcd565b90815260200160405180910390205433604051612bbc939291906142fd565b60405180910390a160086000848152602001908152602001600020600001604051612be690613fb8565b90815260200160405180910390205460086000858152602001908152602001600020600001604051612c1790613fcd565b90815260200160405180910390205410612cac57600160086000858152602001908152602001600020600401604051612c4f90613f4f565b908152602001604051809103902060006101000a81548160ff0219169083151502179055507f7154413448c2c174ae1fa459442e8775c138d15526ccd5e537576d6f5e9fd65683604051612ca391906142e2565b60405180910390a15b600115156008600085815260200190815260200160002060040133604051602001612cd79190613d34565b604051602081830303815290604052604051612cf39190613d66565b908152602001604051809103902060009054906101000a900460ff16151514612d1857fe5b505050565b6060600080606460086000868152602001908152602001600020600001604051612d4690613fcd565b9081526020016040518091039020540290506000606460086000878152602001908152602001600020600001604051612d7e90613f8e565b9081526020016040518091039020540290506000818381612d9b57fe5b049050806040518060400160405280601381526020017f50657263656e74207369676e65642825293a20000000000000000000000000008152509094509450505050915091565b60008083118290612e8e576040517f08c379a00000000000000000000000000000000000000000000000000000000081526004018080602001828103825283818151815260200191508051906020019080838360005b83811015612e53578082015181840152602081019050612e38565b50505050905090810190601f168015612e805780820380516001836020036101000a031916815260200191505b509250505060405180910390fd5b506000838581612e9a57fe5b049050809150509392505050565b6000838311158290612f55576040517f08c379a00000000000000000000000000000000000000000000000000000000081526004018080602001828103825283818151815260200191508051906020019080838360005b83811015612f1a578082015181840152602081019050612eff565b50505050905090810190601f168015612f475780820380516001836020036101000a031916815260200191505b509250505060405180910390fd5b5060008385039050809150509392505050565b828054600181600116156101000203166002900490600052602060002090601f016020900481019282612f9e5760008555612fe5565b82601f10612fb757805160ff1916838001178555612fe5565b82800160010185558215612fe5579182015b82811115612fe4578251825591602001919060010190612fc9565b5b509050612ff29190612ff6565b5090565b5b8082111561300f576000816000905550600101612ff7565b5090565b600082601f83011261302457600080fd5b813561303761303282614365565b614334565b9150818183526020840193506020810190508360005b8381101561307d57813586016130638882613087565b84526020840193506020830192505060018101905061304d565b5050505092915050565b600082601f83011261309857600080fd5b81356130ab6130a682614391565b614334565b915080825260208301602083018583830111156130c757600080fd5b6130d283828461451e565b50505092915050565b6000813590506130ea816145df565b92915050565b6000806040838503121561310357600080fd5b600083013567ffffffffffffffff81111561311d57600080fd5b61312985828601613087565b925050602083013567ffffffffffffffff81111561314657600080fd5b61315285828601613087565b9150509250929050565b60008060006060848603121561317157600080fd5b600084013567ffffffffffffffff81111561318b57600080fd5b61319786828701613087565b93505060206131a8868287016130db565b925050604084013567ffffffffffffffff8111156131c557600080fd5b6131d186828701613013565b9150509250925092565b6000602082840312156131ed57600080fd5b60006131fb848285016130db565b91505092915050565b6000806040838503121561321757600080fd5b6000613225858286016130db565b9250506020613236858286016130db565b9150509250929050565b600061324c8383613419565b905092915050565b60006132608383613cff565b60208301905092915050565b613275816144e8565b82525050565b61328c613287826144a0565b614560565b82525050565b600061329d8261440b565b6132a78185614446565b9350836020820285016132b9856143c1565b8060005b858110156132f557848403895281516132d68582613240565b94506132e18361442c565b925060208a019950506001810190506132bd565b50829750879550505050505092915050565b600061331282614416565b61331c8185614457565b9350613327836143d1565b8060005b8381101561335857815161333f8882613254565b975061334a83614439565b92505060018101905061332b565b5085935050505092915050565b61336e816144b2565b82525050565b613385613380826144b2565b614572565b82525050565b6000815460018116600081146133a857600181146133cd57613411565b607f60028304166133b98187614468565b955060ff1983168652808601935050613411565b600282046133db8187614468565b95506133e6856143e1565b60005b82811015613408578154818901526001820191506020810190506133e9565b82880195505050505b505092915050565b600061342482614421565b61342e8185614473565b935061343e81856020860161452d565b613447816145b4565b840191505092915050565b600061345d82614421565b6134678185614484565b935061347781856020860161452d565b613480816145b4565b840191505092915050565b600061349682614421565b6134a08185614495565b93506134b081856020860161452d565b80840191505092915050565b6000815460018116600081146134d957600181146134ff57613543565b607f60028304166134ea8187614484565b955060ff198316865260208601935050613543565b6002820461350d8187614484565b9550613518856143f6565b60005b8281101561353a5781548189015260018201915060208101905061351b565b80880195505050505b505092915050565b600081546001811660008114613568576001811461358d576135d1565b607f60028304166135798187614495565b955060ff19831686528086019350506135d1565b6002820461359b8187614495565b95506135a6856143f6565b60005b828110156135c8578154818901526001820191506020810190506135a9565b82880195505050505b505092915050565b60006135e6600f83614495565b91507f6f70656e20466f7220566f74696e6700000000000000000000000000000000006000830152600f82019050919050565b6000613626602483614484565b91507f455252393a2054686973206361736520686173206265656e206465616374697660008301527f61746564000000000000000000000000000000000000000000000000000000006020830152604082019050919050565b600061368c602083614484565b91507f455252383a205069636b20616e206f7074696f6e2074686174206578697374736000830152602082019050919050565b60006136cc600683614495565b91507f526567696f6e00000000000000000000000000000000000000000000000000006000830152600682019050919050565b600061370c601383614484565b91507f455252353a205369676e6572203d2074727565000000000000000000000000006000830152602082019050919050565b600061374c601a83614484565b91507f45525231303a204361736520646f6573206e6f742065786973740000000000006000830152602082019050919050565b600061378c600a83614495565b91507f636173654e756d626572000000000000000000000000000000000000000000006000830152600a82019050919050565b60006137cc600583614495565b91507f5469746c650000000000000000000000000000000000000000000000000000006000830152600582019050919050565b600061380c600983614495565b91507f55736572205479706500000000000000000000000000000000000000000000006000830152600982019050919050565b600061384c600883614495565b91507f526567696f6e616c0000000000000000000000000000000000000000000000006000830152600882019050919050565b600061388c601e83614484565b91507f455252313a204e6f7420526567696f6e616c206f72204e6174696f6e616c00006000830152602082019050919050565b60006138cc601883614484565b91507f455252343a205265717569726520526567204f52204e617400000000000000006000830152602082019050919050565b600061390c601983614484565b91507f45525231323a206d73672e73656e646572203d2066616c7365000000000000006000830152602082019050919050565b600061394c600883614495565b91507f5374616e646172640000000000000000000000000000000000000000000000006000830152600882019050919050565b600061398c600f83614495565b91507f4f70656e20466f7220566f74696e6700000000000000000000000000000000006000830152600f82019050919050565b60006139cc601083614495565b91507f43617365204465616374697661746564000000000000000000000000000000006000830152601082019050919050565b6000613a0c601383614484565b91507f4361736520646f6573206e6f74206578697374000000000000000000000000006000830152602082019050919050565b6000613a4c601283614495565b91507f57616974696e67466f72417070726f76616c00000000000000000000000000006000830152601282019050919050565b6000613a8c600b83614495565b91507f546f74616c20566f7465730000000000000000000000000000000000000000006000830152600b82019050919050565b6000613acc601e83614484565b91507f455252373a204e6f74204f70656e20466f7220566f74696e67205965742100006000830152602082019050919050565b6000613b0c600c83614495565b91507f416c7465726e61746976657300000000000000000000000000000000000000006000830152600c82019050919050565b6000613b4c600a83614495565b91507f496b6b65205374656d74000000000000000000000000000000000000000000006000830152600a82019050919050565b6000613b8c601783614484565b91507f455252333a20636865636b5573657254797065426f6f6c0000000000000000006000830152602082019050919050565b6000613bcc600583614495565b91507f4c696d69740000000000000000000000000000000000000000000000000000006000830152600582019050919050565b6000613c0c600983614495565b91507f417070726f76616c7300000000000000000000000000000000000000000000006000830152600982019050919050565b6000613c4c600883614495565b91507f446561646c696e650000000000000000000000000000000000000000000000006000830152600882019050919050565b6000613c8c600883614495565b91507f4e6174696f6e616c0000000000000000000000000000000000000000000000006000830152600882019050919050565b6000613ccc601583614484565b91507f45525231333a206f70656e203d2066616c7365205800000000000000000000006000830152602082019050919050565b613d08816144de565b82525050565b613d17816144de565b82525050565b613d2e613d29826144de565b614596565b82525050565b6000613d40828461327b565b60148201915081905092915050565b6000613d5b828461338b565b915081905092915050565b6000613d72828461348b565b915081905092915050565b6000613d89828561348b565b9150613d95828461348b565b91508190509392505050565b6000613dad828761348b565b9150613db9828661348b565b9150613dc58285613d1d565b602082019150613dd58284613374565b600182019150613de482613b3f565b915081905095945050505050565b6000613dfe828461348b565b9150613e098261383f565b915081905092915050565b6000613e20828461348b565b9150613e2b8261393f565b915081905092915050565b6000613e42828461348b565b9150613e4d82613c7f565b915081905092915050565b6000613e64828461354b565b915081905092915050565b6000613e7b828561354b565b9150613e87828461348b565b91508190509392505050565b6000613e9f828861354b565b9150613eab828761354b565b9150613eb78286613d1d565b602082019150613ec78285613374565b600182019150613ed7828461354b565b91508190509695505050505050565b6000613ef1826135d9565b9150819050919050565b6000613f06826136bf565b9150819050919050565b6000613f1b8261377f565b9150819050919050565b6000613f30826137bf565b9150819050919050565b6000613f45826137ff565b9150819050919050565b6000613f5a8261397f565b9150819050919050565b6000613f6f826139bf565b9150819050919050565b6000613f8482613a3f565b9150819050919050565b6000613f9982613a7f565b9150819050919050565b6000613fae82613aff565b9150819050919050565b6000613fc382613bbf565b9150819050919050565b6000613fd882613bff565b9150819050919050565b6000613fed82613c3f565b9150819050919050565b60006140038285613d1d565b6020820191506140138284613374565b6001820191508190509392505050565b6000604082019050818103600083015261403d8185613292565b905081810360208301526140518184613307565b90509392505050565b600060208201905081810360008301526140748184613452565b905092915050565b600060408201905081810360008301526140968185613452565b90506140a56020830184613d0e565b9392505050565b600060c08201905081810360008301526140c68189613452565b90506140d56020830188613d0e565b6140e26040830187613d0e565b6140ef6060830186613365565b81810360808301526141018185613292565b905081810360a08301526141158184613307565b9050979650505050505050565b6000604082019050818103600083015261413c81856134bc565b905061414b6020830184613365565b9392505050565b6000604082019050818103600083015261416c81856134bc565b905061417b6020830184613d0e565b9392505050565b6000602082019050818103600083015261419b81613619565b9050919050565b600060208201905081810360008301526141bb8161367f565b9050919050565b600060208201905081810360008301526141db816136ff565b9050919050565b600060208201905081810360008301526141fb8161373f565b9050919050565b6000602082019050818103600083015261421b8161387f565b9050919050565b6000602082019050818103600083015261423b816138bf565b9050919050565b6000602082019050818103600083015261425b816138ff565b9050919050565b6000602082019050818103600083015261427b816139ff565b9050919050565b6000602082019050818103600083015261429b81613abf565b9050919050565b600060208201905081810360008301526142bb81613b7f565b9050919050565b600060208201905081810360008301526142db81613cbf565b9050919050565b60006020820190506142f76000830184613d0e565b92915050565b60006060820190506143126000830186613d0e565b61431f6020830185613d0e565b61432c604083018461326c565b949350505050565b6000604051905081810181811067ffffffffffffffff8211171561435b5761435a6145b2565b5b8060405250919050565b600067ffffffffffffffff8211156143805761437f6145b2565b5b602082029050602081019050919050565b600067ffffffffffffffff8211156143ac576143ab6145b2565b5b601f19601f8301169050602081019050919050565b6000819050602082019050919050565b6000819050602082019050919050565b60008190508160005260206000209050919050565b60008190508160005260206000209050919050565b600081519050919050565b600081519050919050565b600081519050919050565b6000602082019050919050565b6000602082019050919050565b600082825260208201905092915050565b600082825260208201905092915050565b600081905092915050565b600082825260208201905092915050565b600082825260208201905092915050565b600081905092915050565b60006144ab826144be565b9050919050565b60008115159050919050565b600073ffffffffffffffffffffffffffffffffffffffff82169050919050565b6000819050919050565b60006144f3826144fa565b9050919050565b60006145058261450c565b9050919050565b6000614517826144be565b9050919050565b82818337600083830152505050565b60005b8381101561454b578082015181840152602081019050614530565b8381111561455a576000848401525b50505050565b600061456b82614584565b9050919050565b600061457d826145a0565b9050919050565b600061458f826145d2565b9050919050565b6000819050919050565b60006145ab826145c5565b9050919050565bfe5b6000601f19601f8301169050919050565b60008160f81b9050919050565b60008160601b9050919050565b6145e8816144de565b81146145f357600080fd5b5056fe536166654d6174683a206d756c7469706c69636174696f6e206f766572666c6f77a2646970667358221220eab8176d7611f14d50e75281e3be20aa12c4b80314e6bbb61417517a6ca4691764736f6c63430007050033",
  "immutableReferences": {},
  "source": "//SPDX-License-Identifier: MIT\npragma solidity 0.7.5;\npragma abicoder v2;\n\nimport \"./Ownable.sol\";\nimport \"./MultiSig.sol\";\n\ncontract Case is Ownable, MultiSig {\n\n    constructor() {\n        initialize(msg.sender);\n    }\n    \n    function createUser(string memory _region, string memory _userType) public {\n        _users[msg.sender]._stringUser[\"Region\"] = _region;\n        _users[msg.sender]._stringUser[\"User Type\"] = _userType;\n        \n        _addressArrayStorage[ string(abi.encodePacked(_region,_userType)) ].push(msg.sender); // makes array based on region and usertype\n    }\n    \n    function getUserArrayLength(string memory _region, string memory _userType) public view returns(uint){\n        return _addressArrayStorage[ string(abi.encodePacked(_region,_userType)) ].length;\n    }\n    \n    function initialize(address _owner) private {\n        require(!_boolStorage[\"initialized\"], \"ERR6: initialized\");\n        _addressStorage[\"owner\"] = _owner;\n        _boolStorage[\"initialized\"] = true;\n    }\n\n    event caseCreated(string title, bool openForVoting);\n    event caseDeleted(string title, bool openForVoting);\n    event votingOpened(uint256 caseNumber, string title);\n    event votingClosed(uint256 caseNumber, string title);\n    \n    function approvalZ(uint _caseNumber) public {\n        approve(_caseNumber);\n    }\n    \n    function getSigningRequestsZ(uint _caseNumber) public view returns(string memory, uint){\n        return getSigningRequests(_caseNumber);\n    }\n    \n    function returnLimitApproval(uint _caseNumber) public view returns(uint){\n        return _cases[_caseNumber]._uintCase[\"Limit\"];\n    }\n    \n    function returnTotalVotes(uint _caseNumber) public view returns(uint){\n        return _cases[_caseNumber]._uintCase[\"Total Votes\"];\n    }\n\n    function getApprovalZ(uint _caseNumber) public view returns(uint){\n        return getApproval(_caseNumber);\n    }\n\n    function createCase(string memory _title, uint256 _deadline, string[] memory _alternatives) public {\n        require(checkUserTypeBool(),\"ERR1: Not Regional or National\"); // checks that the userType is \"Regional\" or \"National\"\n        _uintStorage[\"caseNumber\"] = SafeMath.add(_uintStorage[\"caseNumber\"], 1); // \"Global\" Case Number Counter\n        uint caseNumber = _uintStorage[\"caseNumber\"];\n        string memory _region = _users[msg.sender]._stringUser[\"Region\"];\n        // This creates a case\n        _cases[caseNumber]._stringCase[\"Title\"] = _title;\n        _cases[caseNumber]._stringCase[\"Region\"] = _region; // Case-region used from user\n        \n        // tall p antall stemer som trengs \"((((7 *10) /2) +5) /10)\" for  approve casen i MultiSig\n        _cases[caseNumber]._uintCase[\"Limit\"] = \n        SafeMath.div(\n            SafeMath.add(\n                SafeMath.div(\n                    SafeMath.mul(\n                        _addressArrayStorage[ string(abi.encodePacked(_region,checkUserTypeString())) ].length, \n                    10),\n                2),\n            5),\n        10);\n        \n        // totalVotes = Standard+Regional+National\n        _cases[caseNumber]._uintCase[\"Total Votes\"] = _addressArrayStorage[ string(abi.encodePacked(_region,\"Standard\")) ].length;\n        _cases[caseNumber]._uintCase[\"Total Votes\"] += _addressArrayStorage[ string(abi.encodePacked(_region,\"Regional\")) ].length;\n        _cases[caseNumber]._uintCase[\"Total Votes\"] += _addressArrayStorage[ string(abi.encodePacked(_region,\"National\")) ].length;\n\n        _cases[caseNumber]._uintCase[\"Deadline\"] = _deadline;\n        _cases[caseNumber]._boolCase[\"open For Voting\"] = false;\n        _cases[caseNumber]._boolCase[\"Case Deactivated\"] = false;\n\n        //adding first alternative to Array and giving it all the votes\n        _cases[caseNumber]._stringArrayCase[\"Alternatives\"].push(\"Ikke Stemt\");\n        _cases[caseNumber]._uintArrayCase[\"Alternatives\"].push(_cases[caseNumber]._uintCase[\"Total Votes\"]);\n\n        for(uint i = 0; i < _alternatives.length; i++){\n            _cases[caseNumber]._stringArrayCase[\"Alternatives\"].push(_alternatives[i]);\n            _cases[caseNumber]._uintArrayCase[\"Alternatives\"].push(0);\n        }\n        \n        // checks if the information that is going to be stored is the same as the information entered into the function\n        for(uint i = 0; i < _alternatives.length; i++){\n            assert(keccak256(abi.encodePacked(_cases[caseNumber]._stringArrayCase[\"Alternatives\"][i+1])) == keccak256(abi.encodePacked(_alternatives[i])));\n            assert(_cases[caseNumber]._uintArrayCase[\"Alternatives\"][i+1] == 0);\n        }\n\n        assert(keccak256(abi.encodePacked(\n                    _cases[caseNumber]._stringCase[\"Title\"],\n                    _cases[caseNumber]._stringCase[\"Region\"],\n                    _cases[caseNumber]._uintCase[\"Deadline\"],\n                    _cases[caseNumber]._boolCase[\"open For Voting\"],\n                    //_cases[caseNumber]._uintCase[\"Total Votes\"],\n                    _cases[caseNumber]._stringArrayCase[\"Alternatives\"][0]\n                    // _cases[caseNumber]._uintArrayCase[\"Alternatives\"][0]\n                ))\n            ==\n            keccak256(abi.encodePacked(\n                    _title,\n                    _region,\n                    _deadline,\n                    false,\n                    //_totalVotes,\n                    \"Ikke Stemt\"\n                    // _totalVotes\n                ))\n        );\n        assert(_cases[caseNumber]._uintCase[\"Limit\"]%2 != 0);\n        emit caseCreated(_cases[caseNumber]._stringCase[\"Title\"], _cases[caseNumber]._boolCase[\"Open For Voting\"]);\n        \n        publishForApproval(caseNumber);\n    }\n\n    function getCase(uint _caseNumber) public view returns(string memory _title, uint _deadline, uint _totalVotes, bool _openForVoting, string[] memory _alternatives, uint[] memory _num){\n        require(!_cases[_caseNumber]._boolCase[\"Case Deactivated\"], \"ERR9: This case has been deactivated\");\n        require(_caseNumber <= _uintStorage[\"caseNumber\"] && _caseNumber != 0, \"ERR10: Case does not exist\");\n        return (_cases[_caseNumber]._stringCase[\"Title\"],               _cases[_caseNumber]._uintCase[\"Deadline\"], \n                _cases[_caseNumber]._uintCase[\"Total Votes\"],           _cases[_caseNumber]._boolCase[\"Open For Voting\"], \n                _cases[_caseNumber]._stringArrayCase[\"Alternatives\"],   _cases[_caseNumber]._uintArrayCase[\"Alternatives\"]\n        );\n    }\n\n    // Problematisk  slette? Ligger p BC, s det gr vel ikke akkurat  gjre, bygge om til deactivate?\n    function deleteCase(uint _caseNumber) public onlyOwner {\n        require(!_cases[_caseNumber]._boolCase[\"Open For Voting\"]);\n\n        _cases[_caseNumber]._boolCase[\"Case Deactivated\"] = true;\n\n        emit caseDeleted(_cases[_caseNumber]._stringCase[\"Title\"], _cases[_caseNumber]._boolCase[\"Open For Voting\"]);\n   }\n\n//    function openVoting(uint256 _caseNumber) public onlyOwners(_caseNumber) {\n//         require(_cases[_caseNumber]._uintCase[\"Total Votes\"] > 0, \"Total Votes must be higher than 0\");\n//         _cases[_caseNumber]._boolCase[\"hasBeenApproved\"] = true;\n//         _cases[_caseNumber]._boolCase[\"Open For Voting\"] = true;\n//         emit votingOpened(_caseNumber, _cases[_caseNumber]._stringCase[\"title\"]);\n//    }\n   \n   function vote (uint256 _caseNumber, uint256 _optionVoted) public {\n        require(_cases[_caseNumber]._boolCase[\"Open For Voting\"], \"ERR7: Not Open For Voting Yet!\");  // Checks if the case is open for voting\n        require(_optionVoted <= _cases[_caseNumber]._uintArrayCase[\"Alternatives\"].length, \"ERR8: Pick an option that exists\");   // Checks that the option exists\n\n        if(_cases[_caseNumber]._boolCase[string(abi.encodePacked(msg.sender))]) { // Has voted\n            _cases[_caseNumber]._uintArrayCase[\"Alternatives\"][_cases[_caseNumber]._uintCase[string(abi.encodePacked(msg.sender))]] = \n                SafeMath.sub(_cases[_caseNumber]._uintArrayCase[\"Alternatives\"][_cases[_caseNumber]._uintCase[string(abi.encodePacked(msg.sender))]], 1); // SUBTRACT\n        } else { // Has not voted\n            _cases[_caseNumber]._boolCase[string(abi.encodePacked(msg.sender))] = true; // VOTING = TRUE\n            _cases[_caseNumber]._uintArrayCase[\"Alternatives\"][0] = SafeMath.sub(_cases[_caseNumber]._uintArrayCase[\"Alternatives\"][0], 1); // SUBTRACT\n        }\n        _cases[_caseNumber]._uintArrayCase[\"Alternatives\"][_optionVoted] = SafeMath.add(_cases[_caseNumber]._uintArrayCase[\"Alternatives\"][_optionVoted], 1); // ADD\n\n        uint256 oldVote = _cases[_caseNumber]._uintCase[string(abi.encodePacked(msg.sender))];\n        _cases[_caseNumber]._uintCase[string(abi.encodePacked(msg.sender))] = _optionVoted; // Map msg.sender => _optionVoted\n\n        assert(_optionVoted != oldVote); // vote has changed\n        assert(keccak256(abi.encodePacked( \n                    _cases[_caseNumber]._uintCase[string(abi.encodePacked(msg.sender))],\n                    _cases[_caseNumber]._boolCase[string(abi.encodePacked(msg.sender))]\n                ))\n            == keccak256(abi.encodePacked(\n                    _optionVoted,\n                    true\n                ))\n        );\n   }\n\n   function getAlternatives(uint256 _caseNumber) public view returns(string[] memory, uint256[] memory){\n        return (_cases[_caseNumber]._stringArrayCase[\"Alternatives\"], _cases[_caseNumber]._uintArrayCase[\"Alternatives\"]);\n   }\n\n   function getMyVote(uint256 _caseNumber) public view returns(string memory){\n      require(_caseNumber <= _uintStorage[\"caseNumber\"] && _caseNumber != 0, \"Case does not exist\");\n        return ( _cases[_caseNumber]._stringArrayCase[\"Alternatives\"][ _cases[_caseNumber]._uintCase[string(abi.encodePacked(msg.sender))] ] );\n   }\n}",
  "sourcePath": "/Users/alex/Library/Mobile Documents/com~apple~CloudDocs/UiA/DAT304V21 - Oppgave/ChainVote/BackEnd/contracts/Case.sol",
  "compiler": {
    "name": "solc",
    "version": "0.7.5+commit.eb77ed08.Emscripten.clang"
  },
  "schemaVersion": "3.3.4",
  "updatedAt": "2021-03-28T20:43:31.645Z",
  "networkType": "ethereum",
  "devdoc": {
    "kind": "dev",
    "methods": {},
    "version": 1
  },
  "userdoc": {
    "kind": "user",
    "methods": {},
    "version": 1
  }
}