{
  "contractName": "Case",
  "abi": [
    {
      "inputs": [],
      "stateMutability": "nonpayable",
      "type": "constructor"
    },
    {
      "anonymous": false,
      "inputs": [
        {
          "indexed": false,
          "internalType": "uint256",
          "name": "_caseNumber",
          "type": "uint256"
        },
        {
          "indexed": false,
          "internalType": "uint256",
          "name": "_approvals",
          "type": "uint256"
        },
        {
          "indexed": false,
          "internalType": "address",
          "name": "_approver",
          "type": "address"
        }
      ],
      "name": "ApprovalReceived",
      "type": "event"
    },
    {
      "anonymous": false,
      "inputs": [
        {
          "indexed": false,
          "internalType": "uint256",
          "name": "_caseNumber",
          "type": "uint256"
        }
      ],
      "name": "CaseApproved",
      "type": "event"
    },
    {
      "anonymous": false,
      "inputs": [
        {
          "indexed": false,
          "internalType": "string",
          "name": "title",
          "type": "string"
        },
        {
          "indexed": false,
          "internalType": "uint256",
          "name": "_caseNumber",
          "type": "uint256"
        }
      ],
      "name": "SigningRequestCreated",
      "type": "event"
    },
    {
      "anonymous": false,
      "inputs": [
        {
          "indexed": false,
          "internalType": "string",
          "name": "title",
          "type": "string"
        },
        {
          "indexed": false,
          "internalType": "bool",
          "name": "openForVoting",
          "type": "bool"
        }
      ],
      "name": "caseCreated",
      "type": "event"
    },
    {
      "anonymous": false,
      "inputs": [
        {
          "indexed": false,
          "internalType": "string",
          "name": "title",
          "type": "string"
        },
        {
          "indexed": false,
          "internalType": "bool",
          "name": "openForVoting",
          "type": "bool"
        }
      ],
      "name": "caseDeleted",
      "type": "event"
    },
    {
      "anonymous": false,
      "inputs": [
        {
          "indexed": false,
          "internalType": "uint256",
          "name": "caseNumber",
          "type": "uint256"
        },
        {
          "indexed": false,
          "internalType": "string",
          "name": "title",
          "type": "string"
        }
      ],
      "name": "votingClosed",
      "type": "event"
    },
    {
      "anonymous": false,
      "inputs": [
        {
          "indexed": false,
          "internalType": "uint256",
          "name": "caseNumber",
          "type": "uint256"
        },
        {
          "indexed": false,
          "internalType": "string",
          "name": "title",
          "type": "string"
        }
      ],
      "name": "votingOpened",
      "type": "event"
    },
    {
      "inputs": [
        {
          "internalType": "uint256",
          "name": "_caseNumber",
          "type": "uint256"
        }
      ],
      "name": "getApproval",
      "outputs": [
        {
          "internalType": "uint256",
          "name": "",
          "type": "uint256"
        }
      ],
      "stateMutability": "view",
      "type": "function",
      "constant": true
    },
    {
      "inputs": [
        {
          "internalType": "string",
          "name": "_region",
          "type": "string"
        },
        {
          "internalType": "string",
          "name": "_userType",
          "type": "string"
        }
      ],
      "name": "createUser",
      "outputs": [],
      "stateMutability": "nonpayable",
      "type": "function"
    },
    {
      "inputs": [
        {
          "internalType": "string",
          "name": "_region",
          "type": "string"
        },
        {
          "internalType": "string",
          "name": "_userType",
          "type": "string"
        }
      ],
      "name": "getUserArrayLength",
      "outputs": [
        {
          "internalType": "uint256",
          "name": "",
          "type": "uint256"
        }
      ],
      "stateMutability": "view",
      "type": "function",
      "constant": true
    },
    {
      "inputs": [
        {
          "internalType": "uint256",
          "name": "_caseNumber",
          "type": "uint256"
        }
      ],
      "name": "approvalZ",
      "outputs": [],
      "stateMutability": "nonpayable",
      "type": "function"
    },
    {
      "inputs": [
        {
          "internalType": "uint256",
          "name": "_caseNumber",
          "type": "uint256"
        }
      ],
      "name": "getSigningRequestsZ",
      "outputs": [
        {
          "internalType": "string",
          "name": "",
          "type": "string"
        },
        {
          "internalType": "uint256",
          "name": "",
          "type": "uint256"
        }
      ],
      "stateMutability": "view",
      "type": "function",
      "constant": true
    },
    {
      "inputs": [
        {
          "internalType": "uint256",
          "name": "_caseNumber",
          "type": "uint256"
        }
      ],
      "name": "returnLimitApproval",
      "outputs": [
        {
          "internalType": "uint256",
          "name": "",
          "type": "uint256"
        }
      ],
      "stateMutability": "view",
      "type": "function",
      "constant": true
    },
    {
      "inputs": [
        {
          "internalType": "uint256",
          "name": "_caseNumber",
          "type": "uint256"
        }
      ],
      "name": "returnTotalVotes",
      "outputs": [
        {
          "internalType": "uint256",
          "name": "",
          "type": "uint256"
        }
      ],
      "stateMutability": "view",
      "type": "function",
      "constant": true
    },
    {
      "inputs": [
        {
          "internalType": "uint256",
          "name": "_caseNumber",
          "type": "uint256"
        }
      ],
      "name": "getApprovalZ",
      "outputs": [
        {
          "internalType": "uint256",
          "name": "",
          "type": "uint256"
        }
      ],
      "stateMutability": "view",
      "type": "function",
      "constant": true
    },
    {
      "inputs": [
        {
          "internalType": "string",
          "name": "_title",
          "type": "string"
        },
        {
          "internalType": "uint256",
          "name": "_deadline",
          "type": "uint256"
        },
        {
          "internalType": "string[]",
          "name": "_alternatives",
          "type": "string[]"
        }
      ],
      "name": "createCase",
      "outputs": [],
      "stateMutability": "nonpayable",
      "type": "function"
    },
    {
      "inputs": [
        {
          "internalType": "uint256",
          "name": "_caseNumber",
          "type": "uint256"
        }
      ],
      "name": "getCase",
      "outputs": [
        {
          "internalType": "string",
          "name": "_title",
          "type": "string"
        },
        {
          "internalType": "uint256",
          "name": "_deadline",
          "type": "uint256"
        },
        {
          "internalType": "uint256",
          "name": "_totalVotes",
          "type": "uint256"
        },
        {
          "internalType": "bool",
          "name": "_openForVoting",
          "type": "bool"
        },
        {
          "internalType": "string[]",
          "name": "_alternatives",
          "type": "string[]"
        },
        {
          "internalType": "uint256[]",
          "name": "_num",
          "type": "uint256[]"
        }
      ],
      "stateMutability": "view",
      "type": "function",
      "constant": true
    },
    {
      "inputs": [
        {
          "internalType": "uint256",
          "name": "_caseNumber",
          "type": "uint256"
        }
      ],
      "name": "deleteCase",
      "outputs": [],
      "stateMutability": "nonpayable",
      "type": "function"
    },
    {
      "inputs": [
        {
          "internalType": "uint256",
          "name": "_caseNumber",
          "type": "uint256"
        },
        {
          "internalType": "uint256",
          "name": "_optionVoted",
          "type": "uint256"
        }
      ],
      "name": "vote",
      "outputs": [],
      "stateMutability": "nonpayable",
      "type": "function"
    },
    {
      "inputs": [
        {
          "internalType": "uint256",
          "name": "_caseNumber",
          "type": "uint256"
        }
      ],
      "name": "getAlternatives",
      "outputs": [
        {
          "internalType": "string[]",
          "name": "",
          "type": "string[]"
        },
        {
          "internalType": "uint256[]",
          "name": "",
          "type": "uint256[]"
        }
      ],
      "stateMutability": "view",
      "type": "function",
      "constant": true
    },
    {
      "inputs": [
        {
          "internalType": "uint256",
          "name": "_caseNumber",
          "type": "uint256"
        }
      ],
      "name": "getMyVote",
      "outputs": [
        {
          "internalType": "string",
          "name": "",
          "type": "string"
        }
      ],
      "stateMutability": "view",
      "type": "function",
      "constant": true
    },
    {
      "inputs": [
        {
          "internalType": "uint256",
          "name": "_deadline_in_x_days",
          "type": "uint256"
        }
      ],
      "name": "test",
      "outputs": [
        {
          "internalType": "uint256",
          "name": "",
          "type": "uint256"
        },
        {
          "internalType": "uint256",
          "name": "",
          "type": "uint256"
        }
      ],
      "stateMutability": "nonpayable",
      "type": "function"
    },
    {
      "inputs": [],
      "name": "tryer",
      "outputs": [
        {
          "internalType": "string",
          "name": "ads",
          "type": "string"
        }
      ],
      "stateMutability": "view",
      "type": "function",
      "constant": true
    }
  ],
  "bytecode": "0x60806040523480156200001157600080fd5b5033600560405180807f6f776e65720000000000000000000000000000000000000000000000000000008152506005019050908152602001604051809103902060006101000a81548173ffffffffffffffffffffffffffffffffffffffff021916908373ffffffffffffffffffffffffffffffffffffffff160217905550620000a033620000a660201b60201c565b620002de565b6006604051620000b69062000289565b908152602001604051809103902060009054906101000a900460ff161562000115576040517f08c379a00000000000000000000000000000000000000000000000000000000081526004016200010c90620002a0565b60405180910390fd5b806005604051620001269062000272565b908152602001604051809103902060006101000a81548173ffffffffffffffffffffffffffffffffffffffff021916908373ffffffffffffffffffffffffffffffffffffffff16021790555060016006604051620001849062000289565b908152602001604051809103902060006101000a81548160ff02191690831515021790555050565b6000620001bb600583620002d3565b91507f6f776e65720000000000000000000000000000000000000000000000000000006000830152600582019050919050565b6000620001fd601183620002c2565b91507f455252363a20696e697469616c697a65640000000000000000000000000000006000830152602082019050919050565b60006200023f600b83620002d3565b91507f696e697469616c697a65640000000000000000000000000000000000000000006000830152600b82019050919050565b60006200027f82620001ac565b9150819050919050565b6000620002968262000230565b9150819050919050565b60006020820190508181036000830152620002bb81620001ee565b9050919050565b600082825260208201905092915050565b600081905092915050565b61477c80620002ee6000396000f3fe608060405234801561001057600080fd5b50600436106101005760003560e01c8063b384abef11610097578063d7ec1d4b11610066578063d7ec1d4b146102d6578063efeab0d214610307578063f658518a14610337578063f76b40491461036757610100565b8063b384abef14610264578063be1032e114610280578063ce323d801461029c578063d590bf49146102ba57610100565b8063865148c6116100d3578063865148c6146101c757806387b162b5146101f7578063a1c49c1714610213578063a91a10801461022f57610100565b80630d0c098014610105578063256d75661461013557806329e99f07146101665780635b962d5514610197575b600080fd5b61011f600480360381019061011a91906132e1565b610397565b60405161012c91906143e8565b60405180910390f35b61014f600480360381019061014a91906132e1565b6103a9565b60405161015d929190614129565b60405180910390f35b610180600480360381019061017b91906132e1565b61054a565b60405161018e929190614403565b60405180910390f35b6101b160048036038101906101ac91906132e1565b610566565b6040516101be91906143e8565b60405180910390f35b6101e160048036038101906101dc91906131f6565b6105a0565b6040516101ee91906143e8565b60405180910390f35b610211600480360381019061020c91906131f6565b6105ed565b005b61022d60048036038101906102289190613262565b610773565b005b610249600480360381019061024491906132e1565b61121d565b60405161025b969594939291906141b2565b60405180910390f35b61027e6004803603810190610279919061330a565b611627565b005b61029a600480360381019061029591906132e1565b611c21565b005b6102a4611c2d565b6040516102b19190614160565b60405180910390f35b6102d460048036038101906102cf91906132e1565b611cb2565b005b6102f060048036038101906102eb91906132e1565b611e81565b6040516102fe929190614182565b60405180910390f35b610321600480360381019061031c91906132e1565b611e97565b60405161032e91906143e8565b60405180910390f35b610351600480360381019061034c91906132e1565b611ed1565b60405161035e91906143e8565b60405180910390f35b610381600480360381019061037c91906132e1565b611f0b565b60405161038e9190614160565b60405180910390f35b60006103a282611ed1565b9050919050565b606080600860008481526020019081526020016000206003016040516103ce906140a9565b9081526020016040518091039020600860008581526020019081526020016000206001016040516103fe906140a9565b908152602001604051809103902081805480602002602001604051908101604052809291908181526020016000905b828210156104e9578382906000526020600020018054600181600116156101000203166002900480601f0160208091040260200160405190810160405280929190818152602001828054600181600116156101000203166002900480156104d55780601f106104aa576101008083540402835291602001916104d5565b820191906000526020600020905b8154815290600101906020018083116104b857829003601f168201915b50505050508152602001906001019061042d565b5050505091508080548060200260200160405190810160405280929190818152602001828054801561053a57602002820191906000526020600020905b815481526020019060010190808311610526575b5050505050905091509150915091565b600080600583024201600a81905550600a544291509150915091565b60006008600083815260200190815260200160002060000160405161058a90614094565b9081526020016040518091039020549050919050565b6000600483836040516020016105b7929190613e83565b6040516020818303038152906040526040516105d39190613e6c565b908152602001604051809103902080549050905092915050565b81600960003373ffffffffffffffffffffffffffffffffffffffff1673ffffffffffffffffffffffffffffffffffffffff16815260200190815260200160002060020160405161063c90614001565b9081526020016040518091039020908051906020019061065d92919061306e565b5080600960003373ffffffffffffffffffffffffffffffffffffffff1673ffffffffffffffffffffffffffffffffffffffff1681526020019081526020016000206002016040516106ad90614040565b908152602001604051809103902090805190602001906106ce92919061306e565b50600482826040516020016106e4929190613e83565b6040516020818303038152906040526040516107009190613e6c565b9081526020016040518091039020339080600181540180825580915050600190039060005260206000200160009091909190916101000a81548173ffffffffffffffffffffffffffffffffffffffff021916908373ffffffffffffffffffffffffffffffffffffffff1602179055505050565b61077b6120af565b6107ba576040517f08c379a00000000000000000000000000000000000000000000000000000000081526004016107b190614308565b60405180910390fd5b6107e160006040516107cb90614016565b908152602001604051809103902054600161225c565b60006040516107ef90614016565b90815260200160405180910390208190555060008060405161081090614016565b90815260200160405180910390205490506060600960003373ffffffffffffffffffffffffffffffffffffffff1673ffffffffffffffffffffffffffffffffffffffff16815260200190815260200160002060020160405161087190614001565b90815260200160405180910390208054600181600116156101000203166002900480601f0160208091040260200160405190810160405280929190818152602001828054600181600116156101000203166002900480156109135780601f106108e857610100808354040283529160200191610913565b820191906000526020600020905b8154815290600101906020018083116108f657829003601f168201915b50505050509050846008600084815260200190815260200160002060020160405161093d9061402b565b9081526020016040518091039020908051906020019061095e92919061306e565b50806008600084815260200190815260200160002060020160405161098290614001565b908152602001604051809103902090805190602001906109a392919061306e565b50610a16610a0f610a08610a016004856109bb6122e4565b6040516020016109cc929190613e83565b6040516020818303038152906040526040516109e89190613e6c565b908152602001604051809103902080549050600a612513565b6002612599565b600561225c565b600a612599565b60086000848152602001908152602001600020600001604051610a38906140be565b908152602001604051809103902081905550600481604051602001610a5d9190613f1a565b604051602081830303815290604052604051610a799190613e6c565b90815260200160405180910390208054905060086000848152602001908152602001600020600001604051610aad90614094565b908152602001604051809103902081905550600481604051602001610ad29190613ef8565b604051602081830303815290604052604051610aee9190613e6c565b90815260200160405180910390208054905060086000848152602001908152602001600020600001604051610b2290614094565b908152602001604051809103902060008282540192505081905550600481604051602001610b509190613f3c565b604051602081830303815290604052604051610b6c9190613e6c565b90815260200160405180910390208054905060086000848152602001908152602001600020600001604051610ba090614094565b9081526020016040518091039020600082825401925050819055508360086000848152602001908152602001600020600001604051610bde906140e8565b908152602001604051809103902081905550600060086000848152602001908152602001600020600401604051610c1490613fec565b908152602001604051809103902060006101000a81548160ff021916908315150217905550600060086000848152602001908152602001600020600401604051610c5d9061406a565b908152602001604051809103902060006101000a81548160ff02191690831515021790555060086000838152602001908152602001600020600301604051610ca4906140a9565b908152602001604051809103902080600181540180825580915050600190039060005260206000200160006040518060400160405280600a81526020017f496b6b65205374656d740000000000000000000000000000000000000000000081525090919091509080519060200190610d1d92919061306e565b5060086000838152602001908152602001600020600101604051610d40906140a9565b908152602001604051809103902060086000848152602001908152602001600020600001604051610d7090614094565b908152602001604051809103902054908060018154018082558091505060019003906000526020600020016000909190919091505560005b8351811015610e935760086000848152602001908152602001600020600301604051610dd3906140a9565b9081526020016040518091039020848281518110610ded57fe5b6020026020010151908060018154018082558091505060019003906000526020600020016000909190919091509080519060200190610e2d92919061306e565b5060086000848152602001908152602001600020600101604051610e50906140a9565b9081526020016040518091039020600090806001815401808255809150506001900390600052602060002001600090919091909150558080600101915050610da8565b5060005b8351811015610fae57838181518110610eac57fe5b6020026020010151604051602001610ec49190613e6c565b6040516020818303038152906040528051906020012060086000858152602001908152602001600020600301604051610efc906140a9565b90815260200160405180910390206001830181548110610f1857fe5b90600052602060002001604051602001610f329190613f5e565b6040516020818303038152906040528051906020012014610f4f57fe5b600060086000858152602001908152602001600020600101604051610f73906140a9565b90815260200160405180910390206001830181548110610f8f57fe5b906000526020600020015414610fa157fe5b8080600101915050610e97565b508481856000604051602001610fc79493929190613ea7565b6040516020818303038152906040528051906020012060086000848152602001908152602001600020600201604051610fff9061402b565b90815260200160405180910390206008600085815260200190815260200160002060020160405161102f90614001565b90815260200160405180910390206008600086815260200190815260200160002060000160405161105f906140e8565b9081526020016040518091039020546008600087815260200190815260200160002060040160405161109090613fec565b908152602001604051809103902060009054906101000a900460ff16600860008881526020019081526020016000206003016040516110ce906140a9565b90815260200160405180910390206000815481106110e857fe5b90600052602060002001604051602001611106959493929190613f99565b604051602081830303815290604052805190602001201461112357fe5b6000600260086000858152602001908152602001600020600001604051611149906140be565b9081526020016040518091039020548161115f57fe5b06141561116857fe5b7f397bd7bf3071967480966f6a0dbc085b8c14d5fa5e0fae7e9aec4d4f5edba282600860008481526020019081526020016000206002016040516111ab9061402b565b9081526020016040518091039020600860008581526020019081526020016000206004016040516111db90614055565b908152602001604051809103902060009054906101000a900460ff16604051611205929190614228565b60405180910390a1611216826125e3565b5050505050565b60606000806000606080600860008881526020019081526020016000206004016040516112499061406a565b908152602001604051809103902060009054906101000a900460ff16156112a5576040517f08c379a000000000000000000000000000000000000000000000000000000000815260040161129c90614288565b60405180910390fd5b60006040516112b390614016565b90815260200160405180910390205487111580156112d2575060008714155b611311576040517f08c379a0000000000000000000000000000000000000000000000000000000008152600401611308906142e8565b60405180910390fd5b600860008881526020019081526020016000206002016040516113339061402b565b908152602001604051809103902060086000898152602001908152602001600020600001604051611363906140e8565b908152602001604051809103902054600860008a815260200190815260200160002060000160405161139490614094565b908152602001604051809103902054600860008b81526020019081526020016000206004016040516113c590614055565b908152602001604051809103902060009054906101000a900460ff16600860008c8152602001908152602001600020600301604051611403906140a9565b9081526020016040518091039020600860008d8152602001908152602001600020600101604051611433906140a9565b9081526020016040518091039020858054600181600116156101000203166002900480601f0160208091040260200160405190810160405280929190818152602001828054600181600116156101000203166002900480156114d65780601f106114ab576101008083540402835291602001916114d6565b820191906000526020600020905b8154815290600101906020018083116114b957829003601f168201915b5050505050955081805480602002602001604051908101604052809291908181526020016000905b828210156115ba578382906000526020600020018054600181600116156101000203166002900480601f0160208091040260200160405190810160405280929190818152602001828054600181600116156101000203166002900480156115a65780601f1061157b576101008083540402835291602001916115a6565b820191906000526020600020905b81548152906001019060200180831161158957829003601f168201915b5050505050815260200190600101906114fe565b5050505091508080548060200260200160405190810160405280929190818152602001828054801561160b57602002820191906000526020600020905b8154815260200190600101908083116115f7575b5050505050905095509550955095509550955091939550919395565b6008600083815260200190815260200160002060040160405161164990614055565b908152602001604051809103902060009054906101000a900460ff166116a4576040517f08c379a000000000000000000000000000000000000000000000000000000000815260040161169b90614388565b60405180910390fd5b600860008381526020019081526020016000206001016040516116c6906140a9565b90815260200160405180910390208054905081111561171a576040517f08c379a0000000000000000000000000000000000000000000000000000000008152600401611711906142a8565b60405180910390fd5b60086000838152602001908152602001600020600401336040516020016117419190613e3a565b60405160208183030381529060405260405161175d9190613e6c565b908152602001604051809103902060009054906101000a900460ff16156118be5761181f600860008481526020019081526020016000206001016040516117a3906140a9565b908152602001604051809103902060086000858152602001908152602001600020600001336040516020016117d89190613e3a565b6040516020818303038152906040526040516117f49190613e6c565b9081526020016040518091039020548154811061180d57fe5b90600052602060002001546001612886565b60086000848152602001908152602001600020600101604051611841906140a9565b908152602001604051809103902060086000858152602001908152602001600020600001336040516020016118769190613e3a565b6040516020818303038152906040526040516118929190613e6c565b908152602001604051809103902054815481106118ab57fe5b90600052602060002001819055506119c4565b600160086000848152602001908152602001600020600401336040516020016118e79190613e3a565b6040516020818303038152906040526040516119039190613e6c565b908152602001604051809103902060006101000a81548160ff0219169083151502179055506119796008600084815260200190815260200160002060010160405161194d906140a9565b908152602001604051809103902060008154811061196757fe5b90600052602060002001546001612886565b6008600084815260200190815260200160002060010160405161199b906140a9565b90815260200160405180910390206000815481106119b557fe5b90600052602060002001819055505b611a14600860008481526020019081526020016000206001016040516119e9906140a9565b90815260200160405180910390208281548110611a0257fe5b9060005260206000200154600161225c565b60086000848152602001908152602001600020600101604051611a36906140a9565b90815260200160405180910390208281548110611a4f57fe5b906000526020600020018190555060006008600084815260200190815260200160002060000133604051602001611a869190613e3a565b604051602081830303815290604052604051611aa29190613e6c565b9081526020016040518091039020549050816008600085815260200190815260200160002060000133604051602001611adb9190613e3a565b604051602081830303815290604052604051611af79190613e6c565b90815260200160405180910390208190555080821415611b1357fe5b816001604051602001611b279291906140fd565b604051602081830303815290604052805190602001206008600085815260200190815260200160002060000133604051602001611b649190613e3a565b604051602081830303815290604052604051611b809190613e6c565b9081526020016040518091039020546008600086815260200190815260200160002060040133604051602001611bb69190613e3a565b604051602081830303815290604052604051611bd29190613e6c565b908152602001604051809103902060009054906101000a900460ff16604051602001611bff9291906140fd565b6040516020818303038152906040528051906020012014611c1c57fe5b505050565b611c2a816128d0565b50565b606042600a541115611c76576040518060400160405280601581526020017f7761697420666f722074696d6520746f207061737300000000000000000000008152509050611caf565b6040518060400160405280601581526020017f6e6f7720697320616674657220646561646c696e65000000000000000000000081525090505b90565b600560405180807f6f776e65720000000000000000000000000000000000000000000000000000008152506005019050908152602001604051809103902060009054906101000a900473ffffffffffffffffffffffffffffffffffffffff1673ffffffffffffffffffffffffffffffffffffffff163373ffffffffffffffffffffffffffffffffffffffff1614611d4857600080fd5b60086000828152602001908152602001600020600401604051611d6a90614055565b908152602001604051809103902060009054906101000a900460ff1615611d9057600080fd5b600160086000838152602001908152602001600020600401604051611db49061406a565b908152602001604051809103902060006101000a81548160ff0219169083151502179055507f89a70fe1536f6bbb141a4c96d2517714f4b156b768ffeed8bf5d97570b76e05460086000838152602001908152602001600020600201604051611e1c9061402b565b908152602001604051809103902060086000848152602001908152602001600020600401604051611e4c90614055565b908152602001604051809103902060009054906101000a900460ff16604051611e76929190614228565b60405180910390a150565b60606000611e8e83612e23565b91509150915091565b600060086000838152602001908152602001600020600001604051611ebb906140be565b9081526020016040518091039020549050919050565b600060086000838152602001908152602001600020600001604051611ef5906140d3565b9081526020016040518091039020549050919050565b60606000604051611f1b90614016565b9081526020016040518091039020548211158015611f3a575060008214155b611f79576040517f08c379a0000000000000000000000000000000000000000000000000000000008152600401611f7090614368565b60405180910390fd5b60086000838152602001908152602001600020600301604051611f9b906140a9565b90815260200160405180910390206008600084815260200190815260200160002060000133604051602001611fd09190613e3a565b604051602081830303815290604052604051611fec9190613e6c565b9081526020016040518091039020548154811061200557fe5b906000526020600020018054600181600116156101000203166002900480601f0160208091040260200160405190810160405280929190818152602001828054600181600116156101000203166002900480156120a35780601f10612078576101008083540402835291602001916120a3565b820191906000526020600020905b81548152906001019060200180831161208657829003601f168201915b50505050509050919050565b60006040518060400160405280600881526020017f526567696f6e616c00000000000000000000000000000000000000000000000081525080519060200120600960003373ffffffffffffffffffffffffffffffffffffffff1673ffffffffffffffffffffffffffffffffffffffff16815260200190815260200160002060020160405161213c90614040565b90815260200160405180910390206040516121579190613e55565b6040518091039020148061221657506040518060400160405280600881526020017f4e6174696f6e616c00000000000000000000000000000000000000000000000081525080519060200120600960003373ffffffffffffffffffffffffffffffffffffffff1673ffffffffffffffffffffffffffffffffffffffff1681526020019081526020016000206002016040516121f190614040565b908152602001604051809103902060405161220c9190613e55565b6040518091039020145b612255576040517f08c379a000000000000000000000000000000000000000000000000000000000815260040161224c90614328565b60405180910390fd5b6001905090565b6000808284019050838110156122da576040517f08c379a000000000000000000000000000000000000000000000000000000000815260040180806020018281038252601b8152602001807f536166654d6174683a206164646974696f6e206f766572666c6f77000000000081525060200191505060405180910390fd5b8091505092915050565b60606122ee6120af565b61232d576040517f08c379a0000000000000000000000000000000000000000000000000000000008152600401612324906143a8565b60405180910390fd5b6040518060400160405280600881526020017f526567696f6e616c00000000000000000000000000000000000000000000000081525080519060200120600960003373ffffffffffffffffffffffffffffffffffffffff1673ffffffffffffffffffffffffffffffffffffffff1681526020019081526020016000206002016040516123b890614040565b90815260200160405180910390206040516123d39190613e55565b6040518091039020141561241e576040518060400160405280600881526020017f526567696f6e616c0000000000000000000000000000000000000000000000008152509050612510565b6040518060400160405280600881526020017f4e6174696f6e616c00000000000000000000000000000000000000000000000081525080519060200120600960003373ffffffffffffffffffffffffffffffffffffffff1673ffffffffffffffffffffffffffffffffffffffff1681526020019081526020016000206002016040516124a990614040565b90815260200160405180910390206040516124c49190613e55565b6040518091039020141561250f576040518060400160405280600881526020017f4e6174696f6e616c0000000000000000000000000000000000000000000000008152509050612510565b5b90565b6000808314156125265760009050612593565b600082840290508284828161253757fe5b041461258e576040517f08c379a00000000000000000000000000000000000000000000000000000000081526004018080602001828103825260218152602001806147266021913960400191505060405180910390fd5b809150505b92915050565b60006125db83836040518060400160405280601a81526020017f536166654d6174683a206469766973696f6e206279207a65726f000000000000815250612ee8565b905092915050565b806000805b60046008600085815260200190815260200160002060020160405161260c90614001565b90815260200160405180910390206126226122e4565b604051602001612633929190613f75565b60405160208183030381529060405260405161264f9190613e6c565b908152602001604051809103902080549050811015612758573373ffffffffffffffffffffffffffffffffffffffff166004600860008681526020019081526020016000206002016040516126a390614001565b90815260200160405180910390206126b96122e4565b6040516020016126ca929190613f75565b6040516020818303038152906040526040516126e69190613e6c565b908152602001604051809103902082815481106126ff57fe5b9060005260206000200160009054906101000a900473ffffffffffffffffffffffffffffffffffffffff1673ffffffffffffffffffffffffffffffffffffffff16141561274b57600191505b80806001019150506125e8565b5060011515811515146127a0576040517f08c379a0000000000000000000000000000000000000000000000000000000008152600401612797906142c8565b60405180910390fd5b6000600860008581526020019081526020016000206000016040516127c4906140d3565b90815260200160405180910390208190555060016040516127e49061407f565b90815260200160405180910390208390806001815401808255809150506001900390600052602060002001600090919091909150557f9ebb3c03561c733b59a512566b5b18ec5796fdc6ed05edf321d587eb807185866008600085815260200190815260200160002060020160405161285c9061402b565b908152602001604051809103902084604051612879929190614258565b60405180910390a1505050565b60006128c883836040518060400160405280601e81526020017f536166654d6174683a207375627472616374696f6e206f766572666c6f770000815250612fae565b905092915050565b806000805b6004600860008581526020019081526020016000206002016040516128f990614001565b908152602001604051809103902061290f6122e4565b604051602001612920929190613f75565b60405160208183030381529060405260405161293c9190613e6c565b908152602001604051809103902080549050811015612a45573373ffffffffffffffffffffffffffffffffffffffff1660046008600086815260200190815260200160002060020160405161299090614001565b90815260200160405180910390206129a66122e4565b6040516020016129b7929190613f75565b6040516020818303038152906040526040516129d39190613e6c565b908152602001604051809103902082815481106129ec57fe5b9060005260206000200160009054906101000a900473ffffffffffffffffffffffffffffffffffffffff1673ffffffffffffffffffffffffffffffffffffffff161415612a3857600191505b80806001019150506128d5565b506001151581151514612a8d576040517f08c379a0000000000000000000000000000000000000000000000000000000008152600401612a84906142c8565b60405180910390fd5b600015156008600085815260200190815260200160002060040133604051602001612ab89190613e3a565b604051602081830303815290604052604051612ad49190613e6c565b908152602001604051809103902060009054906101000a900460ff16151514612b32576040517f08c379a0000000000000000000000000000000000000000000000000000000008152600401612b2990614348565b60405180910390fd5b6000151560086000858152602001908152602001600020600401604051612b5890614055565b908152602001604051809103902060009054906101000a900460ff16151514612bb6576040517f08c379a0000000000000000000000000000000000000000000000000000000008152600401612bad906143c8565b60405180910390fd5b60016008600085815260200190815260200160002060040133604051602001612bdf9190613e3a565b604051602081830303815290604052604051612bfb9190613e6c565b908152602001604051809103902060006101000a81548160ff021916908315150217905550600160086000858152602001908152602001600020600001604051612c44906140d3565b9081526020016040518091039020600082825401925050819055507ffec9d12d15ee8c8b836a58347cb0d4980db38411bcd0b83662cee48fb20b6dee8360086000868152602001908152602001600020600001604051612ca3906140d3565b90815260200160405180910390205433604051612cc29392919061442c565b60405180910390a160086000848152602001908152602001600020600001604051612cec906140be565b90815260200160405180910390205460086000858152602001908152602001600020600001604051612d1d906140d3565b90815260200160405180910390205410612db257600160086000858152602001908152602001600020600401604051612d5590614055565b908152602001604051809103902060006101000a81548160ff0219169083151502179055507f7154413448c2c174ae1fa459442e8775c138d15526ccd5e537576d6f5e9fd65683604051612da991906143e8565b60405180910390a15b600115156008600085815260200190815260200160002060040133604051602001612ddd9190613e3a565b604051602081830303815290604052604051612df99190613e6c565b908152602001604051809103902060009054906101000a900460ff16151514612e1e57fe5b505050565b6060600080606460086000868152602001908152602001600020600001604051612e4c906140d3565b9081526020016040518091039020540290506000606460086000878152602001908152602001600020600001604051612e8490614094565b9081526020016040518091039020540290506000818381612ea157fe5b049050806040518060400160405280601381526020017f50657263656e74207369676e65642825293a20000000000000000000000000008152509094509450505050915091565b60008083118290612f94576040517f08c379a00000000000000000000000000000000000000000000000000000000081526004018080602001828103825283818151815260200191508051906020019080838360005b83811015612f59578082015181840152602081019050612f3e565b50505050905090810190601f168015612f865780820380516001836020036101000a031916815260200191505b509250505060405180910390fd5b506000838581612fa057fe5b049050809150509392505050565b600083831115829061305b576040517f08c379a00000000000000000000000000000000000000000000000000000000081526004018080602001828103825283818151815260200191508051906020019080838360005b83811015613020578082015181840152602081019050613005565b50505050905090810190601f16801561304d5780820380516001836020036101000a031916815260200191505b509250505060405180910390fd5b5060008385039050809150509392505050565b828054600181600116156101000203166002900490600052602060002090601f0160209004810192826130a457600085556130eb565b82601f106130bd57805160ff19168380011785556130eb565b828001600101855582156130eb579182015b828111156130ea5782518255916020019190600101906130cf565b5b5090506130f891906130fc565b5090565b5b808211156131155760008160009055506001016130fd565b5090565b600082601f83011261312a57600080fd5b813561313d61313882614494565b614463565b9150818183526020840193506020810190508360005b838110156131835781358601613169888261318d565b845260208401935060208301925050600181019050613153565b5050505092915050565b600082601f83011261319e57600080fd5b81356131b16131ac826144c0565b614463565b915080825260208301602083018583830111156131cd57600080fd5b6131d883828461464d565b50505092915050565b6000813590506131f08161470e565b92915050565b6000806040838503121561320957600080fd5b600083013567ffffffffffffffff81111561322357600080fd5b61322f8582860161318d565b925050602083013567ffffffffffffffff81111561324c57600080fd5b6132588582860161318d565b9150509250929050565b60008060006060848603121561327757600080fd5b600084013567ffffffffffffffff81111561329157600080fd5b61329d8682870161318d565b93505060206132ae868287016131e1565b925050604084013567ffffffffffffffff8111156132cb57600080fd5b6132d786828701613119565b9150509250925092565b6000602082840312156132f357600080fd5b6000613301848285016131e1565b91505092915050565b6000806040838503121561331d57600080fd5b600061332b858286016131e1565b925050602061333c858286016131e1565b9150509250929050565b6000613352838361351f565b905092915050565b60006133668383613e05565b60208301905092915050565b61337b81614617565b82525050565b61339261338d826145cf565b61468f565b82525050565b60006133a38261453a565b6133ad8185614575565b9350836020820285016133bf856144f0565b8060005b858110156133fb57848403895281516133dc8582613346565b94506133e78361455b565b925060208a019950506001810190506133c3565b50829750879550505050505092915050565b600061341882614545565b6134228185614586565b935061342d83614500565b8060005b8381101561345e578151613445888261335a565b975061345083614568565b925050600181019050613431565b5085935050505092915050565b613474816145e1565b82525050565b61348b613486826145e1565b6146a1565b82525050565b6000815460018116600081146134ae57600181146134d357613517565b607f60028304166134bf8187614597565b955060ff1983168652808601935050613517565b600282046134e18187614597565b95506134ec85614510565b60005b8281101561350e578154818901526001820191506020810190506134ef565b82880195505050505b505092915050565b600061352a82614550565b61353481856145a2565b935061354481856020860161465c565b61354d816146e3565b840191505092915050565b600061356382614550565b61356d81856145b3565b935061357d81856020860161465c565b613586816146e3565b840191505092915050565b600061359c82614550565b6135a681856145c4565b93506135b681856020860161465c565b80840191505092915050565b6000815460018116600081146135df576001811461360557613649565b607f60028304166135f081876145b3565b955060ff198316865260208601935050613649565b6002820461361381876145b3565b955061361e85614525565b60005b8281101561364057815481890152600182019150602081019050613621565b80880195505050505b505092915050565b60008154600181166000811461366e5760018114613693576136d7565b607f600283041661367f81876145c4565b955060ff19831686528086019350506136d7565b600282046136a181876145c4565b95506136ac85614525565b60005b828110156136ce578154818901526001820191506020810190506136af565b82880195505050505b505092915050565b60006136ec600f836145c4565b91507f6f70656e20466f7220566f74696e6700000000000000000000000000000000006000830152600f82019050919050565b600061372c6024836145b3565b91507f455252393a2054686973206361736520686173206265656e206465616374697660008301527f61746564000000000000000000000000000000000000000000000000000000006020830152604082019050919050565b60006137926020836145b3565b91507f455252383a205069636b20616e206f7074696f6e2074686174206578697374736000830152602082019050919050565b60006137d26006836145c4565b91507f526567696f6e00000000000000000000000000000000000000000000000000006000830152600682019050919050565b60006138126013836145b3565b91507f455252353a205369676e6572203d2074727565000000000000000000000000006000830152602082019050919050565b6000613852601a836145b3565b91507f45525231303a204361736520646f6573206e6f742065786973740000000000006000830152602082019050919050565b6000613892600a836145c4565b91507f636173654e756d626572000000000000000000000000000000000000000000006000830152600a82019050919050565b60006138d26005836145c4565b91507f5469746c650000000000000000000000000000000000000000000000000000006000830152600582019050919050565b60006139126009836145c4565b91507f55736572205479706500000000000000000000000000000000000000000000006000830152600982019050919050565b60006139526008836145c4565b91507f526567696f6e616c0000000000000000000000000000000000000000000000006000830152600882019050919050565b6000613992601e836145b3565b91507f455252313a204e6f7420526567696f6e616c206f72204e6174696f6e616c00006000830152602082019050919050565b60006139d26018836145b3565b91507f455252343a205265717569726520526567204f52204e617400000000000000006000830152602082019050919050565b6000613a126019836145b3565b91507f45525231323a206d73672e73656e646572203d2066616c7365000000000000006000830152602082019050919050565b6000613a526008836145c4565b91507f5374616e646172640000000000000000000000000000000000000000000000006000830152600882019050919050565b6000613a92600f836145c4565b91507f4f70656e20466f7220566f74696e6700000000000000000000000000000000006000830152600f82019050919050565b6000613ad26010836145c4565b91507f43617365204465616374697661746564000000000000000000000000000000006000830152601082019050919050565b6000613b126013836145b3565b91507f4361736520646f6573206e6f74206578697374000000000000000000000000006000830152602082019050919050565b6000613b526012836145c4565b91507f57616974696e67466f72417070726f76616c00000000000000000000000000006000830152601282019050919050565b6000613b92600b836145c4565b91507f546f74616c20566f7465730000000000000000000000000000000000000000006000830152600b82019050919050565b6000613bd2601e836145b3565b91507f455252373a204e6f74204f70656e20466f7220566f74696e67205965742100006000830152602082019050919050565b6000613c12600c836145c4565b91507f416c7465726e61746976657300000000000000000000000000000000000000006000830152600c82019050919050565b6000613c52600a836145c4565b91507f496b6b65205374656d74000000000000000000000000000000000000000000006000830152600a82019050919050565b6000613c926017836145b3565b91507f455252333a20636865636b5573657254797065426f6f6c0000000000000000006000830152602082019050919050565b6000613cd26005836145c4565b91507f4c696d69740000000000000000000000000000000000000000000000000000006000830152600582019050919050565b6000613d126009836145c4565b91507f417070726f76616c7300000000000000000000000000000000000000000000006000830152600982019050919050565b6000613d526008836145c4565b91507f446561646c696e650000000000000000000000000000000000000000000000006000830152600882019050919050565b6000613d926008836145c4565b91507f4e6174696f6e616c0000000000000000000000000000000000000000000000006000830152600882019050919050565b6000613dd26015836145b3565b91507f45525231333a206f70656e203d2066616c7365205800000000000000000000006000830152602082019050919050565b613e0e8161460d565b82525050565b613e1d8161460d565b82525050565b613e34613e2f8261460d565b6146c5565b82525050565b6000613e468284613381565b60148201915081905092915050565b6000613e618284613491565b915081905092915050565b6000613e788284613591565b915081905092915050565b6000613e8f8285613591565b9150613e9b8284613591565b91508190509392505050565b6000613eb38287613591565b9150613ebf8286613591565b9150613ecb8285613e23565b602082019150613edb828461347a565b600182019150613eea82613c45565b915081905095945050505050565b6000613f048284613591565b9150613f0f82613945565b915081905092915050565b6000613f268284613591565b9150613f3182613a45565b915081905092915050565b6000613f488284613591565b9150613f5382613d85565b915081905092915050565b6000613f6a8284613651565b915081905092915050565b6000613f818285613651565b9150613f8d8284613591565b91508190509392505050565b6000613fa58288613651565b9150613fb18287613651565b9150613fbd8286613e23565b602082019150613fcd828561347a565b600182019150613fdd8284613651565b91508190509695505050505050565b6000613ff7826136df565b9150819050919050565b600061400c826137c5565b9150819050919050565b600061402182613885565b9150819050919050565b6000614036826138c5565b9150819050919050565b600061404b82613905565b9150819050919050565b600061406082613a85565b9150819050919050565b600061407582613ac5565b9150819050919050565b600061408a82613b45565b9150819050919050565b600061409f82613b85565b9150819050919050565b60006140b482613c05565b9150819050919050565b60006140c982613cc5565b9150819050919050565b60006140de82613d05565b9150819050919050565b60006140f382613d45565b9150819050919050565b60006141098285613e23565b602082019150614119828461347a565b6001820191508190509392505050565b600060408201905081810360008301526141438185613398565b90508181036020830152614157818461340d565b90509392505050565b6000602082019050818103600083015261417a8184613558565b905092915050565b6000604082019050818103600083015261419c8185613558565b90506141ab6020830184613e14565b9392505050565b600060c08201905081810360008301526141cc8189613558565b90506141db6020830188613e14565b6141e86040830187613e14565b6141f5606083018661346b565b81810360808301526142078185613398565b905081810360a083015261421b818461340d565b9050979650505050505050565b6000604082019050818103600083015261424281856135c2565b9050614251602083018461346b565b9392505050565b6000604082019050818103600083015261427281856135c2565b90506142816020830184613e14565b9392505050565b600060208201905081810360008301526142a18161371f565b9050919050565b600060208201905081810360008301526142c181613785565b9050919050565b600060208201905081810360008301526142e181613805565b9050919050565b6000602082019050818103600083015261430181613845565b9050919050565b6000602082019050818103600083015261432181613985565b9050919050565b60006020820190508181036000830152614341816139c5565b9050919050565b6000602082019050818103600083015261436181613a05565b9050919050565b6000602082019050818103600083015261438181613b05565b9050919050565b600060208201905081810360008301526143a181613bc5565b9050919050565b600060208201905081810360008301526143c181613c85565b9050919050565b600060208201905081810360008301526143e181613dc5565b9050919050565b60006020820190506143fd6000830184613e14565b92915050565b60006040820190506144186000830185613e14565b6144256020830184613e14565b9392505050565b60006060820190506144416000830186613e14565b61444e6020830185613e14565b61445b6040830184613372565b949350505050565b6000604051905081810181811067ffffffffffffffff8211171561448a576144896146e1565b5b8060405250919050565b600067ffffffffffffffff8211156144af576144ae6146e1565b5b602082029050602081019050919050565b600067ffffffffffffffff8211156144db576144da6146e1565b5b601f19601f8301169050602081019050919050565b6000819050602082019050919050565b6000819050602082019050919050565b60008190508160005260206000209050919050565b60008190508160005260206000209050919050565b600081519050919050565b600081519050919050565b600081519050919050565b6000602082019050919050565b6000602082019050919050565b600082825260208201905092915050565b600082825260208201905092915050565b600081905092915050565b600082825260208201905092915050565b600082825260208201905092915050565b600081905092915050565b60006145da826145ed565b9050919050565b60008115159050919050565b600073ffffffffffffffffffffffffffffffffffffffff82169050919050565b6000819050919050565b600061462282614629565b9050919050565b60006146348261463b565b9050919050565b6000614646826145ed565b9050919050565b82818337600083830152505050565b60005b8381101561467a57808201518184015260208101905061465f565b83811115614689576000848401525b50505050565b600061469a826146b3565b9050919050565b60006146ac826146cf565b9050919050565b60006146be82614701565b9050919050565b6000819050919050565b60006146da826146f4565b9050919050565bfe5b6000601f19601f8301169050919050565b60008160f81b9050919050565b60008160601b9050919050565b6147178161460d565b811461472257600080fd5b5056fe536166654d6174683a206d756c7469706c69636174696f6e206f766572666c6f77a2646970667358221220dbec13256144b6b61481ec883c0daccad67821baa619506a707f4232298ab90164736f6c63430007050033",
  "immutableReferences": {},
  "source": "//SPDX-License-Identifier: MIT\npragma solidity 0.7.5;\npragma abicoder v2;\n\nimport \"./Ownable.sol\";\nimport \"./MultiSig.sol\";\n\ncontract Case is Ownable, MultiSig {\n\n    constructor() {\n        initialize(msg.sender);\n    }\n    \n    function createUser(string memory _region, string memory _userType) public {\n        _users[msg.sender]._stringUser[\"Region\"] = _region;\n        _users[msg.sender]._stringUser[\"User Type\"] = _userType;\n        \n        _addressArrayStorage[ string(abi.encodePacked(_region,_userType)) ].push(msg.sender); // makes array based on region and usertype\n    }\n    \n    function getUserArrayLength(string memory _region, string memory _userType) public view returns(uint){\n        return _addressArrayStorage[ string(abi.encodePacked(_region,_userType)) ].length;\n    }\n    \n    function initialize(address _owner) private {\n        require(!_boolStorage[\"initialized\"], \"ERR6: initialized\");\n        _addressStorage[\"owner\"] = _owner;\n        _boolStorage[\"initialized\"] = true;\n    }\n\n    event caseCreated(string title, bool openForVoting);\n    event caseDeleted(string title, bool openForVoting);\n    event votingOpened(uint256 caseNumber, string title);\n    event votingClosed(uint256 caseNumber, string title);\n    \n    function approvalZ(uint _caseNumber) public {\n        approve(_caseNumber);\n    }\n    \n    function getSigningRequestsZ(uint _caseNumber) public view returns(string memory, uint){\n        return getSigningRequests(_caseNumber);\n    }\n    \n    function returnLimitApproval(uint _caseNumber) public view returns(uint){\n        return _cases[_caseNumber]._uintCase[\"Limit\"];\n    }\n    \n    function returnTotalVotes(uint _caseNumber) public view returns(uint){\n        return _cases[_caseNumber]._uintCase[\"Total Votes\"];\n    }\n\n    function getApprovalZ(uint _caseNumber) public view returns(uint){\n        return getApproval(_caseNumber);\n    }\n\n    function createCase(string memory _title, uint256 _deadline, string[] memory _alternatives) public {\n        require(checkUserTypeBool(),\"ERR1: Not Regional or National\"); // checks that the userType is \"Regional\" or \"National\"\n        _uintStorage[\"caseNumber\"] = SafeMath.add(_uintStorage[\"caseNumber\"], 1); // \"Global\" Case Number Counter\n        uint caseNumber = _uintStorage[\"caseNumber\"];\n        string memory _region = _users[msg.sender]._stringUser[\"Region\"];\n        // This creates a case\n        _cases[caseNumber]._stringCase[\"Title\"] = _title;\n        _cases[caseNumber]._stringCase[\"Region\"] = _region; // Case-region used from user\n        \n        // tall p antall stemer som trengs \"((((7 *10) /2) +5) /10)\" for  approve casen i MultiSig\n        _cases[caseNumber]._uintCase[\"Limit\"] = \n        SafeMath.div(\n            SafeMath.add(\n                SafeMath.div(\n                    SafeMath.mul(\n                        _addressArrayStorage[ string(abi.encodePacked(_region,checkUserTypeString())) ].length, \n                    10),\n                2),\n            5),\n        10);\n        \n        // totalVotes = Standard+Regional+National\n        _cases[caseNumber]._uintCase[\"Total Votes\"] = _addressArrayStorage[ string(abi.encodePacked(_region,\"Standard\")) ].length;\n        _cases[caseNumber]._uintCase[\"Total Votes\"] += _addressArrayStorage[ string(abi.encodePacked(_region,\"Regional\")) ].length;\n        _cases[caseNumber]._uintCase[\"Total Votes\"] += _addressArrayStorage[ string(abi.encodePacked(_region,\"National\")) ].length;\n\n        _cases[caseNumber]._uintCase[\"Deadline\"] = _deadline;\n        _cases[caseNumber]._boolCase[\"open For Voting\"] = false;\n        _cases[caseNumber]._boolCase[\"Case Deactivated\"] = false;\n\n        //adding first alternative to Array and giving it all the votes\n        _cases[caseNumber]._stringArrayCase[\"Alternatives\"].push(\"Ikke Stemt\");\n        _cases[caseNumber]._uintArrayCase[\"Alternatives\"].push(_cases[caseNumber]._uintCase[\"Total Votes\"]);\n\n        for(uint i = 0; i < _alternatives.length; i++){\n            _cases[caseNumber]._stringArrayCase[\"Alternatives\"].push(_alternatives[i]);\n            _cases[caseNumber]._uintArrayCase[\"Alternatives\"].push(0);\n        }\n        \n        // checks if the information that is going to be stored is the same as the information entered into the function\n        for(uint i = 0; i < _alternatives.length; i++){\n            assert(keccak256(abi.encodePacked(_cases[caseNumber]._stringArrayCase[\"Alternatives\"][i+1])) == keccak256(abi.encodePacked(_alternatives[i])));\n            assert(_cases[caseNumber]._uintArrayCase[\"Alternatives\"][i+1] == 0);\n        }\n\n        assert(keccak256(abi.encodePacked(\n                    _cases[caseNumber]._stringCase[\"Title\"],\n                    _cases[caseNumber]._stringCase[\"Region\"],\n                    _cases[caseNumber]._uintCase[\"Deadline\"],\n                    _cases[caseNumber]._boolCase[\"open For Voting\"],\n                    //_cases[caseNumber]._uintCase[\"Total Votes\"],\n                    _cases[caseNumber]._stringArrayCase[\"Alternatives\"][0]\n                    // _cases[caseNumber]._uintArrayCase[\"Alternatives\"][0]\n                ))\n            ==\n            keccak256(abi.encodePacked(\n                    _title,\n                    _region,\n                    _deadline,\n                    false,\n                    //_totalVotes,\n                    \"Ikke Stemt\"\n                    // _totalVotes\n                ))\n        );\n        assert(_cases[caseNumber]._uintCase[\"Limit\"]%2 != 0);\n        emit caseCreated(_cases[caseNumber]._stringCase[\"Title\"], _cases[caseNumber]._boolCase[\"Open For Voting\"]);\n        \n        publishForApproval(caseNumber);\n    }\n\n    function getCase(uint _caseNumber) public view returns(string memory _title, uint _deadline, uint _totalVotes, bool _openForVoting, string[] memory _alternatives, uint[] memory _num){\n        require(!_cases[_caseNumber]._boolCase[\"Case Deactivated\"], \"ERR9: This case has been deactivated\");\n        require(_caseNumber <= _uintStorage[\"caseNumber\"] && _caseNumber != 0, \"ERR10: Case does not exist\");\n        return (_cases[_caseNumber]._stringCase[\"Title\"],               _cases[_caseNumber]._uintCase[\"Deadline\"], \n                _cases[_caseNumber]._uintCase[\"Total Votes\"],           _cases[_caseNumber]._boolCase[\"Open For Voting\"], \n                _cases[_caseNumber]._stringArrayCase[\"Alternatives\"],   _cases[_caseNumber]._uintArrayCase[\"Alternatives\"]\n        );\n    }\n\n    // Problematisk  slette? Ligger p BC, s det gr vel ikke akkurat  gjre, bygge om til deactivate?\n    function deleteCase(uint _caseNumber) public onlyOwner {\n        require(!_cases[_caseNumber]._boolCase[\"Open For Voting\"]);\n\n        _cases[_caseNumber]._boolCase[\"Case Deactivated\"] = true;\n\n        emit caseDeleted(_cases[_caseNumber]._stringCase[\"Title\"], _cases[_caseNumber]._boolCase[\"Open For Voting\"]);\n   }\n   \n   function vote (uint256 _caseNumber, uint256 _optionVoted) public {\n       // time logic?\n        require(_cases[_caseNumber]._boolCase[\"Open For Voting\"], \"ERR7: Not Open For Voting Yet!\");  // Checks if the case is open for voting\n        require(_optionVoted <= _cases[_caseNumber]._uintArrayCase[\"Alternatives\"].length, \"ERR8: Pick an option that exists\");   // Checks that the option exists\n\n        if(_cases[_caseNumber]._boolCase[string(abi.encodePacked(msg.sender))]) { // Has voted\n            _cases[_caseNumber]._uintArrayCase[\"Alternatives\"][_cases[_caseNumber]._uintCase[string(abi.encodePacked(msg.sender))]] = \n                SafeMath.sub(_cases[_caseNumber]._uintArrayCase[\"Alternatives\"][_cases[_caseNumber]._uintCase[string(abi.encodePacked(msg.sender))]], 1); // SUBTRACT\n        } else { // Has not voted\n            _cases[_caseNumber]._boolCase[string(abi.encodePacked(msg.sender))] = true; // VOTING = TRUE\n            _cases[_caseNumber]._uintArrayCase[\"Alternatives\"][0] = SafeMath.sub(_cases[_caseNumber]._uintArrayCase[\"Alternatives\"][0], 1); // SUBTRACT\n        }\n        _cases[_caseNumber]._uintArrayCase[\"Alternatives\"][_optionVoted] = SafeMath.add(_cases[_caseNumber]._uintArrayCase[\"Alternatives\"][_optionVoted], 1); // ADD\n\n        uint256 oldVote = _cases[_caseNumber]._uintCase[string(abi.encodePacked(msg.sender))];\n        _cases[_caseNumber]._uintCase[string(abi.encodePacked(msg.sender))] = _optionVoted; // Map msg.sender => _optionVoted\n\n        assert(_optionVoted != oldVote); // vote has changed\n        assert(keccak256(abi.encodePacked( \n                    _cases[_caseNumber]._uintCase[string(abi.encodePacked(msg.sender))],\n                    _cases[_caseNumber]._boolCase[string(abi.encodePacked(msg.sender))]\n                ))\n            == keccak256(abi.encodePacked(\n                    _optionVoted,\n                    true\n                ))\n        );\n   }\n\n   function getAlternatives(uint256 _caseNumber) public view returns(string[] memory, uint256[] memory){\n        return (_cases[_caseNumber]._stringArrayCase[\"Alternatives\"], _cases[_caseNumber]._uintArrayCase[\"Alternatives\"]);\n   }\n\n   function getMyVote(uint256 _caseNumber) public view returns(string memory){\n      require(_caseNumber <= _uintStorage[\"caseNumber\"] && _caseNumber != 0, \"Case does not exist\");\n        return ( _cases[_caseNumber]._stringArrayCase[\"Alternatives\"][ _cases[_caseNumber]._uintCase[string(abi.encodePacked(msg.sender))] ] );\n   }\n\n// testing time logic\n    uint time;\n    \n    function test(uint _deadline_in_x_days) public returns(uint, uint){\n        time = block.timestamp + _deadline_in_x_days*5; // blir deadline\n        return (time, block.timestamp);\n    }\n    \n    function tryer() public view returns(string memory ads){\n        if(time > block.timestamp){\n            return \"wait for time to pass\";\n        } else {\n            return \"now is after deadline\";\n        }\n    }\n\n}",
  "sourcePath": "/Users/alex/Library/Mobile Documents/com~apple~CloudDocs/UiA/DAT304V21 - Oppgave/ChainVote/BackEnd/contracts/Case.sol",
  "compiler": {
    "name": "solc",
    "version": "0.7.5+commit.eb77ed08.Emscripten.clang"
  },
  "schemaVersion": "3.3.4",
  "updatedAt": "2021-03-29T07:38:57.311Z",
  "networkType": "ethereum",
  "devdoc": {
    "kind": "dev",
    "methods": {},
    "version": 1
  },
  "userdoc": {
    "kind": "user",
    "methods": {},
    "version": 1
  }
}