{
  "contractName": "MultiSig",
  "abi": [
    {
      "anonymous": false,
      "inputs": [
        {
          "indexed": false,
          "internalType": "uint256",
          "name": "_caseNumber",
          "type": "uint256"
        },
        {
          "indexed": false,
          "internalType": "uint256",
          "name": "_approvals",
          "type": "uint256"
        },
        {
          "indexed": false,
          "internalType": "address",
          "name": "_approver",
          "type": "address"
        }
      ],
      "name": "ApprovalReceived",
      "type": "event"
    },
    {
      "anonymous": false,
      "inputs": [
        {
          "indexed": false,
          "internalType": "uint256",
          "name": "_caseNumber",
          "type": "uint256"
        }
      ],
      "name": "CaseApproved",
      "type": "event"
    },
    {
      "anonymous": false,
      "inputs": [
        {
          "indexed": false,
          "internalType": "string",
          "name": "title",
          "type": "string"
        },
        {
          "indexed": false,
          "internalType": "uint256",
          "name": "_caseNumber",
          "type": "uint256"
        }
      ],
      "name": "SigningRequestCreated",
      "type": "event"
    },
    {
      "inputs": [
        {
          "internalType": "uint256",
          "name": "_caseNumber",
          "type": "uint256"
        }
      ],
      "name": "getApproval",
      "outputs": [
        {
          "internalType": "uint256",
          "name": "",
          "type": "uint256"
        }
      ],
      "stateMutability": "view",
      "type": "function"
    }
  ],
  "bytecode": "0x608060405234801561001057600080fd5b506101b9806100206000396000f3fe608060405234801561001057600080fd5b506004361061002b5760003560e01c8063f658518a14610030575b600080fd5b61004a600480360381019061004591906100af565b610060565b604051610057919061013c565b60405180910390f35b60006008600083815260200190815260200160002060000160405161008490610127565b9081526020016040518091039020549050919050565b6000813590506100a98161016c565b92915050565b6000602082840312156100c157600080fd5b60006100cf8482850161009a565b91505092915050565b60006100e5600983610157565b91507f417070726f76616c7300000000000000000000000000000000000000000000006000830152600982019050919050565b61012181610162565b82525050565b6000610132826100d8565b9150819050919050565b60006020820190506101516000830184610118565b92915050565b600081905092915050565b6000819050919050565b61017581610162565b811461018057600080fd5b5056fea2646970667358221220c96ef4d9b6c83a5dc05efeb0d03b512a418f34f32c3827937f3f1253429057c564736f6c63430007050033",
  "immutableReferences": {},
  "source": "//SPDX-License-Identifier: MIT\npragma solidity 0.7.5;\npragma abicoder v2;\n\nimport \"./Storage.sol\";\n\ncontract MultiSig is Storage{\n    \n    event SigningRequestCreated(string title,uint _caseNumber);\n    event ApprovalReceived(uint _caseNumber, uint _approvals, address _approver);\n    event CaseApproved(uint _caseNumber);\n\n    // Checks that only \"Regional\" or \"National\" userType can run the function\n    modifier onlyOwners(uint _caseNumber){\n        bool signer = false;\n        \n        for(uint i = 0; i< _addressArrayStorage[ string(abi.encodePacked(_cases[_caseNumber]._stringCase[\"Region\"], checkUserTypeString())) ].length ; i++){\n            if(_addressArrayStorage[ string(abi.encodePacked(_cases[_caseNumber]._stringCase[\"Region\"],checkUserTypeString())) ][i] == msg.sender){\n                signer = true;\n            }\n        }\n        require(signer == true, \"ERR5: Signer = true\");\n        _;\n    }\n    \n    // Checks if userType is Regional or National, returns either, returns nothing if userType is Standard\n    function checkUserTypeString() internal view returns(string memory returnVal) {\n        require(checkUserTypeBool(), \"ERR3: checkUserTypeBool\");\n        if(keccak256(bytes(_users[msg.sender]._stringUser[\"User Type\"])) == keccak256(bytes(\"Regional\"))){\n            return (\"Regional\");\n        } else if(keccak256(bytes(_users[msg.sender]._stringUser[\"User Type\"])) == keccak256(bytes(\"National\"))){\n            return (\"National\");\n        } \n    }\n    \n    function checkUserTypeBool() internal view returns(bool returnVal) {\n        require(keccak256(bytes(_users[msg.sender]._stringUser[\"User Type\"])) == keccak256(bytes(\"Regional\")) ||\n                keccak256(bytes(_users[msg.sender]._stringUser[\"User Type\"])) == keccak256(bytes(\"National\")),  \"ERR4: Require Reg OR Nat\");\n        return true;\n    }\n\n    // Create an instance of the Sign struct and add it to the SigningRequests array\n    function publishForApproval(uint _caseNumber) internal onlyOwners(_caseNumber) {\n        _cases[_caseNumber]._uintCase[\"Approvals\"] = 0;\n        // legges til i lista\n        _uintArrayStorage[\"WaitingForApproval\"].push(_caseNumber);\n        \n        emit SigningRequestCreated(_cases[_caseNumber]._stringCase[\"Title\"], _caseNumber);\n    }\n    \n    // APPROVE NOT WORKING\n    function approve(uint _caseNumber) internal onlyOwners(_caseNumber) {\n        require(_cases[_caseNumber]._boolCase[string(abi.encodePacked(msg.sender))] == false, \"ERR12: msg.sender = false\");  // checks if user has approved\n        require(_cases[_caseNumber]._boolCase[\"Open For Voting\"] == false, \"ERR13: open = false X\");                     // checks if case is approved\n\n        _cases[_caseNumber]._boolCase[string(abi.encodePacked(msg.sender))] = true; // user has approved\n        //SafeMath.add(_cases[_caseNumber]._uintCase[\"Approvals\"], 1); // increase by 1\n        _cases[_caseNumber]._uintCase[\"Approvals\"]+=1; // increase by 1\n        \n        emit ApprovalReceived(_caseNumber, _cases[_caseNumber]._uintCase[\"Approvals\"], msg.sender);\n        \n        if(_cases[_caseNumber]._uintCase[\"Approvals\"] >= _cases[_caseNumber]._uintCase[\"Limit\"]){\n            //When enough signatures are received, will open the case for voting. Change \"OpenforVoting\" bool to true. \n            _cases[_caseNumber]._boolCase[\"Open For Voting\"] = true;\n            // fjernes fra waiting lista\n            \n            emit CaseApproved(_caseNumber);\n        }\n        assert(_cases[_caseNumber]._boolCase[string(abi.encodePacked(msg.sender))] == true);\n    }\n    \n    function getSigningRequests(uint _caseNumber) internal view returns(string memory, uint) {\n        uint number = (_cases[_caseNumber]._uintCase[\"Approvals\"]*100);\n        uint number2 = (_cases[_caseNumber]._uintCase[\"Total Votes\"]*100);\n        uint number3 = number/number2;\n        \n        return (\"Percent signed(%): \", number3);\n    }\n\n    function getApproval(uint _caseNumber) public view returns(uint){\n        return _cases[_caseNumber]._uintCase[\"Approvals\"];\n    }\n}",
  "sourcePath": "/Users/alex/Library/Mobile Documents/com~apple~CloudDocs/UiA/DAT304V21 - Oppgave/ChainVote/BackEnd/contracts/MultiSig.sol",
  "compiler": {
    "name": "solc",
    "version": "0.7.5+commit.eb77ed08.Emscripten.clang"
  },
  "schemaVersion": "3.3.4",
  "updatedAt": "2021-03-27T01:11:29.961Z",
  "devdoc": {
    "kind": "dev",
    "methods": {},
    "version": 1
  },
  "userdoc": {
    "kind": "user",
    "methods": {},
    "version": 1
  }
}