{
  "contractName": "MultiSigCase",
  "abi": [
    {
      "anonymous": false,
      "inputs": [
        {
          "indexed": false,
          "internalType": "uint256",
          "name": "caseNumber",
          "type": "uint256"
        },
        {
          "indexed": false,
          "internalType": "string",
          "name": "title",
          "type": "string"
        }
      ],
      "name": "caseApprovedE",
      "type": "event"
    },
    {
      "anonymous": false,
      "inputs": [
        {
          "indexed": false,
          "internalType": "bool",
          "name": "confirmation",
          "type": "bool"
        }
      ],
      "name": "confirmationE",
      "type": "event"
    },
    {
      "inputs": [
        {
          "internalType": "uint256",
          "name": "_caseNumber",
          "type": "uint256"
        }
      ],
      "name": "approve",
      "outputs": [],
      "stateMutability": "nonpayable",
      "type": "function"
    }
  ],
  "bytecode": "0x608060405234801561001057600080fd5b50611271806100206000396000f3fe608060405234801561001057600080fd5b506004361061002b5760003560e01c8063b759f95414610030575b600080fd5b61004a600480360381019061004591906109a2565b61004c565b005b61005581610488565b610094576040517f08c379a000000000000000000000000000000000000000000000000000000000815260040161008b9061108c565b60405180910390fd5b60006040516100a290611007565b90815260200160405180910390205481111580156100c1575060008114155b610100576040517f08c379a00000000000000000000000000000000000000000000000000000000081526004016100f7906110cc565b60405180910390fd5b60086000828152602001908152602001600020600401336040516020016101279190610f1c565b6040516020818303038152906040526040516101439190610f4e565b908152602001604051809103902060009054906101000a900460ff161561019f576040517f08c379a0000000000000000000000000000000000000000000000000000000008152600401610196906110ac565b60405180910390fd5b600860008281526020019081526020016000206004016040516101c190610fb3565b908152602001604051809103902060009054906101000a900460ff161561021d576040517f08c379a00000000000000000000000000000000000000000000000000000000081526004016102149061106c565b60405180910390fd5b600160086000838152602001908152602001600020600401336040516020016102469190610f1c565b6040516020818303038152906040526040516102629190610f4e565b908152602001604051809103902060006101000a81548160ff0219169083151502179055506001600860008381526020019081526020016000206000016040516102ab90610fdd565b908152602001604051809103902060008282540192505081905550600860008281526020019081526020016000206000016040516102e890610f89565b9081526020016040518091039020546008600083815260200190815260200160002060000160405161031990610fdd565b908152602001604051809103902054106103e85760016008600083815260200190815260200160002060040160405161035190610fb3565b908152602001604051809103902060006101000a81548160ff02191690831515021790555061037f81610855565b7f2f99e89675af6c394ff122fdcb4404ec5104d9994f419cad7e9f2826d56d3e8e81600860008481526020019081526020016000206002016040516103c390610fc8565b90815260200160405180910390206040516103df9291906110ec565b60405180910390a15b600860008281526020019081526020016000206004013360405160200161040f9190610f1c565b60405160208183030381529060405260405161042b9190610f4e565b908152602001604051809103902060009054906101000a900460ff1661044d57fe5b7f0fa90349e70db5de13ccb54f6242579cf335e306530d405143d66bc412f0298f600160405161047d9190611031565b60405180910390a150565b60006040518060400160405280600581526020017f41646d696e00000000000000000000000000000000000000000000000000000081525080519060200120600960003373ffffffffffffffffffffffffffffffffffffffff1673ffffffffffffffffffffffffffffffffffffffff1681526020019081526020016000206002016040516105159061101c565b90815260200160405180910390206040516105309190610f37565b604051809103902014806105ef57506040518060400160405280600a81526020017f537570657241646d696e0000000000000000000000000000000000000000000081525080519060200120600960003373ffffffffffffffffffffffffffffffffffffffff1673ffffffffffffffffffffffffffffffffffffffff1681526020019081526020016000206002016040516105ca9061101c565b90815260200160405180910390206040516105e59190610f37565b6040518091039020145b61062e576040517f08c379a00000000000000000000000000000000000000000000000000000000081526004016106259061104c565b60405180910390fd5b60005b60046008600085815260200190815260200160002060020160405161065590610f9e565b9081526020016040518091039020600960003373ffffffffffffffffffffffffffffffffffffffff1673ffffffffffffffffffffffffffffffffffffffff1681526020019081526020016000206002016040516106b19061101c565b90815260200160405180910390206040516020016106d0929190610f65565b6040516020818303038152906040526040516106ec9190610f4e565b90815260200160405180910390208054905081101561084e573373ffffffffffffffffffffffffffffffffffffffff1660046008600086815260200190815260200160002060020160405161074090610f9e565b9081526020016040518091039020600960003373ffffffffffffffffffffffffffffffffffffffff1673ffffffffffffffffffffffffffffffffffffffff16815260200190815260200160002060020160405161079c9061101c565b90815260200160405180910390206040516020016107bb929190610f65565b6040516020818303038152906040526040516107d79190610f4e565b908152602001604051809103902082815481106107f057fe5b9060005260206000200160009054906101000a900473ffffffffffffffffffffffffffffffffffffffff1673ffffffffffffffffffffffffffffffffffffffff161415610841576001915050610850565b8080600101915050610631565b505b919050565b60005b600160405161086690610ff2565b9081526020016040518091039020805490508110156109895781600160405161088e90610ff2565b908152602001604051809103902082815481106108a757fe5b9060005260206000200154141561097c5760016040516108c690610ff2565b90815260200160405180910390206001806040516108e390610ff2565b908152602001604051809103902080549050038154811061090057fe5b9060005260206000200154600160405161091990610ff2565b9081526020016040518091039020828154811061093257fe5b9060005260206000200181905550600160405161094e90610ff2565b908152602001604051809103902080548061096557fe5b600190038181906000526020600020016000905590555b8080600101915050610858565b5050565b60008135905061099c81611224565b92915050565b6000602082840312156109b457600080fd5b60006109c28482850161098d565b91505092915050565b6109dc6109d782611178565b6111f3565b82525050565b6109eb8161118a565b82525050565b600081546001811660008114610a0e5760018114610a3357610a77565b607f6002830416610a1f8187611151565b955060ff1983168652808601935050610a77565b60028204610a418187611151565b9550610a4c8561111c565b60005b82811015610a6e57815481890152600182019150602081019050610a4f565b82880195505050505b505092915050565b6000610a8a82611146565b610a94818561116d565b9350610aa48185602086016111c0565b80840191505092915050565b600081546001811660008114610acd5760018114610af357610b37565b607f6002830416610ade818761115c565b955060ff198316865260208601935050610b37565b60028204610b01818761115c565b9550610b0c85611131565b60005b82811015610b2e57815481890152600182019150602081019050610b0f565b80880195505050505b505092915050565b600081546001811660008114610b5c5760018114610b8157610bc5565b607f6002830416610b6d818761116d565b955060ff1983168652808601935050610bc5565b60028204610b8f818761116d565b9550610b9a85611131565b60005b82811015610bbc57815481890152600182019150602081019050610b9d565b82880195505050505b505092915050565b6000610bda600f8361116d565b91507f417070726f76616c734e656564656400000000000000000000000000000000006000830152600f82019050919050565b6000610c1a60068361116d565b91507f526567696f6e00000000000000000000000000000000000000000000000000006000830152600682019050919050565b6000610c5a600d8361116d565b91507f4f70656e466f72566f74696e67000000000000000000000000000000000000006000830152600d82019050919050565b6000610c9a60058361115c565b91507f45525231360000000000000000000000000000000000000000000000000000006000830152602082019050919050565b6000610cda60058361115c565b91507f45525231390000000000000000000000000000000000000000000000000000006000830152602082019050919050565b6000610d1a60058361116d565b91507f5469746c650000000000000000000000000000000000000000000000000000006000830152600582019050919050565b6000610d5a600f8361116d565b91507f417070726f76616c735369676e656400000000000000000000000000000000006000830152600f82019050919050565b6000610d9a60058361115c565b91507f45525232310000000000000000000000000000000000000000000000000000006000830152602082019050919050565b6000610dda60128361116d565b91507f57616974696e67466f72417070726f76616c00000000000000000000000000006000830152601282019050919050565b6000610e1a60058361115c565b91507f45525231380000000000000000000000000000000000000000000000000000006000830152602082019050919050565b6000610e5a60058361115c565b91507f45525231370000000000000000000000000000000000000000000000000000006000830152602082019050919050565b6000610e9a600a8361116d565b91507f436173654e756d626572000000000000000000000000000000000000000000006000830152600a82019050919050565b6000610eda60088361116d565b91507f55736572547970650000000000000000000000000000000000000000000000006000830152600882019050919050565b610f16816111b6565b82525050565b6000610f2882846109cb565b60148201915081905092915050565b6000610f4382846109f1565b915081905092915050565b6000610f5a8284610a7f565b915081905092915050565b6000610f718285610b3f565b9150610f7d8284610b3f565b91508190509392505050565b6000610f9482610bcd565b9150819050919050565b6000610fa982610c0d565b9150819050919050565b6000610fbe82610c4d565b9150819050919050565b6000610fd382610d0d565b9150819050919050565b6000610fe882610d4d565b9150819050919050565b6000610ffd82610dcd565b9150819050919050565b600061101282610e8d565b9150819050919050565b600061102782610ecd565b9150819050919050565b600060208201905061104660008301846109e2565b92915050565b6000602082019050818103600083015261106581610c8d565b9050919050565b6000602082019050818103600083015261108581610ccd565b9050919050565b600060208201905081810360008301526110a581610d8d565b9050919050565b600060208201905081810360008301526110c581610e0d565b9050919050565b600060208201905081810360008301526110e581610e4d565b9050919050565b60006040820190506111016000830185610f0d565b81810360208301526111138184610ab0565b90509392505050565b60008190508160005260206000209050919050565b60008190508160005260206000209050919050565b600081519050919050565b600081905092915050565b600082825260208201905092915050565b600081905092915050565b600061118382611196565b9050919050565b60008115159050919050565b600073ffffffffffffffffffffffffffffffffffffffff82169050919050565b6000819050919050565b60005b838110156111de5780820151818401526020810190506111c3565b838111156111ed576000848401525b50505050565b60006111fe82611205565b9050919050565b600061121082611217565b9050919050565b60008160601b9050919050565b61122d816111b6565b811461123857600080fd5b5056fea2646970667358221220a67bb16ca06e3fd4624cf877ea3be519418aabb14f93cc339caa8032710d4fcf64736f6c63430007050033",
  "immutableReferences": {},
  "source": "// SPDX-License-Identifier: UNLICENSED\npragma solidity 0.7.5;\npragma abicoder v2;\n\nimport \"./Storage.sol\";\n\ncontract MultiSigCase is Storage{\n\n    event caseApprovedE(uint256 caseNumber, string title);\n    event confirmationE(bool confirmation);\n\n    // Checks that only \"Admin\" or \"SuperAdmin\" userType can run the function\n    function decitionmaker(uint256 _caseNumber) internal view returns(bool o){\n        require(keccak256(bytes(_users[msg.sender]._stringUser[\"UserType\"])) == keccak256(bytes(\"Admin\")) ||\n            keccak256(bytes(_users[msg.sender]._stringUser[\"UserType\"])) == keccak256(bytes(\"SuperAdmin\")) , \"ERR16\");\n\n        for(uint256 i = 0; i< _addressArrayStorage[ string(abi.encodePacked(_cases[_caseNumber]._stringCase[\"Region\"], _users[msg.sender]._stringUser[\"UserType\"] )) ].length ; i++){\n            if(_addressArrayStorage[ string(abi.encodePacked(_cases[_caseNumber]._stringCase[\"Region\"], _users[msg.sender]._stringUser[\"UserType\"] )) ][i] == msg.sender){\n                return true;\n            }\n        }\n    }\n        \n    function approve(uint256 _caseNumber) public {\n        require(decitionmaker(_caseNumber), \"ERR21\");\n        require(_caseNumber <= _uintStorage[\"CaseNumber\"] && _caseNumber != 0, \"ERR17\");\n        require(!_cases[_caseNumber]._boolCase[string(abi.encodePacked(msg.sender))], \"ERR18\");\n        require(!_cases[_caseNumber]._boolCase[\"OpenForVoting\"], \"ERR19\");\n\n        _cases[_caseNumber]._boolCase[string(abi.encodePacked(msg.sender))] = true; // user has approved\n        _cases[_caseNumber]._uintCase[\"ApprovalsSigned\"] += 1; // increase by 1\n        \n        // Over half approvals opens case for voting\n        if(_cases[_caseNumber]._uintCase[\"ApprovalsSigned\"] >= _cases[_caseNumber]._uintCase[\"ApprovalsNeeded\"]){\n            _cases[_caseNumber]._boolCase[\"OpenForVoting\"] = true;\n            clearFromWaiting(_caseNumber);\n            emit caseApprovedE(_caseNumber, _cases[_caseNumber]._stringCase[\"Title\"]);\n        }\n        assert(_cases[_caseNumber]._boolCase[string(abi.encodePacked(msg.sender))]);\n        emit confirmationE(true);\n    }\n\n    // Removes caseNumber from the array \"WaitingForApproval\"\n    function clearFromWaiting(uint256 _caseNumber) internal {\n        for(uint256 i = 0; i < _uintArrayStorage[\"WaitingForApproval\"].length; i++){\n            if(_uintArrayStorage[\"WaitingForApproval\"][i] == _caseNumber){\n                _uintArrayStorage[\"WaitingForApproval\"][i] = _uintArrayStorage[\"WaitingForApproval\"][ _uintArrayStorage[\"WaitingForApproval\"].length - 1];\n                _uintArrayStorage[\"WaitingForApproval\"].pop();\n            }\n        }\n    }\n}",
  "sourcePath": "/Users/alex/Library/Mobile Documents/com~apple~CloudDocs/UiA/DAT304V21 - Oppgave/ChainVote/BackEnd/contracts/MultiSigCase.sol",
  "compiler": {
    "name": "solc",
    "version": "0.7.5+commit.eb77ed08.Emscripten.clang"
  },
  "schemaVersion": "3.3.4",
  "updatedAt": "2021-04-20T14:09:27.120Z",
  "devdoc": {
    "kind": "dev",
    "methods": {},
    "version": 1
  },
  "userdoc": {
    "kind": "user",
    "methods": {},
    "version": 1
  }
}