{
  "contractName": "NewCase",
  "abi": [
    {
      "inputs": [],
      "stateMutability": "nonpayable",
      "type": "constructor"
    },
    {
      "anonymous": false,
      "inputs": [
        {
          "indexed": false,
          "internalType": "string",
          "name": "title",
          "type": "string"
        },
        {
          "indexed": false,
          "internalType": "bool",
          "name": "openForVoting",
          "type": "bool"
        }
      ],
      "name": "caseCreated",
      "type": "event"
    },
    {
      "anonymous": false,
      "inputs": [
        {
          "indexed": false,
          "internalType": "string",
          "name": "title",
          "type": "string"
        },
        {
          "indexed": false,
          "internalType": "bool",
          "name": "openForVoting",
          "type": "bool"
        },
        {
          "indexed": false,
          "internalType": "address",
          "name": "deletedBy",
          "type": "address"
        }
      ],
      "name": "caseDeleted",
      "type": "event"
    },
    {
      "anonymous": false,
      "inputs": [
        {
          "indexed": false,
          "internalType": "uint256",
          "name": "caseNumber",
          "type": "uint256"
        },
        {
          "indexed": false,
          "internalType": "string",
          "name": "title",
          "type": "string"
        }
      ],
      "name": "votingClosed",
      "type": "event"
    },
    {
      "anonymous": false,
      "inputs": [
        {
          "indexed": false,
          "internalType": "uint256",
          "name": "caseNumber",
          "type": "uint256"
        },
        {
          "indexed": false,
          "internalType": "string",
          "name": "title",
          "type": "string"
        }
      ],
      "name": "votingOpened",
      "type": "event"
    },
    {
      "inputs": [
        {
          "internalType": "address",
          "name": "_owner",
          "type": "address"
        }
      ],
      "name": "initialize",
      "outputs": [],
      "stateMutability": "nonpayable",
      "type": "function"
    },
    {
      "inputs": [
        {
          "internalType": "string",
          "name": "_title",
          "type": "string"
        },
        {
          "internalType": "uint256",
          "name": "_deadline",
          "type": "uint256"
        },
        {
          "internalType": "uint256",
          "name": "_totalVotes",
          "type": "uint256"
        }
      ],
      "name": "createCase",
      "outputs": [],
      "stateMutability": "nonpayable",
      "type": "function"
    },
    {
      "inputs": [
        {
          "internalType": "uint256",
          "name": "_caseNumber",
          "type": "uint256"
        }
      ],
      "name": "getCase",
      "outputs": [
        {
          "internalType": "string",
          "name": "_title",
          "type": "string"
        },
        {
          "internalType": "uint256",
          "name": "_deadline",
          "type": "uint256"
        },
        {
          "internalType": "uint256",
          "name": "_totalVotes",
          "type": "uint256"
        },
        {
          "internalType": "bool",
          "name": "_openForVoting",
          "type": "bool"
        },
        {
          "internalType": "string[]",
          "name": "_alternatives",
          "type": "string[]"
        },
        {
          "internalType": "uint256[]",
          "name": "_num",
          "type": "uint256[]"
        }
      ],
      "stateMutability": "view",
      "type": "function"
    },
    {
      "inputs": [
        {
          "internalType": "uint256",
          "name": "_caseNumber",
          "type": "uint256"
        }
      ],
      "name": "deleteCase",
      "outputs": [],
      "stateMutability": "nonpayable",
      "type": "function"
    },
    {
      "inputs": [
        {
          "internalType": "uint256",
          "name": "_caseNumber",
          "type": "uint256"
        },
        {
          "internalType": "string",
          "name": "_alternative",
          "type": "string"
        }
      ],
      "name": "addAlternatives",
      "outputs": [],
      "stateMutability": "nonpayable",
      "type": "function"
    },
    {
      "inputs": [
        {
          "internalType": "uint256",
          "name": "_caseNumber",
          "type": "uint256"
        }
      ],
      "name": "openVoting",
      "outputs": [],
      "stateMutability": "nonpayable",
      "type": "function"
    },
    {
      "inputs": [
        {
          "internalType": "uint256",
          "name": "_caseNumber",
          "type": "uint256"
        },
        {
          "internalType": "uint256",
          "name": "_optionVoted",
          "type": "uint256"
        }
      ],
      "name": "vote",
      "outputs": [],
      "stateMutability": "nonpayable",
      "type": "function"
    },
    {
      "inputs": [
        {
          "internalType": "uint256",
          "name": "_caseNumber",
          "type": "uint256"
        }
      ],
      "name": "getAlternatives",
      "outputs": [
        {
          "internalType": "string[]",
          "name": "",
          "type": "string[]"
        },
        {
          "internalType": "uint256[]",
          "name": "",
          "type": "uint256[]"
        }
      ],
      "stateMutability": "view",
      "type": "function"
    },
    {
      "inputs": [
        {
          "internalType": "uint256",
          "name": "_caseNumber",
          "type": "uint256"
        }
      ],
      "name": "getMyVote",
      "outputs": [
        {
          "internalType": "string",
          "name": "",
          "type": "string"
        }
      ],
      "stateMutability": "view",
      "type": "function"
    }
  ],
  "bytecode": "0x60806040523480156200001157600080fd5b50336004600080815260200190815260200160002060405180807f6f776e65720000000000000000000000000000000000000000000000000000008152506005019050908152602001604051809103902060006101000a81548173ffffffffffffffffffffffffffffffffffffffff021916908373ffffffffffffffffffffffffffffffffffffffff160217905550620000b133620000b760201b60201c565b62000275565b60056000808152602001908152602001600020604051620000d89062000253565b908152602001604051809103902060009054906101000a900460ff1615620000ff57600080fd5b806004600080815260200190815260200160002060405162000121906200023c565b908152602001604051809103902060006101000a81548173ffffffffffffffffffffffffffffffffffffffff021916908373ffffffffffffffffffffffffffffffffffffffff160217905550600160056000808152602001908152602001600020604051620001909062000253565b908152602001604051809103902060006101000a81548160ff02191690831515021790555050565b6000620001c76005836200026a565b91507f6f776e65720000000000000000000000000000000000000000000000000000006000830152600582019050919050565b600062000209600b836200026a565b91507f696e697469616c697a65640000000000000000000000000000000000000000006000830152600b82019050919050565b60006200024982620001b8565b9150819050919050565b60006200026082620001fa565b9150819050919050565b600081905092915050565b612e7980620002856000396000f3fe608060405234801561001057600080fd5b50600436106100935760003560e01c8063c4d66de811610066578063c4d66de814610136578063d590bf4914610152578063d82d76381461016e578063f76b40491461018a578063fcf18775146101ba57610093565b8063256d7566146100985780635f2ba6b2146100c9578063a91a1080146100e5578063b384abef1461011a575b600080fd5b6100b260048036038101906100ad9190612047565b6101d6565b6040516100c0929190612a0d565b60405180910390f35b6100e360048036038101906100de9190612047565b610371565b005b6100ff60048036038101906100fa9190612047565b6104ff565b60405161011196959493929190612aa4565b60405180910390f35b610134600480360381019061012f91906120c4565b61080b565b005b610150600480360381019061014b9190611fb7565b610b4e565b005b61016c60048036038101906101679190612047565b610c48565b005b61018860048036038101906101839190611fe0565b611029565b005b6101a4600480360381019061019f9190612047565b611808565b6040516101b19190612a44565b60405180910390f35b6101d460048036038101906101cf9190612070565b611939565b005b606080600360008481526020019081526020016000206040516101f8906129ce565b908152602001604051809103902060016000858152602001908152602001600020604051610225906129ce565b908152602001604051809103902081805480602002602001604051908101604052809291908181526020016000905b82821015610310578382906000526020600020018054600181600116156101000203166002900480601f0160208091040260200160405190810160405280929190818152602001828054600181600116156101000203166002900480156102fc5780601f106102d1576101008083540402835291602001916102fc565b820191906000526020600020905b8154815290600101906020018083116102df57829003601f168201915b505050505081526020019060010190610254565b5050505091508080548060200260200160405190810160405280929190818152602001828054801561036157602002820191906000526020600020905b81548152602001906001019080831161034d575b5050505050905091509150915091565b6004600080815260200190815260200160002060405180807f6f776e65720000000000000000000000000000000000000000000000000000008152506005019050908152602001604051809103902060009054906101000a900473ffffffffffffffffffffffffffffffffffffffff1673ffffffffffffffffffffffffffffffffffffffff163373ffffffffffffffffffffffffffffffffffffffff161461041857600080fd5b6000806000838152602001908152602001600020604051610438906129a4565b9081526020016040518091039020541161045157600080fd5b6001600560008381526020019081526020016000206040516104729061298f565b908152602001604051809103902060006101000a81548160ff0219169083151502179055507f25ee9fc6ee0c3e22da20d37c9a3c39d5286dbb480eaee69634bf70f76697bfb481600260008481526020019081526020016000206040516104d8906129e3565b90815260200160405180910390206040516104f4929190612baa565b60405180910390a150565b60606000806000606080600260008881526020019081526020016000206040516105289061297a565b9081526020016040518091039020600080898152602001908152602001600020604051610554906129f8565b9081526020016040518091039020546000808a8152602001908152602001600020604051610581906129a4565b908152602001604051809103902054600560008b81526020019081526020016000206040516105af9061298f565b908152602001604051809103902060009054906101000a900460ff16600360008c81526020019081526020016000206040516105ea906129ce565b9081526020016040518091039020600160008d8152602001908152602001600020604051610617906129ce565b9081526020016040518091039020858054600181600116156101000203166002900480601f0160208091040260200160405190810160405280929190818152602001828054600181600116156101000203166002900480156106ba5780601f1061068f576101008083540402835291602001916106ba565b820191906000526020600020905b81548152906001019060200180831161069d57829003601f168201915b5050505050955081805480602002602001604051908101604052809291908181526020016000905b8282101561079e578382906000526020600020018054600181600116156101000203166002900480601f01602080910402602001604051908101604052809291908181526020018280546001816001161561010002031660029004801561078a5780601f1061075f5761010080835404028352916020019161078a565b820191906000526020600020905b81548152906001019060200180831161076d57829003601f168201915b5050505050815260200190600101906106e2565b505050509150808054806020026020016040519081016040528092919081815260200182805480156107ef57602002820191906000526020600020905b8154815260200190600101908083116107db575b5050505050905095509550955095509550955091939550919395565b6005600083815260200190815260200160002060405161082a9061298f565b908152602001604051809103902060009054906101000a900460ff16610885576040517f08c379a000000000000000000000000000000000000000000000000000000000815260040161087c90612b8a565b60405180910390fd5b600160008381526020019081526020016000206040516108a4906129ce565b9081526020016040518091039020805490508111156108f8576040517f08c379a00000000000000000000000000000000000000000000000000000000081526004016108ef90612b4a565b60405180910390fd5b600560008381526020019081526020016000203360405160200161091c9190612826565b6040516020818303038152906040526040516109389190612841565b908152602001604051809103902060009054906101000a900460ff1615610968576109638282611aa0565b610b4a565b6001600560008481526020019081526020016000203360405160200161098e9190612826565b6040516020818303038152906040526040516109aa9190612841565b908152602001604051809103902060006101000a81548160ff02191690831515021790555080600080848152602001908152602001600020336040516020016109f39190612826565b604051602081830303815290604052604051610a0f9190612841565b908152602001604051809103902081905550610a6f60016000848152602001908152602001600020604051610a43906129ce565b9081526020016040518091039020600081548110610a5d57fe5b90600052602060002001546001611c6f565b60016000848152602001908152602001600020604051610a8e906129ce565b9081526020016040518091039020600081548110610aa857fe5b9060005260206000200181905550610b0360016000848152602001908152602001600020604051610ad8906129ce565b90815260200160405180910390208281548110610af157fe5b90600052602060002001546001611cb9565b60016000848152602001908152602001600020604051610b22906129ce565b90815260200160405180910390208281548110610b3b57fe5b90600052602060002001819055505b5050565b60056000808152602001908152602001600020604051610b6d906129b9565b908152602001604051809103902060009054906101000a900460ff1615610b9357600080fd5b8060046000808152602001908152602001600020604051610bb390612950565b908152602001604051809103902060006101000a81548173ffffffffffffffffffffffffffffffffffffffff021916908373ffffffffffffffffffffffffffffffffffffffff160217905550600160056000808152602001908152602001600020604051610c20906129b9565b908152602001604051809103902060006101000a81548160ff02191690831515021790555050565b6004600080815260200190815260200160002060405180807f6f776e65720000000000000000000000000000000000000000000000000000008152506005019050908152602001604051809103902060009054906101000a900473ffffffffffffffffffffffffffffffffffffffff1673ffffffffffffffffffffffffffffffffffffffff163373ffffffffffffffffffffffffffffffffffffffff1614610cef57600080fd5b60056000828152602001908152602001600020604051610d0e9061298f565b908152602001604051809103902060009054906101000a900460ff1615610d3457600080fd5b606060026000838152602001908152602001600020604051610d559061297a565b90815260200160405180910390208054600181600116156101000203166002900480601f016020809104026020016040519081016040528092919081815260200182805460018160011615610100020316600290048015610df75780601f10610dcc57610100808354040283529160200191610df7565b820191906000526020600020905b815481529060010190602001808311610dda57829003601f168201915b50505050509050600060056000848152602001908152602001600020604051610e1f9061298f565b908152602001604051809103902060009054906101000a900460ff16905060026000848152602001908152602001600020604051610e5c9061297a565b90815260200160405180910390206000610e769190611e01565b600080848152602001908152602001600020604051610e94906129f8565b908152602001604051809103902060009055600080848152602001908152602001600020604051610ec4906129a4565b90815260200160405180910390206000905560036000848152602001908152602001600020604051610ef5906129ce565b90815260200160405180910390206000610f0f9190611e49565b60046000848152602001908152602001600020604051610f2e90612926565b908152602001604051809103902060006101000a81549073ffffffffffffffffffffffffffffffffffffffff021916905560056000848152602001908152602001600020604051610f7e9061298f565b908152602001604051809103902060006101000a81549060ff02191690557fa4c718bd313dad312b5d43f0a1273b3fdec432bf439dca210e183699979b6715828260046000808152602001908152602001600020604051610fde90612950565b908152602001604051809103902060009054906101000a900473ffffffffffffffffffffffffffffffffffffffff1660405161101c93929190612a66565b60405180910390a1505050565b6004600080815260200190815260200160002060405180807f6f776e65720000000000000000000000000000000000000000000000000000008152506005019050908152602001604051809103902060009054906101000a900473ffffffffffffffffffffffffffffffffffffffff1673ffffffffffffffffffffffffffffffffffffffff163373ffffffffffffffffffffffffffffffffffffffff16146110d057600080fd5b60008111611113576040517f08c379a000000000000000000000000000000000000000000000000000000000815260040161110a90612b6a565b60405180910390fd5b61114a60008080815260200190815260200160002060405161113490612965565b9081526020016040518091039020546001611cb9565b60008080815260200190815260200160002060405161116890612965565b908152602001604051809103902081905550826002600080600080815260200190815260200160002060405161119d90612965565b90815260200160405180910390205481526020019081526020016000206040516111c69061297a565b908152602001604051809103902090805190602001906111e7929190611e6a565b508160008080600080815260200190815260200160002060405161120a90612965565b9081526020016040518091039020548152602001908152602001600020604051611233906129f8565b9081526020016040518091039020819055508060008080600080815260200190815260200160002060405161126790612965565b9081526020016040518091039020548152602001908152602001600020604051611290906129a4565b9081526020016040518091039020819055506000600560008060008081526020019081526020016000206040516112c690612965565b90815260200160405180910390205481526020019081526020016000206040516112ef9061293b565b908152602001604051809103902060006101000a81548160ff0219169083151502179055506003600080600080815260200190815260200160002060405161133690612965565b908152602001604051809103902054815260200190815260200160002060405161135f906129ce565b908152602001604051809103902080600181540180825580915050600190039060005260206000200160006040518060400160405280600a81526020017f496b6b65205374656d7400000000000000000000000000000000000000000000815250909190915090805190602001906113d8929190611e6a565b50600160008060008081526020019081526020016000206040516113fb90612965565b9081526020016040518091039020548152602001908152602001600020604051611424906129ce565b9081526020016040518091039020819080600181540180825580915050600190039060005260206000200160009091909190915055828260008384604051602001611473959493929190612858565b60405160208183030381529060405280519060200120600260008060008081526020019081526020016000206040516114ab90612965565b90815260200160405180910390205481526020019081526020016000206040516114d49061297a565b908152602001604051809103902060008080600080815260200190815260200160002060405161150390612965565b908152602001604051809103902054815260200190815260200160002060405161152c906129f8565b9081526020016040518091039020546005600080600080815260200190815260200160002060405161155d90612965565b90815260200160405180910390205481526020019081526020016000206040516115869061298f565b908152602001604051809103902060009054906101000a900460ff166000808060008081526020019081526020016000206040516115c390612965565b90815260200160405180910390205481526020019081526020016000206040516115ec906129a4565b9081526020016040518091039020546003600080600080815260200190815260200160002060405161161d90612965565b9081526020016040518091039020548152602001908152602001600020604051611646906129ce565b908152602001604051809103902060008154811061166057fe5b906000526020600020016001600080600080815260200190815260200160002060405161168c90612965565b90815260200160405180910390205481526020019081526020016000206040516116b5906129ce565b90815260200160405180910390206000815481106116cf57fe5b90600052602060002001546040516020016116ef969594939291906128be565b604051602081830303815290604052805190602001201461170c57fe5b7f397bd7bf3071967480966f6a0dbc085b8c14d5fa5e0fae7e9aec4d4f5edba2826002600080600080815260200190815260200160002060405161174f90612965565b90815260200160405180910390205481526020019081526020016000206040516117789061297a565b9081526020016040518091039020600560008060008081526020019081526020016000206040516117a890612965565b90815260200160405180910390205481526020019081526020016000206040516117d19061298f565b908152602001604051809103902060009054906101000a900460ff166040516117fb929190612b1a565b60405180910390a1505050565b606060036000838152602001908152602001600020604051611829906129ce565b90815260200160405180910390206000808481526020019081526020016000203360405160200161185a9190612826565b6040516020818303038152906040526040516118769190612841565b9081526020016040518091039020548154811061188f57fe5b906000526020600020018054600181600116156101000203166002900480601f01602080910402602001604051908101604052809291908181526020018280546001816001161561010002031660029004801561192d5780601f106119025761010080835404028352916020019161192d565b820191906000526020600020905b81548152906001019060200180831161191057829003601f168201915b50505050509050919050565b6004600080815260200190815260200160002060405180807f6f776e65720000000000000000000000000000000000000000000000000000008152506005019050908152602001604051809103902060009054906101000a900473ffffffffffffffffffffffffffffffffffffffff1673ffffffffffffffffffffffffffffffffffffffff163373ffffffffffffffffffffffffffffffffffffffff16146119e057600080fd5b600160008381526020019081526020016000206040516119ff906129ce565b90815260200160405180910390206000908060018154018082558091505060019003906000526020600020016000909190919091505560036000838152602001908152602001600020604051611a54906129ce565b908152602001604051809103902081908060018154018082558091505060019003906000526020600020016000909190919091509080519060200190611a9b929190611e6a565b505050565b600080600084815260200190815260200160002033604051602001611ac59190612826565b604051602081830303815290604052604051611ae19190612841565b90815260200160405180910390205490508160008085815260200190815260200160002033604051602001611b169190612826565b604051602081830303815290604052604051611b329190612841565b908152602001604051809103902081905550611b9160016000858152602001908152602001600020604051611b66906129ce565b90815260200160405180910390208281548110611b7f57fe5b90600052602060002001546001611c6f565b60016000858152602001908152602001600020604051611bb0906129ce565b90815260200160405180910390208281548110611bc957fe5b9060005260206000200181905550611c2460016000858152602001908152602001600020604051611bf9906129ce565b90815260200160405180910390208381548110611c1257fe5b90600052602060002001546001611cb9565b60016000858152602001908152602001600020604051611c43906129ce565b90815260200160405180910390208381548110611c5c57fe5b9060005260206000200181905550505050565b6000611cb183836040518060400160405280601e81526020017f536166654d6174683a207375627472616374696f6e206f766572666c6f770000815250611d41565b905092915050565b600080828401905083811015611d37576040517f08c379a000000000000000000000000000000000000000000000000000000000815260040180806020018281038252601b8152602001807f536166654d6174683a206164646974696f6e206f766572666c6f77000000000081525060200191505060405180910390fd5b8091505092915050565b6000838311158290611dee576040517f08c379a00000000000000000000000000000000000000000000000000000000081526004018080602001828103825283818151815260200191508051906020019080838360005b83811015611db3578082015181840152602081019050611d98565b50505050905090810190601f168015611de05780820380516001836020036101000a031916815260200191505b509250505060405180910390fd5b5060008385039050809150509392505050565b50805460018160011615610100020316600290046000825580601f10611e275750611e46565b601f016020900490600052602060002090810190611e459190611ef8565b5b50565b5080546000825590600052602060002090810190611e679190611f15565b50565b828054600181600116156101000203166002900490600052602060002090601f016020900481019282611ea05760008555611ee7565b82601f10611eb957805160ff1916838001178555611ee7565b82800160010185558215611ee7579182015b82811115611ee6578251825591602001919060010190611ecb565b5b509050611ef49190611ef8565b5090565b5b80821115611f11576000816000905550600101611ef9565b5090565b5b80821115611f355760008181611f2c9190611e01565b50600101611f16565b5090565b600081359050611f4881612e15565b92915050565b600082601f830112611f5f57600080fd5b8135611f72611f6d82612c0b565b612bda565b91508082526020830160208301858383011115611f8e57600080fd5b611f99838284612d54565b50505092915050565b600081359050611fb181612e2c565b92915050565b600060208284031215611fc957600080fd5b6000611fd784828501611f39565b91505092915050565b600080600060608486031215611ff557600080fd5b600084013567ffffffffffffffff81111561200f57600080fd5b61201b86828701611f4e565b935050602061202c86828701611fa2565b925050604061203d86828701611fa2565b9150509250925092565b60006020828403121561205957600080fd5b600061206784828501611fa2565b91505092915050565b6000806040838503121561208357600080fd5b600061209185828601611fa2565b925050602083013567ffffffffffffffff8111156120ae57600080fd5b6120ba85828601611f4e565b9150509250929050565b600080604083850312156120d757600080fd5b60006120e585828601611fa2565b92505060206120f685828601611fa2565b9150509250929050565b600061210c838361224b565b905092915050565b600061212083836127f1565b60208301905092915050565b61213d61213882612d0c565b612d96565b82525050565b61214c81612cfa565b82525050565b600061215d82612c70565b6121678185612cab565b93508360208202850161217985612c3b565b8060005b858110156121b557848403895281516121968582612100565b94506121a183612c91565b925060208a0199505060018101905061217d565b50829750879550505050505092915050565b60006121d282612c7b565b6121dc8185612cbc565b93506121e783612c4b565b8060005b838110156122185781516121ff8882612114565b975061220a83612c9e565b9250506001810190506121eb565b5085935050505092915050565b61222e81612d1e565b82525050565b61224561224082612d1e565b612da8565b82525050565b600061225682612c86565b6122608185612ccd565b9350612270818560208601612d63565b61227981612dea565b840191505092915050565b600061228f82612c86565b6122998185612cde565b93506122a9818560208601612d63565b6122b281612dea565b840191505092915050565b60006122c882612c86565b6122d28185612cef565b93506122e2818560208601612d63565b80840191505092915050565b60008154600181166000811461230b576001811461233157612375565b607f600283041661231c8187612cde565b955060ff198316865260208601935050612375565b6002820461233f8187612cde565b955061234a85612c5b565b60005b8281101561236c5781548189015260018201915060208101905061234d565b80880195505050505b505092915050565b60008154600181166000811461239a57600181146123bf57612403565b607f60028304166123ab8187612cef565b955060ff1983168652808601935050612403565b600282046123cd8187612cef565b95506123d885612c5b565b60005b828110156123fa578154818901526001820191506020810190506123db565b82880195505050505b505092915050565b6000612418600583612cef565b91507f566f7465640000000000000000000000000000000000000000000000000000006000830152600582019050919050565b6000612458600f83612cef565b91507f6f70656e20466f7220566f74696e6700000000000000000000000000000000006000830152600f82019050919050565b6000612498600583612cef565b91507f6f776e65720000000000000000000000000000000000000000000000000000006000830152600582019050919050565b60006124d8600a83612cef565b91507f636173654e756d626572000000000000000000000000000000000000000000006000830152600a82019050919050565b6000612518600583612cef565b91507f5469746c650000000000000000000000000000000000000000000000000000006000830152600582019050919050565b6000612558601a83612cde565b91507f5069636b20616e206f7074696f6e2074686174206578697374730000000000006000830152602082019050919050565b6000612598602383612cde565b91507f546f74616c20766f746573206e6565647320746f206265206d6f72652074686160008301527f6e203000000000000000000000000000000000000000000000000000000000006020830152604082019050919050565b60006125fe601883612cde565b91507f4e6f74204f70656e20466f7220566f74696e67205965742100000000000000006000830152602082019050919050565b600061263e600f83612cef565b91507f4f70656e20466f7220566f74696e6700000000000000000000000000000000006000830152600f82019050919050565b600061267e600b83612cef565b91507f546f74616c20566f7465730000000000000000000000000000000000000000006000830152600b82019050919050565b60006126be600b83612cef565b91507f696e697469616c697a65640000000000000000000000000000000000000000006000830152600b82019050919050565b60006126fe600c83612cef565b91507f416c7465726e61746976657300000000000000000000000000000000000000006000830152600c82019050919050565b600061273e600a83612cef565b91507f496b6b65205374656d74000000000000000000000000000000000000000000006000830152600a82019050919050565b600061277e600583612cef565b91507f7469746c650000000000000000000000000000000000000000000000000000006000830152600582019050919050565b60006127be600883612cef565b91507f446561646c696e650000000000000000000000000000000000000000000000006000830152600882019050919050565b6127fa81612d4a565b82525050565b61280981612d4a565b82525050565b61282061281b82612d4a565b612dcc565b82525050565b6000612832828461212c565b60148201915081905092915050565b600061284d82846122bd565b915081905092915050565b600061286482886122bd565b9150612870828761280f565b6020820191506128808286612234565b600182019150612890828561280f565b60208201915061289f82612731565b91506128ab828461280f565b6020820191508190509695505050505050565b60006128ca828961237d565b91506128d6828861280f565b6020820191506128e68287612234565b6001820191506128f6828661280f565b602082019150612906828561237d565b9150612912828461280f565b602082019150819050979650505050505050565b60006129318261240b565b9150819050919050565b60006129468261244b565b9150819050919050565b600061295b8261248b565b9150819050919050565b6000612970826124cb565b9150819050919050565b60006129858261250b565b9150819050919050565b600061299a82612631565b9150819050919050565b60006129af82612671565b9150819050919050565b60006129c4826126b1565b9150819050919050565b60006129d9826126f1565b9150819050919050565b60006129ee82612771565b9150819050919050565b6000612a03826127b1565b9150819050919050565b60006040820190508181036000830152612a278185612152565b90508181036020830152612a3b81846121c7565b90509392505050565b60006020820190508181036000830152612a5e8184612284565b905092915050565b60006060820190508181036000830152612a808186612284565b9050612a8f6020830185612225565b612a9c6040830184612143565b949350505050565b600060c0820190508181036000830152612abe8189612284565b9050612acd6020830188612800565b612ada6040830187612800565b612ae76060830186612225565b8181036080830152612af98185612152565b905081810360a0830152612b0d81846121c7565b9050979650505050505050565b60006040820190508181036000830152612b3481856122ee565b9050612b436020830184612225565b9392505050565b60006020820190508181036000830152612b638161254b565b9050919050565b60006020820190508181036000830152612b838161258b565b9050919050565b60006020820190508181036000830152612ba3816125f1565b9050919050565b6000604082019050612bbf6000830185612800565b8181036020830152612bd181846122ee565b90509392505050565b6000604051905081810181811067ffffffffffffffff82111715612c0157612c00612de8565b5b8060405250919050565b600067ffffffffffffffff821115612c2657612c25612de8565b5b601f19601f8301169050602081019050919050565b6000819050602082019050919050565b6000819050602082019050919050565b60008190508160005260206000209050919050565b600081519050919050565b600081519050919050565b600081519050919050565b6000602082019050919050565b6000602082019050919050565b600082825260208201905092915050565b600082825260208201905092915050565b600082825260208201905092915050565b600082825260208201905092915050565b600081905092915050565b6000612d0582612d2a565b9050919050565b6000612d1782612d2a565b9050919050565b60008115159050919050565b600073ffffffffffffffffffffffffffffffffffffffff82169050919050565b6000819050919050565b82818337600083830152505050565b60005b83811015612d81578082015181840152602081019050612d66565b83811115612d90576000848401525b50505050565b6000612da182612dba565b9050919050565b6000612db382612dd6565b9050919050565b6000612dc582612e08565b9050919050565b6000819050919050565b6000612de182612dfb565b9050919050565bfe5b6000601f19601f8301169050919050565b60008160f81b9050919050565b60008160601b9050919050565b612e1e81612cfa565b8114612e2957600080fd5b50565b612e3581612d4a565b8114612e4057600080fd5b5056fea26469706673582212201c8734f22871064ade8d068fb8a088a7a3d92079f3b1cf61c491be73b559506b64736f6c63430007050033",
  "immutableReferences": {},
  "source": "//SPDX-License-Identifier: MIT\npragma solidity 0.7.5;\npragma abicoder v2;\n\nimport \"./Ownable.sol\";\n\ncontract NewCase is Ownable {\n\n    constructor() {\n        initialize(msg.sender);\n    }\n\n    function initialize(address _owner) public {\n        require(!_boolStorage[0][\"initialized\"]);\n        _addressStorage[0][\"owner\"] = _owner;\n        _boolStorage[0][\"initialized\"] = true;\n    }\n\n    event caseCreated(string title, bool openForVoting);\n    event caseDeleted(string title, bool openForVoting, address deletedBy);\n    event votingOpened(uint256 caseNumber, string title);\n    event votingClosed(uint256 caseNumber, string title);\n\n    function createCase(string memory _title, uint256 _deadline, uint256 _totalVotes) public onlyOwner {\n        require(_totalVotes > 0, \"Total votes needs to be more than 0\");\n        // \"Global\" Case Number Counter\n        _uintStorage[0][\"caseNumber\"] = SafeMath.add(_uintStorage[0][\"caseNumber\"], 1);\n\n        // This creates a case\n        _stringStorage[ _uintStorage[0][\"caseNumber\"] ][\"Title\"] = _title;\n        _uintStorage[_uintStorage[0][\"caseNumber\"]][\"Deadline\"] = _deadline;\n        _uintStorage[_uintStorage[0][\"caseNumber\"]][\"Total Votes\"] = _totalVotes;\n        _boolStorage[_uintStorage[0][\"caseNumber\"]][\"open For Voting\"] = false;\n\n        //adding first alternative to Array and giving it all the votes\n        _stringArrayStorage[_uintStorage[0][\"caseNumber\"]][\"Alternatives\"].push(\"Ikke Stemt\");\n        _uintArrayStorage[_uintStorage[0][\"caseNumber\"]][\"Alternatives\"].push(_totalVotes);\n\n        // checks if the information that is going to be stored is the same as the information entered into the function\n        assert(keccak256(abi.encodePacked(\n                    _stringStorage[_uintStorage[0][\"caseNumber\"]][\"Title\"],\n                    _uintStorage[_uintStorage[0][\"caseNumber\"]][\"Deadline\"],\n                    _boolStorage[_uintStorage[0][\"caseNumber\"]][\"Open For Voting\"],\n                    _uintStorage[_uintStorage[0][\"caseNumber\"]][\"Total Votes\"],\n                    _stringArrayStorage[_uintStorage[0][\"caseNumber\"]][\"Alternatives\"][0],\n                    _uintArrayStorage[_uintStorage[0][\"caseNumber\"]][\"Alternatives\"][0]\n                ))\n            ==\n            keccak256(abi.encodePacked(\n                    _title,\n                    _deadline,\n                    false,\n                    _totalVotes,\n                    \"Ikke Stemt\",\n                    _totalVotes\n                ))\n        );\n        emit caseCreated(_stringStorage[_uintStorage[0][\"caseNumber\"]][\"Title\"], _boolStorage[_uintStorage[0][\"caseNumber\"]][\"Open For Voting\"]);\n    }\n\n    function getCase(uint _caseNumber) public view returns(string memory _title, uint _deadline, uint _totalVotes, bool _openForVoting, string[] memory _alternatives, uint[] memory _num){\n        return (_stringStorage[_caseNumber][\"Title\"], _uintStorage[_caseNumber][\"Deadline\"], _uintStorage[_caseNumber][\"Total Votes\"], \n        _boolStorage[_caseNumber][\"Open For Voting\"], _stringArrayStorage[_caseNumber][\"Alternatives\"], _uintArrayStorage[_caseNumber][\"Alternatives\"]);\n    }\n\n    // Problematisk  slette?\n    function deleteCase(uint _caseNumber) public onlyOwner {\n        require(!_boolStorage[_caseNumber][\"Open For Voting\"]);\n        string memory title = _stringStorage[_caseNumber][\"Title\"];\n        bool openForVoting = _boolStorage[_caseNumber][\"Open For Voting\"];\n\n        delete _stringStorage[_caseNumber][\"Title\"];\n        delete _uintStorage[_caseNumber][\"Deadline\"];\n        delete _uintStorage[_caseNumber][\"Total Votes\"];\n        delete _stringArrayStorage[_caseNumber][\"Alternatives\"];\n        delete _addressStorage[_caseNumber][\"Voted\"];\n        delete _boolStorage[_caseNumber][\"Open For Voting\"];\n\n        emit caseDeleted(title, openForVoting, _addressStorage[0][\"owner\"]);\n   }\n   \n   function addAlternatives(uint256 _caseNumber, string memory _alternative) public onlyOwner {\n        _uintArrayStorage[_caseNumber][\"Alternatives\"].push(0);\n        _stringArrayStorage[_caseNumber][\"Alternatives\"].push(_alternative);\n        // Assert\n   }\n\n   function openVoting(uint256 _caseNumber) public onlyOwner {\n        require(_uintStorage[_caseNumber][\"Total Votes\"] > 0);\n        _boolStorage[_caseNumber][\"Open For Voting\"] = true;\n        emit votingOpened(_caseNumber, _stringStorage[_caseNumber][\"title\"]);\n   }\n   \n   function vote (uint256 _caseNumber, uint256 _optionVoted) public {\n        // Checks if the case is open for voting\n        require(_boolStorage[_caseNumber][\"Open For Voting\"], \"Not Open For Voting Yet!\");\n\n        // Checks that the option exists\n        require(_optionVoted <= _uintArrayStorage[_caseNumber][\"Alternatives\"].length, \"Pick an option that exists\");\n\n        // Checks if the address already voted, then using changeVote instead\n        if(_boolStorage[_caseNumber][string(abi.encodePacked(msg.sender))]) {\n            changeVote(_caseNumber, _optionVoted);\n        } else {\n            _boolStorage[_caseNumber][string(abi.encodePacked(msg.sender))] = true; // Voting address registerd to the case\n            _uintStorage[_caseNumber][string(abi.encodePacked(msg.sender))] = _optionVoted; // Register alternative to address\n            _uintArrayStorage[_caseNumber][\"Alternatives\"][0] = SafeMath.sub(_uintArrayStorage[_caseNumber][\"Alternatives\"][0], 1); // subtracts a Vote from \"Ikke Stemt\" \n            _uintArrayStorage[_caseNumber][\"Alternatives\"][_optionVoted] = SafeMath.add(_uintArrayStorage[_caseNumber][\"Alternatives\"][_optionVoted], 1); //adds a vote to the option chosen\n        }\n            // assert changes has to be done, no need if no transaction\n   }\n\n   function changeVote(uint256 _caseNumber, uint256 _optionVoted) internal {\n        uint256 registerdVote = _uintStorage[_caseNumber][string(abi.encodePacked(msg.sender))];\n        _uintStorage[_caseNumber][string(abi.encodePacked(msg.sender))] = _optionVoted; // Register alternative to address\n        _uintArrayStorage[_caseNumber][\"Alternatives\"][registerdVote] = SafeMath.sub(_uintArrayStorage[_caseNumber][\"Alternatives\"][registerdVote], 1); // subtracts a Vote from previously voted alternative\n        _uintArrayStorage[_caseNumber][\"Alternatives\"][_optionVoted] = SafeMath.add(_uintArrayStorage[_caseNumber][\"Alternatives\"][_optionVoted], 1); //adds a vote to the option chosen\n   }\n\n   function getAlternatives(uint256 _caseNumber) public view returns(string[] memory, uint256[] memory){\n        return (_stringArrayStorage[_caseNumber][\"Alternatives\"], _uintArrayStorage[_caseNumber][\"Alternatives\"]);\n   }\n\n   function getMyVote(uint256 _caseNumber) public view returns(string memory){\n        return (_stringArrayStorage[_caseNumber][\"Alternatives\"][_uintStorage[_caseNumber][string(abi.encodePacked(msg.sender))]]);\n   }\n \n}",
  "sourcePath": "/Users/alex/Library/Mobile Documents/com~apple~CloudDocs/UiA/DAT304V21 - Oppgave/ChainVote/BackEnd/contracts/NewCase.sol",
  "compiler": {
    "name": "solc",
    "version": "0.7.5+commit.eb77ed08.Emscripten.clang"
  },
  "schemaVersion": "3.3.4",
  "updatedAt": "2021-03-10T22:27:02.081Z",
  "devdoc": {
    "kind": "dev",
    "methods": {},
    "version": 1
  },
  "userdoc": {
    "kind": "user",
    "methods": {},
    "version": 1
  }
}