{
  "contractName": "Proxy",
  "abi": [
    {
      "inputs": [
        {
          "internalType": "address[]",
          "name": "_superAdminArray",
          "type": "address[]"
        },
        {
          "internalType": "string",
          "name": "_region",
          "type": "string"
        }
      ],
      "stateMutability": "nonpayable",
      "type": "constructor"
    },
    {
      "anonymous": false,
      "inputs": [
        {
          "indexed": false,
          "internalType": "bool",
          "name": "instanceInProgress",
          "type": "bool"
        },
        {
          "indexed": false,
          "internalType": "bool",
          "name": "pauseStarted",
          "type": "bool"
        },
        {
          "indexed": false,
          "internalType": "bool",
          "name": "upgradeStarted",
          "type": "bool"
        },
        {
          "indexed": false,
          "internalType": "uint256",
          "name": "approvalsNeeded",
          "type": "uint256"
        }
      ],
      "name": "caseApprovedE",
      "type": "event"
    },
    {
      "anonymous": false,
      "inputs": [
        {
          "indexed": false,
          "internalType": "bool",
          "name": "paused",
          "type": "bool"
        },
        {
          "indexed": false,
          "internalType": "uint256",
          "name": "pauseTimer",
          "type": "uint256"
        },
        {
          "indexed": false,
          "internalType": "address",
          "name": "functionContractAddress",
          "type": "address"
        }
      ],
      "name": "confirmationE",
      "type": "event"
    },
    {
      "stateMutability": "payable",
      "type": "fallback",
      "payable": true
    },
    {
      "inputs": [],
      "name": "signMultisigInstance",
      "outputs": [],
      "stateMutability": "nonpayable",
      "type": "function"
    },
    {
      "stateMutability": "payable",
      "type": "receive",
      "payable": true
    },
    {
      "inputs": [
        {
          "internalType": "address",
          "name": "_newAddress",
          "type": "address"
        }
      ],
      "name": "upgrade",
      "outputs": [],
      "stateMutability": "nonpayable",
      "type": "function"
    },
    {
      "inputs": [],
      "name": "pause",
      "outputs": [],
      "stateMutability": "nonpayable",
      "type": "function"
    },
    {
      "inputs": [],
      "name": "unPause",
      "outputs": [],
      "stateMutability": "nonpayable",
      "type": "function"
    }
  ],
  "bytecode": "0x60806040523480156200001157600080fd5b506040516200268b3803806200268b833981810160405260408110156200003757600080fd5b81019080805160405193929190846401000000008211156200005857600080fd5b838201915060208201858111156200006f57600080fd5b82518660208202830111640100000000821117156200008d57600080fd5b8083526020830192505050908051906020019060200280838360005b83811015620000c6578082015181840152602081019050620000a9565b5050505090500160405260200180516040519392919084640100000000821115620000f057600080fd5b838201915060208201858111156200010757600080fd5b82518660018202830111640100000000821117156200012557600080fd5b8083526020830192505050908051906020019080838360005b838110156200015b5780820151818401526020810190506200013e565b50505050905090810190601f168015620001895780820380516001836020036101000a031916815260200191505b50604052505050600660405180807f696e697469616c697a6564000000000000000000000000000000000000000000815250600b019050908152602001604051809103902060009054906101000a900460ff161562000250576040517f08c379a00000000000000000000000000000000000000000000000000000000081526004018080602001828103825260048152602001807f455252310000000000000000000000000000000000000000000000000000000081525060200191505060405180910390fd5b600060028351816200025e57fe5b061415620002d4576040517f08c379a00000000000000000000000000000000000000000000000000000000081526004018080602001828103825260058152602001807f455252333400000000000000000000000000000000000000000000000000000081525060200191505060405180910390fd5b60008060405180807f417070726f76616c734e65656465640000000000000000000000000000000000815250600f0190509081526020016040518091039020819055506001600660405180807f496e7374616e6365496e50726f677265737300000000000000000000000000008152506012019050908152602001604051809103902060006101000a81548160ff0219169083151502179055506001600660405180807f70617573656400000000000000000000000000000000000000000000000000008152506006019050908152602001604051809103902060006101000a81548160ff02191690831515021790555060005b825181101562000839576040518060400160405280600a81526020017f537570657241646d696e00000000000000000000000000000000000000000000815250600960008584815181106200041957fe5b602002602001015173ffffffffffffffffffffffffffffffffffffffff1673ffffffffffffffffffffffffffffffffffffffff16815260200190815260200160002060020160405180807f5573657254797065000000000000000000000000000000000000000000000000815250600801905090815260200160405180910390209080519060200190620004af929190620009f2565b50600160096000858481518110620004c357fe5b602002602001015173ffffffffffffffffffffffffffffffffffffffff1673ffffffffffffffffffffffffffffffffffffffff16815260200190815260200160002060040160405180807f496e6974000000000000000000000000000000000000000000000000000000008152506004019050908152602001604051809103902060006101000a81548160ff02191690831515021790555081600960008584815181106200056d57fe5b602002602001015173ffffffffffffffffffffffffffffffffffffffff1673ffffffffffffffffffffffffffffffffffffffff16815260200190815260200160002060020160405180807f526567696f6e000000000000000000000000000000000000000000000000000081525060060190509081526020016040518091039020908051906020019062000603929190620009f2565b50600460405180807f537570657241646d696e00000000000000000000000000000000000000000000815250600a01905090815260200160405180910390208382815181106200064f57fe5b60200260200101519080600181540180825580915050600190039060005260206000200160009091909190916101000a81548173ffffffffffffffffffffffffffffffffffffffff021916908373ffffffffffffffffffffffffffffffffffffffff1602179055506004826040516020018082805190602001908083835b60208310620006f25780518252602082019150602081019050602083039250620006cd565b6001836020036101000a038019825116818451168082178552505050505050905001807f537570657241646d696e00000000000000000000000000000000000000000000815250600a019150506040516020818303038152906040526040518082805190602001908083835b602083106200078357805182526020820191506020810190506020830392506200075e565b6001836020036101000a0380198251168184511680821785525050505050509050019150509081526020016040518091039020838281518110620007c357fe5b60200260200101519080600181540180825580915050600190039060005260206000200160009091909190916101000a81548173ffffffffffffffffffffffffffffffffffffffff021916908373ffffffffffffffffffffffffffffffffffffffff1602179055508080600101915050620003c8565b50600160405160200180807f537570657241646d696e00000000000000000000000000000000000000000000815250600a0182151560f81b815260010191505060405160208183030381529060405280519060200120600960003373ffffffffffffffffffffffffffffffffffffffff1673ffffffffffffffffffffffffffffffffffffffff16815260200190815260200160002060020160405180807f557365725479706500000000000000000000000000000000000000000000000081525060080190509081526020016040518091039020600660405180807f70617573656400000000000000000000000000000000000000000000000000008152506006019050908152602001604051809103902060009054906101000a900460ff166040516020018083805460018160011615610100020316600290048015620009bb5780601f1062000998576101008083540402835291820191620009bb565b820191906000526020600020905b815481529060010190602001808311620009a6575b505082151560f81b8152600101925050506040516020818303038152906040528051906020012014620009ea57fe5b505062000aa8565b828054600181600116156101000203166002900490600052602060002090601f01602090048101928262000a2a576000855562000a76565b82601f1062000a4557805160ff191683800117855562000a76565b8280016001018555821562000a76579182015b8281111562000a7557825182559160200191906001019062000a58565b5b50905062000a85919062000a89565b5090565b5b8082111562000aa457600081600090555060010162000a8a565b5090565b611bd38062000ab86000396000f3fe6080604052600436106100435760003560e01c80630900f010146102dd5780638456cb591461032e578063f68fae7d14610345578063f7b188a51461035c5761004a565b3661004a57005b600660405180807f70617573656400000000000000000000000000000000000000000000000000008152506006019050908152602001604051809103902060009054906101000a900460ff1615610109576040517f08c379a00000000000000000000000000000000000000000000000000000000081526004018080602001828103825260058152602001807f455252323400000000000000000000000000000000000000000000000000000081525060200191505060405180910390fd5b6000600560405180807f66756e6374696f6e436f6e7472616374416464726573730000000000000000008152506017019050908152602001604051809103902060009054906101000a900473ffffffffffffffffffffffffffffffffffffffff169050600073ffffffffffffffffffffffffffffffffffffffff16600560405180807f66756e6374696f6e436f6e7472616374416464726573730000000000000000008152506017019050908152602001604051809103902060009054906101000a900473ffffffffffffffffffffffffffffffffffffffff1673ffffffffffffffffffffffffffffffffffffffff16141561026d576040517f08c379a00000000000000000000000000000000000000000000000000000000081526004018080602001828103825260058152602001807f455252323600000000000000000000000000000000000000000000000000000081525060200191505060405180910390fd5b60606000368080601f016020809104026020016040519081016040528093929190818152602001838380828437600081840152601f19601f820116905080830192505050505050509050600080825160208401855af43d604051816000823e82600081146102d9578282f35b8282fd5b3480156102e957600080fd5b5061032c6004803603602081101561030057600080fd5b81019080803573ffffffffffffffffffffffffffffffffffffffff169060200190929190505050610373565b005b34801561033a57600080fd5b5061034361069c565b005b34801561035157600080fd5b5061035a610875565b005b34801561036857600080fd5b50610371610d79565b005b600660405180807f70617573656400000000000000000000000000000000000000000000000000008152506006019050908152602001604051809103902060009054906101000a900460ff16610431576040517f08c379a00000000000000000000000000000000000000000000000000000000081526004018080602001828103825260058152602001807f455252323500000000000000000000000000000000000000000000000000000081525060200191505060405180910390fd5b61043961118c565b61044257600080fd5b600660405180807f496e7374616e6365496e50726f677265737300000000000000000000000000008152506012019050908152602001604051809103902060009054906101000a900460ff166105ca576001600660405180807f496e7374616e6365496e50726f677265737300000000000000000000000000008152506012019050908152602001604051809103902060006101000a81548160ff0219169083151502179055506001600660405180807f5570677261646553746172746564000000000000000000000000000000000000815250600e019050908152602001604051809103902060006101000a81548160ff02191690831515021790555061054861127c565b80600560405180807f66756e6374696f6e436f6e747261637441646472657373557067726164650000815250601e019050908152602001604051809103902060006101000a81548173ffffffffffffffffffffffffffffffffffffffff021916908373ffffffffffffffffffffffffffffffffffffffff160217905550610699565b600660405180807f696e697469616c697a6564000000000000000000000000000000000000000000815250600b019050908152602001604051809103902060009054906101000a900460ff166106985780600560405180807f66756e6374696f6e436f6e7472616374416464726573730000000000000000008152506017019050908152602001604051809103902060006101000a81548173ffffffffffffffffffffffffffffffffffffffff021916908373ffffffffffffffffffffffffffffffffffffffff1602179055505b5b50565b600660405180807f70617573656400000000000000000000000000000000000000000000000000008152506006019050908152602001604051809103902060009054906101000a900460ff161561075b576040517f08c379a00000000000000000000000000000000000000000000000000000000081526004018080602001828103825260058152602001807f455252323400000000000000000000000000000000000000000000000000000081525060200191505060405180910390fd5b61076361118c565b61076c57600080fd5b600660405180807f496e7374616e6365496e50726f677265737300000000000000000000000000008152506012019050908152602001604051809103902060009054906101000a900460ff16610873576001600660405180807f496e7374616e6365496e50726f677265737300000000000000000000000000008152506012019050908152602001604051809103902060006101000a81548160ff0219169083151502179055506001600660405180807f5061757365537461727465640000000000000000000000000000000000000000815250600c019050908152602001604051809103902060006101000a81548160ff02191690831515021790555061087261127c565b5b565b61087d61118c565b61088657600080fd5b60063360006040516108979061194a565b9081526020016040518091039020546040516020016108b792919061189c565b6040516020818303038152906040526040516108d391906118c8565b908152602001604051809103902060009054906101000a900460ff161561092f576040517f08c379a000000000000000000000000000000000000000000000000000000000815260040161092690611a79565b60405180910390fd5b600160063360006040516109429061194a565b90815260200160405180910390205460405160200161096292919061189c565b60405160208183030381529060405260405161097e91906118c8565b908152602001604051809103902060006101000a81548160ff021916908315150217905550600160006040516109b3906118f6565b9081526020016040518091039020600082825403925050819055506000806040516109dd906118f6565b9081526020016040518091039020541415610ca3576006604051610a0090611935565b908152602001604051809103902060009054906101000a900460ff1615610af2576005604051610a2f90611989565b908152602001604051809103902060009054906101000a900473ffffffffffffffffffffffffffffffffffffffff166005604051610a6c9061190b565b908152602001604051809103902060006101000a81548173ffffffffffffffffffffffffffffffffffffffff021916908373ffffffffffffffffffffffffffffffffffffffff16021790555060006006604051610ac890611935565b908152602001604051809103902060006101000a81548160ff021916908315150217905550610bb1565b6006604051610b009061195f565b908152602001604051809103902060009054906101000a900460ff1615610bb05760016006604051610b31906119b3565b908152602001604051809103902060006101000a81548160ff021916908315150217905550600242016000604051610b6890611974565b90815260200160405180910390208190555060006006604051610b8a9061195f565b908152602001604051809103902060006101000a81548160ff0219169083151502179055505b5b60006006604051610bc190611920565b908152602001604051809103902060006101000a81548160ff0219169083151502179055507f0c26009224ca49c23c6bfe163fd6950c7ccd8a791bd044cb909ab6d03c5d4aa46006604051610c15906119b3565b908152602001604051809103902060009054906101000a900460ff166000604051610c3f90611974565b9081526020016040518091039020546005604051610c5c9061190b565b908152602001604051809103902060009054906101000a900473ffffffffffffffffffffffffffffffffffffffff16604051610c9a93929190611a22565b60405180910390a15b7fbf8f7157bb6a2de37d60a6d57d5e7544c6ac8b6fc03000914da1dad44e7f4ad46006604051610cd290611920565b908152602001604051809103902060009054906101000a900460ff166006604051610cfc9061195f565b908152602001604051809103902060009054906101000a900460ff166006604051610d2690611935565b908152602001604051809103902060009054906101000a900460ff166000604051610d50906118f6565b908152602001604051809103902054604051610d6f94939291906119dd565b60405180910390a1565b600660405180807f70617573656400000000000000000000000000000000000000000000000000008152506006019050908152602001604051809103902060009054906101000a900460ff16610e37576040517f08c379a00000000000000000000000000000000000000000000000000000000081526004018080602001828103825260058152602001807f455252323500000000000000000000000000000000000000000000000000000081525060200191505060405180910390fd5b610e3f61118c565b610e4857600080fd5b600660405180807f696e697469616c697a6564000000000000000000000000000000000000000000815250600b019050908152602001604051809103902060009054906101000a900460ff168015610edd575042600060405180807f706175736554696d657200000000000000000000000000000000000000000000815250600a019050908152602001604051809103902054105b15610f3e576000600660405180807f70617573656400000000000000000000000000000000000000000000000000008152506006019050908152602001604051809103902060006101000a81548160ff021916908315150217905550611044565b6000600660405180807f70617573656400000000000000000000000000000000000000000000000000008152506006019050908152602001604051809103902060006101000a81548160ff0219169083151502179055506001600660405180807f696e697469616c697a6564000000000000000000000000000000000000000000815250600b019050908152602001604051809103902060006101000a81548160ff0219169083151502179055506000600660405180807f496e7374616e6365496e50726f677265737300000000000000000000000000008152506012019050908152602001604051809103902060006101000a81548160ff0219169083151502179055505b7f0c26009224ca49c23c6bfe163fd6950c7ccd8a791bd044cb909ab6d03c5d4aa4600660405180807f70617573656400000000000000000000000000000000000000000000000000008152506006019050908152602001604051809103902060009054906101000a900460ff16600060405180807f706175736554696d657200000000000000000000000000000000000000000000815250600a019050908152602001604051809103902054600560405180807f66756e6374696f6e436f6e7472616374416464726573730000000000000000008152506017019050908152602001604051809103902060009054906101000a900473ffffffffffffffffffffffffffffffffffffffff166040518084151581526020018381526020018273ffffffffffffffffffffffffffffffffffffffff168152602001935050505060405180910390a1565b600060405160200161119d9061199e565b60405160208183030381529060405280519060200120600960003373ffffffffffffffffffffffffffffffffffffffff1673ffffffffffffffffffffffffffffffffffffffff168152602001908152602001600020600201604051611201906119c8565b908152602001604051809103902060405160200161121f91906118df565b6040516020818303038152906040528051906020012014611275576040517f08c379a000000000000000000000000000000000000000000000000000000000815260040161126c90611a59565b60405180910390fd5b6001905090565b600060405161128a9061194a565b908152602001604051809103902060008154809291906001019190505550600160063360006040516112bb9061194a565b9081526020016040518091039020546040516020016112db92919061189c565b6040516020818303038152906040526040516112f791906118c8565b908152602001604051809103902060006101000a81548160ff02191690831515021790555060016002600160046040516113309061199e565b908152602001604051809103902080549050018161134a57fe5b0403600060405161135a906118f6565b9081526020016040518091039020819055507fbf8f7157bb6a2de37d60a6d57d5e7544c6ac8b6fc03000914da1dad44e7f4ad4600660405161139b90611920565b908152602001604051809103902060009054906101000a900460ff1660066040516113c59061195f565b908152602001604051809103902060009054906101000a900460ff1660066040516113ef90611935565b908152602001604051809103902060009054906101000a900460ff166000604051611419906118f6565b90815260200160405180910390205460405161143894939291906119dd565b60405180910390a1565b61145361144e82611ae7565b611b62565b82525050565b61146281611ad5565b82525050565b61147181611af9565b82525050565b600061148282611aae565b61148c8185611aca565b935061149c818560208601611b2f565b80840191505092915050565b6000815460018116600081146114c557600181146114ea5761152e565b607f60028304166114d68187611aca565b955060ff198316865280860193505061152e565b600282046114f88187611aca565b955061150385611a99565b60005b8281101561152557815481890152600182019150602081019050611506565b82880195505050505b505092915050565b6000611543600f83611aca565b91507f417070726f76616c734e656564656400000000000000000000000000000000006000830152600f82019050919050565b6000611583601783611aca565b91507f66756e6374696f6e436f6e7472616374416464726573730000000000000000006000830152601782019050919050565b60006115c3601283611aca565b91507f496e7374616e6365496e50726f677265737300000000000000000000000000006000830152601282019050919050565b6000611603600e83611aca565b91507f55706772616465537461727465640000000000000000000000000000000000006000830152600e82019050919050565b6000611643601083611aca565b91507f4d756c7469736967496e7374616e6365000000000000000000000000000000006000830152601082019050919050565b6000611683600c83611aca565b91507f50617573655374617274656400000000000000000000000000000000000000006000830152600c82019050919050565b60006116c3600a83611aca565b91507f706175736554696d6572000000000000000000000000000000000000000000006000830152600a82019050919050565b6000611703601e83611aca565b91507f66756e6374696f6e436f6e7472616374416464726573735570677261646500006000830152601e82019050919050565b6000611743600a83611aca565b91507f537570657241646d696e000000000000000000000000000000000000000000006000830152600a82019050919050565b6000611783600583611ab9565b91507f45525232370000000000000000000000000000000000000000000000000000006000830152602082019050919050565b60006117c3600683611aca565b91507f70617573656400000000000000000000000000000000000000000000000000006000830152600682019050919050565b6000611803600883611aca565b91507f55736572547970650000000000000000000000000000000000000000000000006000830152600882019050919050565b6000611843600583611ab9565b91507f45525233370000000000000000000000000000000000000000000000000000006000830152602082019050919050565b61187f81611b25565b82525050565b61189661189182611b25565b611b86565b82525050565b60006118a88285611442565b6014820191506118b88284611885565b6020820191508190509392505050565b60006118d48284611477565b915081905092915050565b60006118eb82846114a8565b915081905092915050565b600061190182611536565b9150819050919050565b600061191682611576565b9150819050919050565b600061192b826115b6565b9150819050919050565b6000611940826115f6565b9150819050919050565b600061195582611636565b9150819050919050565b600061196a82611676565b9150819050919050565b600061197f826116b6565b9150819050919050565b6000611994826116f6565b9150819050919050565b60006119a982611736565b9150819050919050565b60006119be826117b6565b9150819050919050565b60006119d3826117f6565b9150819050919050565b60006080820190506119f26000830187611468565b6119ff6020830186611468565b611a0c6040830185611468565b611a196060830184611876565b95945050505050565b6000606082019050611a376000830186611468565b611a446020830185611876565b611a516040830184611459565b949350505050565b60006020820190508181036000830152611a7281611776565b9050919050565b60006020820190508181036000830152611a9281611836565b9050919050565b60008190508160005260206000209050919050565b600081519050919050565b600082825260208201905092915050565b600081905092915050565b6000611ae082611b05565b9050919050565b6000611af282611b05565b9050919050565b60008115159050919050565b600073ffffffffffffffffffffffffffffffffffffffff82169050919050565b6000819050919050565b60005b83811015611b4d578082015181840152602081019050611b32565b83811115611b5c576000848401525b50505050565b6000611b6d82611b74565b9050919050565b6000611b7f82611b90565b9050919050565b6000819050919050565b60008160601b905091905056fea2646970667358221220f4c40e449e9bc7227944294b350e1e26ed65ff351889e030ec0afa017034d99264736f6c63430007050033",
  "immutableReferences": {},
  "source": "// SPDX-License-Identifier: UNLICENSED\npragma solidity 0.7.5;\n\nimport \"./MultiSig.sol\";\n\ncontract Proxy is MultiSig {\n\n    constructor(address[] memory _superAdminArray, string memory _region) {\n        require(!_boolStorage[\"initialized\"], \"ERR1\");\n        require(_superAdminArray.length % 2 != 0, \"ERR34\");\n\n        _uintStorage[\"ApprovalsNeeded\"] = 0;\n        _boolStorage[\"InstanceInProgress\"] = true;\n        _boolStorage[\"paused\"] = true;\n        for(uint i = 0; i < _superAdminArray.length; i++){\n            _users[_superAdminArray[i]]._stringUser[\"UserType\"] = \"SuperAdmin\";\n            _users[_superAdminArray[i]]._boolUser[\"Init\"] = true;\n            _users[_superAdminArray[i]]._stringUser[\"Region\"] = _region;\n            _addressArrayStorage[\"SuperAdmin\"].push(_superAdminArray[i]);\n            _addressArrayStorage[ string(abi.encodePacked(_region,\"SuperAdmin\")) ].push(_superAdminArray[i]);\n        }\n        \n\n        assert( bytes32(keccak256(abi.encodePacked(\n                     _users[msg.sender]._stringUser[\"UserType\"],\n                   _boolStorage[\"paused\"])))\n            ==\n                bytes32(keccak256(abi.encodePacked(\n                    \"SuperAdmin\",\n                    true)))\n        );\n    }\n\n    function upgrade(address _newAddress) public whenPaused {\n        require(onlyOwners());\n        if(!_boolStorage[\"InstanceInProgress\"]){\n            _boolStorage[\"InstanceInProgress\"] = true;\n            _boolStorage[\"UpgradeStarted\"] = true;\n            createMultisigInstance();\n            _addressStorage[\"functionContractAddressUpgrade\"] = _newAddress;\n        }else if(!_boolStorage[\"initialized\"]){\n            _addressStorage[\"functionContractAddress\"] = _newAddress;\n        \n        }\n\n    }\n\n\n    modifier whenNotPaused() {\n        require(!_boolStorage[\"paused\"], \"ERR24\");\n        _;\n    }\n\n    modifier whenPaused() {\n        require(_boolStorage[\"paused\"], \"ERR25\");\n        _;\n    }\n    \n    function pause() public whenNotPaused {\n        require(onlyOwners());\n        if(!_boolStorage[\"InstanceInProgress\"]){\n            _boolStorage[\"InstanceInProgress\"] = true;\n            _boolStorage[\"PauseStarted\"] = true;\n            createMultisigInstance();\n        }\n    }\n    \n    function unPause() public whenPaused {\n        require(onlyOwners());\n        if(_boolStorage[\"initialized\"] && _uintStorage[\"pauseTimer\"] < block.timestamp){\n            _boolStorage[\"paused\"] = false;\n        } else {\n            // will be unpaused if contract is not initialized yet\n            _boolStorage[\"paused\"] = false;\n            _boolStorage[\"initialized\"] = true;\n            _boolStorage[\"InstanceInProgress\"]= false;\n        }\n        emit confirmationE(_boolStorage[\"paused\"], _uintStorage[\"pauseTimer\"], _addressStorage[\"functionContractAddress\"] );\n    }\n\n    // Fallback function, last call..\n    fallback() payable external whenNotPaused {\n        address implementation = _addressStorage[\"functionContractAddress\"];\n        // checks that address(0) is not an empty address\n        require(_addressStorage[\"functionContractAddress\"] != address(0), \"ERR26\");\n        bytes memory data = msg.data;\n\n        assembly{\n            let result := delegatecall(gas(), implementation, add(data, 0x20), mload(data), 0, 0)\n            let size := returndatasize()\n            let ptr := mload(0x40)\n            returndatacopy(ptr, 0, size)\n            switch result\n            case 0 {revert(ptr, size)}\n            default {return(ptr, size)}\n        }\n    }\n\n    // Solidity split the unnamed function into fallback() and recieve() in v 0.6.0\n    receive() external payable {\n        // custom function code\n    }\n}\n\n",
  "sourcePath": "/Users/alex/Library/Mobile Documents/com~apple~CloudDocs/UiA/DAT304V21 - Oppgave/ChainVote/BackEnd/contracts/Proxy.sol",
  "compiler": {
    "name": "solc",
    "version": "0.7.5+commit.eb77ed08.Emscripten.clang"
  },
  "schemaVersion": "3.3.4",
  "updatedAt": "2021-05-03T16:07:26.134Z",
  "networkType": "ethereum",
  "devdoc": {
    "kind": "dev",
    "methods": {},
    "version": 1
  },
  "userdoc": {
    "kind": "user",
    "methods": {},
    "version": 1
  }
}