{
  "contractName": "Proxy",
  "abi": [
    {
      "inputs": [
        {
          "internalType": "address",
          "name": "_currenAddress",
          "type": "address"
        }
      ],
      "stateMutability": "nonpayable",
      "type": "constructor"
    },
    {
      "stateMutability": "payable",
      "type": "fallback",
      "payable": true
    },
    {
      "stateMutability": "payable",
      "type": "receive",
      "payable": true
    },
    {
      "inputs": [
        {
          "internalType": "address",
          "name": "_newAddress",
          "type": "address"
        }
      ],
      "name": "upgrade",
      "outputs": [],
      "stateMutability": "nonpayable",
      "type": "function"
    },
    {
      "inputs": [],
      "name": "pause",
      "outputs": [],
      "stateMutability": "nonpayable",
      "type": "function"
    },
    {
      "inputs": [],
      "name": "unPause",
      "outputs": [],
      "stateMutability": "nonpayable",
      "type": "function"
    }
  ],
  "bytecode": "0x608060405234801561001057600080fd5b5060405161084e38038061084e8339818101604052602081101561003357600080fd5b810190808051906020019092919050505033600560405180807f6f776e65720000000000000000000000000000000000000000000000000000008152506005019050908152602001604051809103902060006101000a81548173ffffffffffffffffffffffffffffffffffffffff021916908373ffffffffffffffffffffffffffffffffffffffff16021790555080600560405180807f63757272656e7441646472657373000000000000000000000000000000000000815250600e019050908152602001604051809103902060006101000a81548173ffffffffffffffffffffffffffffffffffffffff021916908373ffffffffffffffffffffffffffffffffffffffff1602179055506000600660405180807f70617573656400000000000000000000000000000000000000000000000000008152506006019050908152602001604051809103902060006101000a81548160ff021916908315150217905550506106a9806101a56000396000f3fe6080604052600436106100385760003560e01c80630900f010146102005780638456cb5914610251578063f7b188a5146102685761003f565b3661003f57005b600660405180807f70617573656400000000000000000000000000000000000000000000000000008152506006019050908152602001604051809103902060009054906101000a900460ff161561009557600080fd5b6000600560405180807f63757272656e7441646472657373000000000000000000000000000000000000815250600e019050908152602001604051809103902060009054906101000a900473ffffffffffffffffffffffffffffffffffffffff169050600073ffffffffffffffffffffffffffffffffffffffff16600560405180807f63757272656e7441646472657373000000000000000000000000000000000000815250600e019050908152602001604051809103902060009054906101000a900473ffffffffffffffffffffffffffffffffffffffff1673ffffffffffffffffffffffffffffffffffffffff16141561019057600080fd5b60606000368080601f016020809104026020016040519081016040528093929190818152602001838380828437600081840152601f19601f820116905080830192505050505050509050600080825160208401855af43d604051816000823e82600081146101fc578282f35b8282fd5b34801561020c57600080fd5b5061024f6004803603602081101561022357600080fd5b81019080803573ffffffffffffffffffffffffffffffffffffffff16906020019092919050505061027f565b005b34801561025d57600080fd5b506102666103ea565b005b34801561027457600080fd5b5061027d61052f565b005b600560405180807f6f776e65720000000000000000000000000000000000000000000000000000008152506005019050908152602001604051809103902060009054906101000a900473ffffffffffffffffffffffffffffffffffffffff1673ffffffffffffffffffffffffffffffffffffffff163373ffffffffffffffffffffffffffffffffffffffff161461031557600080fd5b600660405180807f70617573656400000000000000000000000000000000000000000000000000008152506006019050908152602001604051809103902060009054906101000a900460ff1661036a57600080fd5b80600560405180807f63757272656e7441646472657373000000000000000000000000000000000000815250600e019050908152602001604051809103902060006101000a81548173ffffffffffffffffffffffffffffffffffffffff021916908373ffffffffffffffffffffffffffffffffffffffff16021790555050565b600560405180807f6f776e65720000000000000000000000000000000000000000000000000000008152506005019050908152602001604051809103902060009054906101000a900473ffffffffffffffffffffffffffffffffffffffff1673ffffffffffffffffffffffffffffffffffffffff163373ffffffffffffffffffffffffffffffffffffffff161461048057600080fd5b600660405180807f70617573656400000000000000000000000000000000000000000000000000008152506006019050908152602001604051809103902060009054906101000a900460ff16156104d657600080fd5b6001600660405180807f70617573656400000000000000000000000000000000000000000000000000008152506006019050908152602001604051809103902060006101000a81548160ff021916908315150217905550565b600560405180807f6f776e65720000000000000000000000000000000000000000000000000000008152506005019050908152602001604051809103902060009054906101000a900473ffffffffffffffffffffffffffffffffffffffff1673ffffffffffffffffffffffffffffffffffffffff163373ffffffffffffffffffffffffffffffffffffffff16146105c557600080fd5b600660405180807f70617573656400000000000000000000000000000000000000000000000000008152506006019050908152602001604051809103902060009054906101000a900460ff1661061a57600080fd5b6000600660405180807f70617573656400000000000000000000000000000000000000000000000000008152506006019050908152602001604051809103902060006101000a81548160ff02191690831515021790555056fea264697066735822122073200da1b3ec13b4631d6ab63107a1c3a119f4c4ca4f4c383ff65a60b29f175864736f6c63430007050033",
  "immutableReferences": {},
  "source": "//SPDX-License-Identifier: UNLICENSED\npragma solidity 0.7.5;\n\nimport \"./Ownable.sol\";\n\ncontract Proxy is Ownable {\n\n    constructor(address _currenAddress) {\n        // index 0, not sure if ok\n        _addressStorage[\"currentAddress\"] = _currenAddress;\n        _boolStorage[\"paused\"] = false;\n    }\n\n    function upgrade(address _newAddress) public onlyOwner whenPaused {\n        _addressStorage[\"currentAddress\"] = _newAddress;\n    }\n\n    modifier whenNotPaused() {\n        require(!_boolStorage[\"paused\"]);\n        _;\n    }\n    modifier whenPaused() {\n        require(_boolStorage[\"paused\"]);\n        _;\n    }\n    \n    function pause() public onlyOwner whenNotPaused {\n        _boolStorage[\"paused\"] = true;\n    }\n    \n    function unPause() public onlyOwner whenPaused{\n        _boolStorage[\"paused\"] = false;\n    }\n\n    // Fallback function, last call..\n    fallback() payable external whenNotPaused {\n        address implementation = _addressStorage[\"currentAddress\"];\n        require(_addressStorage[\"currentAddress\"] != address(0));\n        bytes memory data = msg.data;\n\n        assembly{\n            let result := delegatecall(gas(), implementation, add(data, 0x20), mload(data), 0, 0)\n            let size := returndatasize()\n            let ptr := mload(0x40)\n            returndatacopy(ptr, 0, size)\n            switch result\n            case 0 {revert(ptr, size)}\n            default {return(ptr, size)}\n        }\n    }\n    // Solidity split the unnamed function into fallback() and recieve() in v 0.6.0\n    receive() external payable {\n        // custom function code\n    }\n}\n\n",
  "sourcePath": "/Users/alex/Library/Mobile Documents/com~apple~CloudDocs/UiA/DAT304V21 - Oppgave/ChainVote/BackEnd/contracts/Proxy.sol",
  "compiler": {
    "name": "solc",
    "version": "0.7.5+commit.eb77ed08.Emscripten.clang"
  },
  "schemaVersion": "3.3.4",
  "updatedAt": "2021-03-28T20:43:31.685Z",
  "networkType": "ethereum",
  "devdoc": {
    "kind": "dev",
    "methods": {},
    "version": 1
  },
  "userdoc": {
    "kind": "user",
    "methods": {},
    "version": 1
  }
}