{
  "contractName": "Proxy",
  "abi": [
    {
      "inputs": [
        {
          "internalType": "address",
          "name": "_currenAddress",
          "type": "address"
        }
      ],
      "stateMutability": "nonpayable",
      "type": "constructor"
    },
    {
      "stateMutability": "payable",
      "type": "fallback",
      "payable": true
    },
    {
      "stateMutability": "payable",
      "type": "receive",
      "payable": true
    },
    {
      "inputs": [
        {
          "internalType": "address",
          "name": "_newAddress",
          "type": "address"
        }
      ],
      "name": "upgrade",
      "outputs": [],
      "stateMutability": "nonpayable",
      "type": "function"
    },
    {
      "inputs": [],
      "name": "pause",
      "outputs": [],
      "stateMutability": "nonpayable",
      "type": "function"
    },
    {
      "inputs": [],
      "name": "unPause",
      "outputs": [],
      "stateMutability": "nonpayable",
      "type": "function"
    }
  ],
  "bytecode": "0x608060405234801561001057600080fd5b5060405161094d38038061094d8339818101604052602081101561003357600080fd5b8101908080519060200190929190505050336004600080815260200190815260200160002060405180807f6f776e65720000000000000000000000000000000000000000000000000000008152506005019050908152602001604051809103902060006101000a81548173ffffffffffffffffffffffffffffffffffffffff021916908373ffffffffffffffffffffffffffffffffffffffff160217905550806004600080815260200190815260200160002060405180807f63757272656e7441646472657373000000000000000000000000000000000000815250600e019050908152602001604051809103902060006101000a81548173ffffffffffffffffffffffffffffffffffffffff021916908373ffffffffffffffffffffffffffffffffffffffff16021790555060006005600080815260200190815260200160002060405180807f70617573656400000000000000000000000000000000000000000000000000008152506006019050908152602001604051809103902060006101000a81548160ff02191690831515021790555050610775806101d86000396000f3fe6080604052600436106100385760003560e01c80630900f010146102335780638456cb5914610284578063f7b188a51461029b5761003f565b3661003f57005b6005600080815260200190815260200160002060405180807f70617573656400000000000000000000000000000000000000000000000000008152506006019050908152602001604051809103902060009054906101000a900460ff16156100a657600080fd5b60006004600080815260200190815260200160002060405180807f63757272656e7441646472657373000000000000000000000000000000000000815250600e019050908152602001604051809103902060009054906101000a900473ffffffffffffffffffffffffffffffffffffffff169050600073ffffffffffffffffffffffffffffffffffffffff166004600080815260200190815260200160002060405180807f63757272656e7441646472657373000000000000000000000000000000000000815250600e019050908152602001604051809103902060009054906101000a900473ffffffffffffffffffffffffffffffffffffffff1673ffffffffffffffffffffffffffffffffffffffff1614156101c357600080fd5b60606000368080601f016020809104026020016040519081016040528093929190818152602001838380828437600081840152601f19601f820116905080830192505050505050509050600080825160208401855af43d604051816000823e826000811461022f578282f35b8282fd5b34801561023f57600080fd5b506102826004803603602081101561025657600080fd5b81019080803573ffffffffffffffffffffffffffffffffffffffff1690602001909291905050506102b2565b005b34801561029057600080fd5b50610299610450565b005b3480156102a757600080fd5b506102b06105c8565b005b6004600080815260200190815260200160002060405180807f6f776e65720000000000000000000000000000000000000000000000000000008152506005019050908152602001604051809103902060009054906101000a900473ffffffffffffffffffffffffffffffffffffffff1673ffffffffffffffffffffffffffffffffffffffff163373ffffffffffffffffffffffffffffffffffffffff161461035957600080fd5b6005600080815260200190815260200160002060405180807f70617573656400000000000000000000000000000000000000000000000000008152506006019050908152602001604051809103902060009054906101000a900460ff166103bf57600080fd5b806004600080815260200190815260200160002060405180807f63757272656e7441646472657373000000000000000000000000000000000000815250600e019050908152602001604051809103902060006101000a81548173ffffffffffffffffffffffffffffffffffffffff021916908373ffffffffffffffffffffffffffffffffffffffff16021790555050565b6004600080815260200190815260200160002060405180807f6f776e65720000000000000000000000000000000000000000000000000000008152506005019050908152602001604051809103902060009054906101000a900473ffffffffffffffffffffffffffffffffffffffff1673ffffffffffffffffffffffffffffffffffffffff163373ffffffffffffffffffffffffffffffffffffffff16146104f757600080fd5b6005600080815260200190815260200160002060405180807f70617573656400000000000000000000000000000000000000000000000000008152506006019050908152602001604051809103902060009054906101000a900460ff161561055e57600080fd5b60016005600080815260200190815260200160002060405180807f70617573656400000000000000000000000000000000000000000000000000008152506006019050908152602001604051809103902060006101000a81548160ff021916908315150217905550565b6004600080815260200190815260200160002060405180807f6f776e65720000000000000000000000000000000000000000000000000000008152506005019050908152602001604051809103902060009054906101000a900473ffffffffffffffffffffffffffffffffffffffff1673ffffffffffffffffffffffffffffffffffffffff163373ffffffffffffffffffffffffffffffffffffffff161461066f57600080fd5b6005600080815260200190815260200160002060405180807f70617573656400000000000000000000000000000000000000000000000000008152506006019050908152602001604051809103902060009054906101000a900460ff166106d557600080fd5b60006005600080815260200190815260200160002060405180807f70617573656400000000000000000000000000000000000000000000000000008152506006019050908152602001604051809103902060006101000a81548160ff02191690831515021790555056fea2646970667358221220d840f7bf2c0b44671b1ad63981f77f96111a61a4e0d282b025c55d50d210ed6e64736f6c63430007050033",
  "immutableReferences": {},
  "source": "//SPDX-License-Identifier: UNLICENSED\npragma solidity 0.7.5;\n\nimport \"./Ownable.sol\";\n\ncontract Proxy is Ownable {\n\n    constructor(address _currenAddress) {\n        // index 0, not sure if ok\n        _addressStorage[0][\"currentAddress\"] = _currenAddress;\n        _boolStorage[0][\"paused\"] = false;\n    }\n\n    function upgrade(address _newAddress) public onlyOwner whenPaused {\n        _addressStorage[0][\"currentAddress\"] = _newAddress;\n    }\n\n    modifier whenNotPaused() {\n        require(!_boolStorage[0][\"paused\"]);\n        _;\n    }\n    modifier whenPaused() {\n        require(_boolStorage[0][\"paused\"]);\n        _;\n    }\n    \n    function pause() public onlyOwner whenNotPaused {\n        _boolStorage[0][\"paused\"] = true;\n    }\n    \n    function unPause() public onlyOwner whenPaused{\n        _boolStorage[0][\"paused\"] = false;\n    }\n\n    // Fallback function, last call..\n    fallback() payable external whenNotPaused {\n        address implementation = _addressStorage[0][\"currentAddress\"];\n        require(_addressStorage[0][\"currentAddress\"] != address(0));\n        bytes memory data = msg.data;\n\n        assembly{\n            let result := delegatecall(gas(), implementation, add(data, 0x20), mload(data), 0, 0)\n            let size := returndatasize()\n            let ptr := mload(0x40)\n            returndatacopy(ptr, 0, size)\n            switch result\n            case 0 {revert(ptr, size)}\n            default {return(ptr, size)}\n        }\n    }\n    // Solidity split the unnamed function into fallback() and recieve() in v 0.6.0\n    receive() external payable {\n        // custom function code\n    }\n}\n\n",
  "sourcePath": "/Users/alex/Library/Mobile Documents/com~apple~CloudDocs/UiA/DAT304V21 - Oppgave/ChainVote/BackEnd/contracts/Proxy.sol",
  "compiler": {
    "name": "solc",
    "version": "0.7.5+commit.eb77ed08.Emscripten.clang"
  },
  "schemaVersion": "3.3.4",
  "updatedAt": "2021-03-10T22:27:04.046Z",
  "networkType": "ethereum",
  "devdoc": {
    "kind": "dev",
    "methods": {},
    "version": 1
  },
  "userdoc": {
    "kind": "user",
    "methods": {},
    "version": 1
  }
}